{
  "contractName": "BlobMarketplace",
  "abi": [
    {
      "anonymous": false,
      "inputs": [
        {
          "indexed": true,
          "internalType": "address",
          "name": "_owner",
          "type": "address"
        },
        {
          "indexed": true,
          "internalType": "address",
          "name": "_approved",
          "type": "address"
        },
        {
          "indexed": true,
          "internalType": "uint256",
          "name": "_tokenId",
          "type": "uint256"
        }
      ],
      "name": "Approval",
      "type": "event"
    },
    {
      "anonymous": false,
      "inputs": [
        {
          "indexed": false,
          "internalType": "uint256",
          "name": "blobId",
          "type": "uint256"
        },
        {
          "indexed": false,
          "internalType": "string",
          "name": "name",
          "type": "string"
        },
        {
          "indexed": false,
          "internalType": "uint256",
          "name": "dna",
          "type": "uint256"
        }
      ],
      "name": "NewBlob",
      "type": "event"
    },
    {
      "anonymous": false,
      "inputs": [
        {
          "indexed": true,
          "internalType": "address",
          "name": "previousOwner",
          "type": "address"
        },
        {
          "indexed": true,
          "internalType": "address",
          "name": "newOwner",
          "type": "address"
        }
      ],
      "name": "OwnershipTransferred",
      "type": "event"
    },
    {
      "anonymous": false,
      "inputs": [
        {
          "indexed": true,
          "internalType": "address",
          "name": "_from",
          "type": "address"
        },
        {
          "indexed": true,
          "internalType": "address",
          "name": "_to",
          "type": "address"
        },
        {
          "indexed": true,
          "internalType": "uint256",
          "name": "_tokenId",
          "type": "uint256"
        }
      ],
      "name": "Transfer",
      "type": "event"
    },
    {
      "inputs": [
        {
          "internalType": "address",
          "name": "_approved",
          "type": "address"
        },
        {
          "internalType": "uint256",
          "name": "_tokenId",
          "type": "uint256"
        }
      ],
      "name": "approve",
      "outputs": [],
      "stateMutability": "payable",
      "type": "function",
      "payable": true
    },
    {
      "inputs": [
        {
          "internalType": "address",
          "name": "_owner",
          "type": "address"
        }
      ],
      "name": "balanceOf",
      "outputs": [
        {
          "internalType": "uint256",
          "name": "",
          "type": "uint256"
        }
      ],
      "stateMutability": "view",
      "type": "function",
      "constant": true
    },
    {
      "inputs": [
        {
          "internalType": "uint256",
          "name": "",
          "type": "uint256"
        }
      ],
      "name": "blobToOwner",
      "outputs": [
        {
          "internalType": "address",
          "name": "",
          "type": "address"
        }
      ],
      "stateMutability": "view",
      "type": "function",
      "constant": true
    },
    {
      "inputs": [
        {
          "internalType": "uint256",
          "name": "",
          "type": "uint256"
        }
      ],
      "name": "blobs",
      "outputs": [
        {
          "internalType": "string",
          "name": "name",
          "type": "string"
        },
        {
          "internalType": "uint256",
          "name": "dna",
          "type": "uint256"
        },
        {
          "internalType": "uint32",
          "name": "level",
          "type": "uint32"
        },
        {
          "internalType": "uint32",
          "name": "readyTime",
          "type": "uint32"
        },
        {
          "internalType": "uint16",
          "name": "winCount",
          "type": "uint16"
        },
        {
          "internalType": "uint16",
          "name": "lossCount",
          "type": "uint16"
        }
      ],
      "stateMutability": "view",
      "type": "function",
      "constant": true
    },
    {
      "inputs": [
        {
          "internalType": "string",
          "name": "_name",
          "type": "string"
        }
      ],
      "name": "createRandomBlob",
      "outputs": [],
      "stateMutability": "nonpayable",
      "type": "function"
    },
    {
      "inputs": [
        {
          "internalType": "address",
          "name": "_owner",
          "type": "address"
        }
      ],
      "name": "getBlobsByOwner",
      "outputs": [
        {
          "internalType": "uint256[]",
          "name": "",
          "type": "uint256[]"
        }
      ],
      "stateMutability": "view",
      "type": "function",
      "constant": true
    },
    {
      "inputs": [],
      "name": "isOwner",
      "outputs": [
        {
          "internalType": "bool",
          "name": "",
          "type": "bool"
        }
      ],
      "stateMutability": "view",
      "type": "function",
      "constant": true
    },
    {
      "inputs": [
        {
          "internalType": "uint256",
          "name": "",
          "type": "uint256"
        }
      ],
      "name": "listings",
      "outputs": [
        {
          "internalType": "uint256",
          "name": "",
          "type": "uint256"
        }
      ],
      "stateMutability": "view",
      "type": "function",
      "constant": true
    },
    {
      "inputs": [],
      "name": "owner",
      "outputs": [
        {
          "internalType": "address",
          "name": "",
          "type": "address"
        }
      ],
      "stateMutability": "view",
      "type": "function",
      "constant": true
    },
    {
      "inputs": [
        {
          "internalType": "uint256",
          "name": "_tokenId",
          "type": "uint256"
        }
      ],
      "name": "ownerOf",
      "outputs": [
        {
          "internalType": "address",
          "name": "",
          "type": "address"
        }
      ],
      "stateMutability": "view",
      "type": "function",
      "constant": true
    },
    {
      "inputs": [],
      "name": "renounceOwnership",
      "outputs": [],
      "stateMutability": "nonpayable",
      "type": "function"
    },
    {
      "inputs": [
        {
          "internalType": "address",
          "name": "_from",
          "type": "address"
        },
        {
          "internalType": "address",
          "name": "_to",
          "type": "address"
        },
        {
          "internalType": "uint256",
          "name": "_tokenId",
          "type": "uint256"
        }
      ],
      "name": "transferFrom",
      "outputs": [],
      "stateMutability": "payable",
      "type": "function",
      "payable": true
    },
    {
      "inputs": [
        {
          "internalType": "address",
          "name": "newOwner",
          "type": "address"
        }
      ],
      "name": "transferOwnership",
      "outputs": [],
      "stateMutability": "nonpayable",
      "type": "function"
    },
    {
      "inputs": [
        {
          "internalType": "uint256",
          "name": "_blobId",
          "type": "uint256"
        }
      ],
      "name": "getBlobPrice",
      "outputs": [
        {
          "internalType": "uint256",
          "name": "",
          "type": "uint256"
        }
      ],
      "stateMutability": "view",
      "type": "function",
      "constant": true
    },
    {
      "inputs": [],
      "name": "getBlobsForSale",
      "outputs": [
        {
          "internalType": "uint256[]",
          "name": "",
          "type": "uint256[]"
        }
      ],
      "stateMutability": "view",
      "type": "function",
      "constant": true
    },
    {
      "inputs": [
        {
          "internalType": "uint256",
          "name": "_blobId",
          "type": "uint256"
        },
        {
          "internalType": "uint256",
          "name": "price",
          "type": "uint256"
        }
      ],
      "name": "listBlobForSale",
      "outputs": [],
      "stateMutability": "payable",
      "type": "function",
      "payable": true
    },
    {
      "inputs": [
        {
          "internalType": "uint256",
          "name": "_blobId",
          "type": "uint256"
        }
      ],
      "name": "cancelBlobListing",
      "outputs": [],
      "stateMutability": "payable",
      "type": "function",
      "payable": true
    },
    {
      "inputs": [
        {
          "internalType": "uint256",
          "name": "_blobId",
          "type": "uint256"
        }
      ],
      "name": "buyBlob",
      "outputs": [],
      "stateMutability": "payable",
      "type": "function",
      "payable": true
    }
  ],
  "bytecode": "0x60806040526010600155600154600a6200001a919062000288565b600255603c60035560056004556000600a553480156200003957600080fd5b50336000806101000a81548173ffffffffffffffffffffffffffffffffffffffff021916908373ffffffffffffffffffffffffffffffffffffffff16021790555060008054906101000a900473ffffffffffffffffffffffffffffffffffffffff1673ffffffffffffffffffffffffffffffffffffffff16600073ffffffffffffffffffffffffffffffffffffffff167f8be0079c531659141344cd1fd0a4f28419497f9722a3daafe3b4186f6b6457e060405160405180910390a3620002d9565b7f4e487b7100000000000000000000000000000000000000000000000000000000600052601160045260246000fd5b60008160011c9050919050565b6000808291508390505b60018511156200018957808604811115620001615762000160620000fb565b5b6001851615620001715780820291505b808102905062000181856200012a565b945062000141565b94509492505050565b600082620001a4576001905062000277565b81620001b4576000905062000277565b8160018114620001cd5760028114620001d8576200020e565b600191505062000277565b60ff841115620001ed57620001ec620000fb565b5b8360020a915084821115620002075762000206620000fb565b5b5062000277565b5060208310610133831016604e8410600b8410161715620002485782820a905083811115620002425762000241620000fb565b5b62000277565b62000257848484600162000137565b92509050818404811115620002715762000270620000fb565b5b81810290505b9392505050565b6000819050919050565b600062000295826200027e565b9150620002a2836200027e565b9250620002d17fffffffffffffffffffffffffffffffffffffffffffffffffffffffffffffffff848462000192565b905092915050565b611e5c80620002e96000396000f3fe6080604052600436106101095760003560e01c8063715018a611610095578063970bad6f11610064578063970bad6f14610329578063b540577614610366578063de74e57b146103a3578063f2fde38b146103e0578063fe0fd3021461040957610109565b8063715018a6146102935780637c80f25b146102aa5780638da5cb5b146102d35780638f32d59b146102fe57610109565b80632abc3d4e116100dc5780632abc3d4e1461019f5780634da6372a146101e15780636352211e146101fd578063709ff36d1461023a57806370a082311461025657610109565b8063095ea7b31461010e5780630cc9fd851461012a5780631782d4731461014657806323b872dd14610183575b600080fd5b610128600480360381019061012391906115f8565b610434565b005b610144600480360381019061013f9190611638565b610552565b005b34801561015257600080fd5b5061016d60048036038101906101689190611665565b6105ee565b60405161017a9190611750565b60405180910390f35b61019d60048036038101906101989190611772565b610741565b005b3480156101ab57600080fd5b506101c660048036038101906101c19190611638565b610825565b6040516101d8969594939291906118a9565b60405180910390f35b6101fb60048036038101906101f69190611638565b610935565b005b34801561020957600080fd5b50610224600480360381019061021f9190611638565b610b13565b6040516102319190611920565b60405180910390f35b610254600480360381019061024f919061193b565b610b50565b005b34801561026257600080fd5b5061027d60048036038101906102789190611665565b610c22565b60405161028a919061197b565b60405180910390f35b34801561029f57600080fd5b506102a8610c6b565b005b3480156102b657600080fd5b506102d160048036038101906102cc9190611acb565b610d3a565b005b3480156102df57600080fd5b506102e8610dbc565b6040516102f59190611920565b60405180910390f35b34801561030a57600080fd5b50610313610de5565b6040516103209190611b2f565b60405180910390f35b34801561033557600080fd5b50610350600480360381019061034b9190611638565b610e3c565b60405161035d9190611920565b60405180910390f35b34801561037257600080fd5b5061038d60048036038101906103889190611638565b610e6f565b60405161039a919061197b565b60405180910390f35b3480156103af57600080fd5b506103ca60048036038101906103c59190611638565b610eaf565b6040516103d7919061197b565b60405180910390f35b3480156103ec57600080fd5b5061040760048036038101906104029190611665565b610ec7565b005b34801561041557600080fd5b5061041e610ee4565b60405161042b9190611750565b60405180910390f35b806006600082815260200190815260200160002060009054906101000a900473ffffffffffffffffffffffffffffffffffffffff1673ffffffffffffffffffffffffffffffffffffffff163373ffffffffffffffffffffffffffffffffffffffff16146104a057600080fd5b826008600084815260200190815260200160002060006101000a81548173ffffffffffffffffffffffffffffffffffffffff021916908373ffffffffffffffffffffffffffffffffffffffff160217905550818373ffffffffffffffffffffffffffffffffffffffff163373ffffffffffffffffffffffffffffffffffffffff167f8c5be1e5ebec7d5bd14f71427d1e84f3dd0314c0f7b2291e5b200ac8c7c3b92560405160405180910390a4505050565b806006600082815260200190815260200160002060009054906101000a900473ffffffffffffffffffffffffffffffffffffffff1673ffffffffffffffffffffffffffffffffffffffff163373ffffffffffffffffffffffffffffffffffffffff16146105be57600080fd5b816000600960008381526020019081526020016000205414156105e057600080fd5b6105e983610fad565b505050565b60606000600760008473ffffffffffffffffffffffffffffffffffffffff1673ffffffffffffffffffffffffffffffffffffffff1681526020019081526020016000205467ffffffffffffffff81111561064b5761064a6119a0565b5b6040519080825280602002602001820160405280156106795781602001602082028036833780820191505090505b5090506000805b600580549050811015610736578473ffffffffffffffffffffffffffffffffffffffff166006600083815260200190815260200160002060009054906101000a900473ffffffffffffffffffffffffffffffffffffffff1673ffffffffffffffffffffffffffffffffffffffff161415610723578083838151811061070857610707611b4a565b5b602002602001018181525050818061071f90611ba8565b9250505b808061072e90611ba8565b915050610680565b508192505050919050565b3373ffffffffffffffffffffffffffffffffffffffff166006600083815260200190815260200160002060009054906101000a900473ffffffffffffffffffffffffffffffffffffffff1673ffffffffffffffffffffffffffffffffffffffff16148061080c57503373ffffffffffffffffffffffffffffffffffffffff166008600083815260200190815260200160002060009054906101000a900473ffffffffffffffffffffffffffffffffffffffff1673ffffffffffffffffffffffffffffffffffffffff16145b61081557600080fd5b610820838383610fdf565b505050565b6005818154811061083557600080fd5b906000526020600020906003020160009150905080600001805461085890611c20565b80601f016020809104026020016040519081016040528092919081815260200182805461088490611c20565b80156108d15780601f106108a6576101008083540402835291602001916108d1565b820191906000526020600020905b8154815290600101906020018083116108b457829003601f168201915b5050505050908060010154908060020160009054906101000a900463ffffffff16908060020160049054906101000a900463ffffffff16908060020160089054906101000a900461ffff169080600201600a9054906101000a900461ffff16905086565b8060006009600083815260200190815260200160002054141561095757600080fd5b6009600083815260200190815260200160002054341461097657600080fd5b60006006600084815260200190815260200160002060009054906101000a900473ffffffffffffffffffffffffffffffffffffffff169050600760003373ffffffffffffffffffffffffffffffffffffffff1673ffffffffffffffffffffffffffffffffffffffff16815260200190815260200160002060008154809291906109fe90611ba8565b9190505550600760008273ffffffffffffffffffffffffffffffffffffffff1673ffffffffffffffffffffffffffffffffffffffff1681526020019081526020016000206000815480929190610a5390611c52565b9190505550336006600085815260200190815260200160002060006101000a81548173ffffffffffffffffffffffffffffffffffffffff021916908373ffffffffffffffffffffffffffffffffffffffff160217905550823373ffffffffffffffffffffffffffffffffffffffff168273ffffffffffffffffffffffffffffffffffffffff167fddf252ad1be2c89b69c2b068fc378daa952ba7f163c4a11628f55a4df523b3ef60405160405180910390a4610b0e83610fad565b505050565b60006006600083815260200190815260200160002060009054906101000a900473ffffffffffffffffffffffffffffffffffffffff169050919050565b816006600082815260200190815260200160002060009054906101000a900473ffffffffffffffffffffffffffffffffffffffff1673ffffffffffffffffffffffffffffffffffffffff163373ffffffffffffffffffffffffffffffffffffffff1614610bbc57600080fd5b6000600960008581526020019081526020016000205414610bdc57600080fd5b60008211610bed57610bec611c7c565b5b816009600085815260200190815260200160002081905550600a6000815480929190610c1890611ba8565b9190505550505050565b6000600760008373ffffffffffffffffffffffffffffffffffffffff1673ffffffffffffffffffffffffffffffffffffffff168152602001908152602001600020549050919050565b610c73610de5565b610c7c57600080fd5b600073ffffffffffffffffffffffffffffffffffffffff1660008054906101000a900473ffffffffffffffffffffffffffffffffffffffff1673ffffffffffffffffffffffffffffffffffffffff167f8be0079c531659141344cd1fd0a4f28419497f9722a3daafe3b4186f6b6457e060405160405180910390a360008060006101000a81548173ffffffffffffffffffffffffffffffffffffffff021916908373ffffffffffffffffffffffffffffffffffffffff160217905550565b600454600760003373ffffffffffffffffffffffffffffffffffffffff1673ffffffffffffffffffffffffffffffffffffffff1681526020019081526020016000205410610d8757600080fd5b6000610d928261113b565b9050606481610da19190611cda565b81610dac9190611d0b565b9050610db88282611180565b5050565b60008060009054906101000a900473ffffffffffffffffffffffffffffffffffffffff16905090565b60008060009054906101000a900473ffffffffffffffffffffffffffffffffffffffff1673ffffffffffffffffffffffffffffffffffffffff163373ffffffffffffffffffffffffffffffffffffffff1614905090565b60066020528060005260406000206000915054906101000a900473ffffffffffffffffffffffffffffffffffffffff1681565b600081600060096000838152602001908152602001600020541415610e9357600080fd5b6009600084815260200190815260200160002054915050919050565b60096020528060005260406000206000915090505481565b610ecf610de5565b610ed857600080fd5b610ee1816113b6565b50565b60606000600a5467ffffffffffffffff811115610f0457610f036119a0565b5b604051908082528060200260200182016040528015610f325781602001602082028036833780820191505090505b5090506000805b600580549050811015610fa457600060096000838152602001908152602001600020541115610f915780838381518110610f7657610f75611b4a565b5b6020026020010181815250508180610f8d90611ba8565b9250505b8080610f9c90611ba8565b915050610f39565b50819250505090565b6009600082815260200190815260200160002060009055600a6000815480929190610fd790611c52565b919050555050565b600760008373ffffffffffffffffffffffffffffffffffffffff1673ffffffffffffffffffffffffffffffffffffffff168152602001908152602001600020600081548092919061102f90611ba8565b9190505550600760003373ffffffffffffffffffffffffffffffffffffffff1673ffffffffffffffffffffffffffffffffffffffff168152602001908152602001600020600081548092919061108490611c52565b9190505550816006600083815260200190815260200160002060006101000a81548173ffffffffffffffffffffffffffffffffffffffff021916908373ffffffffffffffffffffffffffffffffffffffff160217905550808273ffffffffffffffffffffffffffffffffffffffff168473ffffffffffffffffffffffffffffffffffffffff167fddf252ad1be2c89b69c2b068fc378daa952ba7f163c4a11628f55a4df523b3ef60405160405180910390a4505050565b6000808260405160200161114f9190611d7b565b6040516020818303038152906040528051906020012060001c9050600254816111789190611cda565b915050919050565b60056040518060c00160405280848152602001838152602001600163ffffffff168152602001600354426111b49190611d92565b63ffffffff168152602001600061ffff168152602001600061ffff16815250908060018154018082558091505060019003906000526020600020906003020160009091909190915060008201518160000190805190602001906112189291906114ad565b506020820151816001015560408201518160020160006101000a81548163ffffffff021916908363ffffffff16021790555060608201518160020160046101000a81548163ffffffff021916908363ffffffff16021790555060808201518160020160086101000a81548161ffff021916908361ffff16021790555060a082015181600201600a6101000a81548161ffff021916908361ffff1602179055505050600060016005805490506112cd9190611d0b565b9050336006600083815260200190815260200160002060006101000a81548173ffffffffffffffffffffffffffffffffffffffff021916908373ffffffffffffffffffffffffffffffffffffffff160217905550600760003373ffffffffffffffffffffffffffffffffffffffff1673ffffffffffffffffffffffffffffffffffffffff168152602001908152602001600020600081548092919061137190611ba8565b91905055507f83253f07cdb88c445d046dda4df8617f3a41ce4ed98c1fa8e5e5236ad9dd2ed68184846040516113a993929190611de8565b60405180910390a1505050565b600073ffffffffffffffffffffffffffffffffffffffff168173ffffffffffffffffffffffffffffffffffffffff1614156113f057600080fd5b8073ffffffffffffffffffffffffffffffffffffffff1660008054906101000a900473ffffffffffffffffffffffffffffffffffffffff1673ffffffffffffffffffffffffffffffffffffffff167f8be0079c531659141344cd1fd0a4f28419497f9722a3daafe3b4186f6b6457e060405160405180910390a3806000806101000a81548173ffffffffffffffffffffffffffffffffffffffff021916908373ffffffffffffffffffffffffffffffffffffffff16021790555050565b8280546114b990611c20565b90600052602060002090601f0160209004810192826114db5760008555611522565b82601f106114f457805160ff1916838001178555611522565b82800160010185558215611522579182015b82811115611521578251825591602001919060010190611506565b5b50905061152f9190611533565b5090565b5b8082111561154c576000816000905550600101611534565b5090565b6000604051905090565b600080fd5b600080fd5b600073ffffffffffffffffffffffffffffffffffffffff82169050919050565b600061158f82611564565b9050919050565b61159f81611584565b81146115aa57600080fd5b50565b6000813590506115bc81611596565b92915050565b6000819050919050565b6115d5816115c2565b81146115e057600080fd5b50565b6000813590506115f2816115cc565b92915050565b6000806040838503121561160f5761160e61155a565b5b600061161d858286016115ad565b925050602061162e858286016115e3565b9150509250929050565b60006020828403121561164e5761164d61155a565b5b600061165c848285016115e3565b91505092915050565b60006020828403121561167b5761167a61155a565b5b6000611689848285016115ad565b91505092915050565b600081519050919050565b600082825260208201905092915050565b6000819050602082019050919050565b6116c7816115c2565b82525050565b60006116d983836116be565b60208301905092915050565b6000602082019050919050565b60006116fd82611692565b611707818561169d565b9350611712836116ae565b8060005b8381101561174357815161172a88826116cd565b9750611735836116e5565b925050600181019050611716565b5085935050505092915050565b6000602082019050818103600083015261176a81846116f2565b905092915050565b60008060006060848603121561178b5761178a61155a565b5b6000611799868287016115ad565b93505060206117aa868287016115ad565b92505060406117bb868287016115e3565b9150509250925092565b600081519050919050565b600082825260208201905092915050565b60005b838110156117ff5780820151818401526020810190506117e4565b8381111561180e576000848401525b50505050565b6000601f19601f8301169050919050565b6000611830826117c5565b61183a81856117d0565b935061184a8185602086016117e1565b61185381611814565b840191505092915050565b611867816115c2565b82525050565b600063ffffffff82169050919050565b6118868161186d565b82525050565b600061ffff82169050919050565b6118a38161188c565b82525050565b600060c08201905081810360008301526118c38189611825565b90506118d2602083018861185e565b6118df604083018761187d565b6118ec606083018661187d565b6118f9608083018561189a565b61190660a083018461189a565b979650505050505050565b61191a81611584565b82525050565b60006020820190506119356000830184611911565b92915050565b600080604083850312156119525761195161155a565b5b6000611960858286016115e3565b9250506020611971858286016115e3565b9150509250929050565b6000602082019050611990600083018461185e565b92915050565b600080fd5b600080fd5b7f4e487b7100000000000000000000000000000000000000000000000000000000600052604160045260246000fd5b6119d882611814565b810181811067ffffffffffffffff821117156119f7576119f66119a0565b5b80604052505050565b6000611a0a611550565b9050611a1682826119cf565b919050565b600067ffffffffffffffff821115611a3657611a356119a0565b5b611a3f82611814565b9050602081019050919050565b82818337600083830152505050565b6000611a6e611a6984611a1b565b611a00565b905082815260208101848484011115611a8a57611a8961199b565b5b611a95848285611a4c565b509392505050565b600082601f830112611ab257611ab1611996565b5b8135611ac2848260208601611a5b565b91505092915050565b600060208284031215611ae157611ae061155a565b5b600082013567ffffffffffffffff811115611aff57611afe61155f565b5b611b0b84828501611a9d565b91505092915050565b60008115159050919050565b611b2981611b14565b82525050565b6000602082019050611b446000830184611b20565b92915050565b7f4e487b7100000000000000000000000000000000000000000000000000000000600052603260045260246000fd5b7f4e487b7100000000000000000000000000000000000000000000000000000000600052601160045260246000fd5b6000611bb3826115c2565b91507fffffffffffffffffffffffffffffffffffffffffffffffffffffffffffffffff821415611be657611be5611b79565b5b600182019050919050565b7f4e487b7100000000000000000000000000000000000000000000000000000000600052602260045260246000fd5b60006002820490506001821680611c3857607f821691505b60208210811415611c4c57611c4b611bf1565b5b50919050565b6000611c5d826115c2565b91506000821415611c7157611c70611b79565b5b600182039050919050565b7f4e487b7100000000000000000000000000000000000000000000000000000000600052600160045260246000fd5b7f4e487b7100000000000000000000000000000000000000000000000000000000600052601260045260246000fd5b6000611ce5826115c2565b9150611cf0836115c2565b925082611d0057611cff611cab565b5b828206905092915050565b6000611d16826115c2565b9150611d21836115c2565b925082821015611d3457611d33611b79565b5b828203905092915050565b600081905092915050565b6000611d55826117c5565b611d5f8185611d3f565b9350611d6f8185602086016117e1565b80840191505092915050565b6000611d878284611d4a565b915081905092915050565b6000611d9d826115c2565b9150611da8836115c2565b9250827fffffffffffffffffffffffffffffffffffffffffffffffffffffffffffffffff03821115611ddd57611ddc611b79565b5b828201905092915050565b6000606082019050611dfd600083018661185e565b8181036020830152611e0f8185611825565b9050611e1e604083018461185e565b94935050505056fea264697066735822122033b9fbec4aa865d5ccd380e6e3342f0af00e67d75a602f173191df7f8b6d4bda64736f6c63430008090033",
  "immutableReferences": {},
  "source": "// SPDX-License-Identifier: UNLICENSED\npragma solidity >=0.8.9;\n\nimport \"./CryptoBlobs.sol\";\nimport \"./safemath.sol\";\n\n/// @author Thomas Sauvajon\ncontract BlobMarketplace is CryptoBlobs {\n    using SafeMath for uint256;\n\n    mapping(uint256 => uint256) public listings;\n    uint256 listingCount = 0;\n\n    modifier forSale(uint256 _blobId) {\n        require(listings[_blobId] != 0);\n        _;\n    }\n\n    function getBlobPrice(uint256 _blobId)\n        external\n        view\n        forSale(_blobId)\n        returns (uint256)\n    {\n        return listings[_blobId];\n    }\n\n    function getBlobsForSale() external view returns (uint256[] memory) {\n        uint256[] memory result = new uint256[](listingCount);\n        uint256 i = 0;\n        for (uint256 blobId = 0; blobId < blobs.length; blobId++) {\n            // if the blob is listed for sale\n            if (listings[blobId] > 0) {\n                result[i] = blobId;\n                i++;\n            }\n        }\n        return result;\n    }\n\n    function listBlobForSale(uint256 _blobId, uint256 price)\n        external\n        payable\n        onlyOwnerOf(_blobId)\n    {\n        require(listings[_blobId] == 0); // must not be already for sale\n        assert(price > 0);\n\n        listings[_blobId] = price;\n        listingCount++;\n\n        // emit event? TODO: look at what Events are for\n    }\n\n    function _cancelBlobListing(uint256 _blobId) private {\n        delete listings[_blobId];\n        listingCount--;\n    }\n\n    function cancelBlobListing(uint256 _blobId)\n        external\n        payable\n        onlyOwnerOf(_blobId)\n        forSale(_blobId)\n    {\n        _cancelBlobListing(_blobId);\n    }\n\n    function buyBlob(uint256 _blobId) external payable forSale(_blobId) {\n        require(msg.value == listings[_blobId]);\n\n        address owner = blobToOwner[_blobId];\n\n        ownerBlobCount[msg.sender]++;\n        ownerBlobCount[owner]--;\n        blobToOwner[_blobId] = msg.sender;\n\n        emit Transfer(owner, msg.sender, _blobId);\n\n        _cancelBlobListing(_blobId);\n    }\n}\n",
  "sourcePath": "/Users/thomas/dev/cryptoblobs/contracts/BlobMarketplace.sol",
  "compiler": {
    "name": "solc",
    "version": "0.8.9+commit.e5eed63a.Emscripten.clang"
  },
  "schemaVersion": "3.4.3",
  "updatedAt": "2021-10-21T22:01:01.620Z",
  "networkType": "ethereum",
  "devdoc": {
    "author": "Thomas Sauvajon",
    "kind": "dev",
    "methods": {
      "isOwner()": {
        "returns": {
          "_0": "true if `msg.sender` is the owner of the contract."
        }
      },
      "owner()": {
        "returns": {
          "_0": "the address of the owner."
        }
      },
      "renounceOwnership()": {
        "details": "Allows the current owner to relinquish control of the contract."
      },
      "transferOwnership(address)": {
        "details": "Allows the current owner to transfer control of the contract to a newOwner.",
        "params": {
          "newOwner": "The address to transfer ownership to."
        }
      }
    },
    "version": 1
  },
  "userdoc": {
    "kind": "user",
    "methods": {
      "renounceOwnership()": {
        "notice": "Renouncing to ownership will leave the contract without an owner. It will not be possible to call the functions with the `onlyOwner` modifier anymore."
      }
    },
    "version": 1
  }
}