{
  "contractName": "BlobHelper",
  "abi": [
    {
      "anonymous": false,
      "inputs": [
        {
          "indexed": false,
          "internalType": "uint256",
          "name": "blobId",
          "type": "uint256"
        },
        {
          "indexed": false,
          "internalType": "string",
          "name": "name",
          "type": "string"
        },
        {
          "indexed": false,
          "internalType": "uint256",
          "name": "dna",
          "type": "uint256"
        }
      ],
      "name": "NewBlob",
      "type": "event"
    },
    {
      "anonymous": false,
      "inputs": [
        {
          "indexed": true,
          "internalType": "address",
          "name": "previousOwner",
          "type": "address"
        },
        {
          "indexed": true,
          "internalType": "address",
          "name": "newOwner",
          "type": "address"
        }
      ],
      "name": "OwnershipTransferred",
      "type": "event"
    },
    {
      "inputs": [
        {
          "internalType": "uint256",
          "name": "",
          "type": "uint256"
        }
      ],
      "name": "blobToOwner",
      "outputs": [
        {
          "internalType": "address",
          "name": "",
          "type": "address"
        }
      ],
      "stateMutability": "view",
      "type": "function"
    },
    {
      "inputs": [
        {
          "internalType": "uint256",
          "name": "",
          "type": "uint256"
        }
      ],
      "name": "blobs",
      "outputs": [
        {
          "internalType": "string",
          "name": "name",
          "type": "string"
        },
        {
          "internalType": "uint256",
          "name": "dna",
          "type": "uint256"
        },
        {
          "internalType": "uint32",
          "name": "level",
          "type": "uint32"
        },
        {
          "internalType": "uint32",
          "name": "readyTime",
          "type": "uint32"
        },
        {
          "internalType": "uint16",
          "name": "winCount",
          "type": "uint16"
        },
        {
          "internalType": "uint16",
          "name": "lossCount",
          "type": "uint16"
        }
      ],
      "stateMutability": "view",
      "type": "function"
    },
    {
      "inputs": [
        {
          "internalType": "string",
          "name": "_name",
          "type": "string"
        }
      ],
      "name": "createRandomBlob",
      "outputs": [],
      "stateMutability": "nonpayable",
      "type": "function"
    },
    {
      "inputs": [
        {
          "internalType": "uint256",
          "name": "_blobId",
          "type": "uint256"
        },
        {
          "internalType": "uint256",
          "name": "_kittyId",
          "type": "uint256"
        }
      ],
      "name": "feedOnKitty",
      "outputs": [],
      "stateMutability": "nonpayable",
      "type": "function"
    },
    {
      "inputs": [],
      "name": "isOwner",
      "outputs": [
        {
          "internalType": "bool",
          "name": "",
          "type": "bool"
        }
      ],
      "stateMutability": "view",
      "type": "function"
    },
    {
      "inputs": [],
      "name": "owner",
      "outputs": [
        {
          "internalType": "address",
          "name": "",
          "type": "address"
        }
      ],
      "stateMutability": "view",
      "type": "function"
    },
    {
      "inputs": [],
      "name": "renounceOwnership",
      "outputs": [],
      "stateMutability": "nonpayable",
      "type": "function"
    },
    {
      "inputs": [
        {
          "internalType": "address",
          "name": "_address",
          "type": "address"
        }
      ],
      "name": "setKittyContractAddress",
      "outputs": [],
      "stateMutability": "nonpayable",
      "type": "function"
    },
    {
      "inputs": [
        {
          "internalType": "address",
          "name": "newOwner",
          "type": "address"
        }
      ],
      "name": "transferOwnership",
      "outputs": [],
      "stateMutability": "nonpayable",
      "type": "function"
    },
    {
      "inputs": [],
      "name": "withdraw",
      "outputs": [],
      "stateMutability": "nonpayable",
      "type": "function"
    },
    {
      "inputs": [
        {
          "internalType": "uint256",
          "name": "_fee",
          "type": "uint256"
        }
      ],
      "name": "setLevelUpFee",
      "outputs": [],
      "stateMutability": "nonpayable",
      "type": "function"
    },
    {
      "inputs": [
        {
          "internalType": "uint256",
          "name": "_blobId",
          "type": "uint256"
        }
      ],
      "name": "levelUp",
      "outputs": [],
      "stateMutability": "payable",
      "type": "function"
    },
    {
      "inputs": [
        {
          "internalType": "uint256",
          "name": "_blobId",
          "type": "uint256"
        },
        {
          "internalType": "string",
          "name": "_newName",
          "type": "string"
        }
      ],
      "name": "changeName",
      "outputs": [],
      "stateMutability": "nonpayable",
      "type": "function"
    },
    {
      "inputs": [
        {
          "internalType": "uint256",
          "name": "_blobId",
          "type": "uint256"
        },
        {
          "internalType": "uint256",
          "name": "_newDna",
          "type": "uint256"
        }
      ],
      "name": "changeDna",
      "outputs": [],
      "stateMutability": "nonpayable",
      "type": "function"
    },
    {
      "inputs": [
        {
          "internalType": "address",
          "name": "_owner",
          "type": "address"
        }
      ],
      "name": "getBlobsByOwner",
      "outputs": [
        {
          "internalType": "uint256[]",
          "name": "",
          "type": "uint256[]"
        }
      ],
      "stateMutability": "view",
      "type": "function"
    }
  ],
  "bytecode": "0x60806040526010600155600154600a6200001a91906200028e565b600255603c600355600560045566038d7ea4c680006009553480156200003f57600080fd5b50336000806101000a81548173ffffffffffffffffffffffffffffffffffffffff021916908373ffffffffffffffffffffffffffffffffffffffff16021790555060008054906101000a900473ffffffffffffffffffffffffffffffffffffffff1673ffffffffffffffffffffffffffffffffffffffff16600073ffffffffffffffffffffffffffffffffffffffff167f8be0079c531659141344cd1fd0a4f28419497f9722a3daafe3b4186f6b6457e060405160405180910390a3620002df565b7f4e487b7100000000000000000000000000000000000000000000000000000000600052601160045260246000fd5b60008160011c9050919050565b6000808291508390505b60018511156200018f5780860481111562000167576200016662000101565b5b6001851615620001775780820291505b8081029050620001878562000130565b945062000147565b94509492505050565b600082620001aa57600190506200027d565b81620001ba57600090506200027d565b8160018114620001d35760028114620001de5762000214565b60019150506200027d565b60ff841115620001f357620001f262000101565b5b8360020a9150848211156200020d576200020c62000101565b5b506200027d565b5060208310610133831016604e8410600b84101617156200024e5782820a90508381111562000248576200024762000101565b5b6200027d565b6200025d84848460016200013d565b9250905081840481111562000277576200027662000101565b5b81810290505b9392505050565b6000819050919050565b60006200029b8262000284565b9150620002a88362000284565b9250620002d77fffffffffffffffffffffffffffffffffffffffffffffffffffffffffffffffff848462000198565b905092915050565b611dc080620002ef6000396000f3fe6080604052600436106100e85760003560e01c8063715018a61161008a578063970bad6f11610059578063970bad6f146102b0578063c39cbef1146102ed578063ccf670f814610316578063f2fde38b1461033f576100e8565b8063715018a61461021a5780637c80f25b146102315780638da5cb5b1461025a5780638f32d59b14610285576100e8565b80632abc3d4e116100c65780632abc3d4e1461016f5780633ccfd60b146101b15780635f4623f1146101c85780635faf2880146101f1576100e8565b80630ce90ec2146100ed5780631782d4731461010957806317a7f4cc14610146575b600080fd5b6101076004803603810190610102919061133e565b610368565b005b34801561011557600080fd5b50610130600480360381019061012b91906113c9565b6103fe565b60405161013d91906114b4565b60405180910390f35b34801561015257600080fd5b5061016d600480360381019061016891906114d6565b610551565b005b34801561017b57600080fd5b506101966004803603810190610191919061133e565b61067e565b6040516101a8969594939291906115fa565b60405180910390f35b3480156101bd57600080fd5b506101c661078e565b005b3480156101d457600080fd5b506101ef60048036038101906101ea91906113c9565b6107f5565b005b3480156101fd57600080fd5b50610218600480360381019061021391906114d6565b61084a565b005b34801561022657600080fd5b5061022f610932565b005b34801561023d57600080fd5b5061025860048036038101906102539190611797565b610a01565b005b34801561026657600080fd5b5061026f610a83565b60405161027c91906117ef565b60405180910390f35b34801561029157600080fd5b5061029a610aac565b6040516102a79190611825565b60405180910390f35b3480156102bc57600080fd5b506102d760048036038101906102d2919061133e565b610b03565b6040516102e491906117ef565b60405180910390f35b3480156102f957600080fd5b50610314600480360381019061030f91906118a0565b610b36565b005b34801561032257600080fd5b5061033d6004803603810190610338919061133e565b610c2a565b005b34801561034b57600080fd5b50610366600480360381019061036191906113c9565b610c45565b005b600954341461037657600080fd5b60016005828154811061038c5761038b611900565b5b906000526020600020906003020160020160009054906101000a900463ffffffff166103b8919061195e565b600582815481106103cc576103cb611900565b5b906000526020600020906003020160020160006101000a81548163ffffffff021916908363ffffffff16021790555050565b60606000600760008473ffffffffffffffffffffffffffffffffffffffff1673ffffffffffffffffffffffffffffffffffffffff1681526020019081526020016000205467ffffffffffffffff81111561045b5761045a61166c565b5b6040519080825280602002602001820160405280156104895781602001602082028036833780820191505090505b5090506000805b600580549050811015610546578473ffffffffffffffffffffffffffffffffffffffff166006600083815260200190815260200160002060009054906101000a900473ffffffffffffffffffffffffffffffffffffffff1673ffffffffffffffffffffffffffffffffffffffff161415610533578083838151811061051857610517611900565b5b602002602001018181525050818061052f90611998565b9250505b808061053e90611998565b915050610490565b508192505050919050565b6000600860009054906101000a900473ffffffffffffffffffffffffffffffffffffffff1673ffffffffffffffffffffffffffffffffffffffff1663e98b7f4d836040518263ffffffff1660e01b81526004016105ae91906119e1565b6101406040518083038186803b1580156105c757600080fd5b505afa1580156105db573d6000803e3d6000fd5b505050506040513d601f19601f820116820180604052508101906105ff9190611a3d565b9091929394959697985090919293949596975090919293949596509091929394955090919293945090919293509091925090915090508091505061067983826040518060400160405280600581526020017f6b69747479000000000000000000000000000000000000000000000000000000815250610c62565b505050565b6005818154811061068e57600080fd5b90600052602060002090600302016000915090508060000180546106b190611b4b565b80601f01602080910402602001604051908101604052809291908181526020018280546106dd90611b4b565b801561072a5780601f106106ff5761010080835404028352916020019161072a565b820191906000526020600020905b81548152906001019060200180831161070d57829003601f168201915b5050505050908060010154908060020160009054906101000a900463ffffffff16908060020160049054906101000a900463ffffffff16908060020160089054906101000a900461ffff169080600201600a9054906101000a900461ffff16905086565b610796610aac565b61079f57600080fd5b60006107a9610a83565b90508073ffffffffffffffffffffffffffffffffffffffff166108fc479081150290604051600060405180830381858888f193505050501580156107f1573d6000803e3d6000fd5b5050565b6107fd610aac565b61080657600080fd5b80600860006101000a81548173ffffffffffffffffffffffffffffffffffffffff021916908373ffffffffffffffffffffffffffffffffffffffff16021790555050565b601482816005828154811061086257610861611900565b5b906000526020600020906003020160020160009054906101000a900463ffffffff1663ffffffff16101561089557600080fd5b836006600082815260200190815260200160002060009054906101000a900473ffffffffffffffffffffffffffffffffffffffff1673ffffffffffffffffffffffffffffffffffffffff163373ffffffffffffffffffffffffffffffffffffffff161461090157600080fd5b836005868154811061091657610915611900565b5b9060005260206000209060030201600101819055505050505050565b61093a610aac565b61094357600080fd5b600073ffffffffffffffffffffffffffffffffffffffff1660008054906101000a900473ffffffffffffffffffffffffffffffffffffffff1673ffffffffffffffffffffffffffffffffffffffff167f8be0079c531659141344cd1fd0a4f28419497f9722a3daafe3b4186f6b6457e060405160405180910390a360008060006101000a81548173ffffffffffffffffffffffffffffffffffffffff021916908373ffffffffffffffffffffffffffffffffffffffff160217905550565b600454600760003373ffffffffffffffffffffffffffffffffffffffff1673ffffffffffffffffffffffffffffffffffffffff1681526020019081526020016000205410610a4e57600080fd5b6000610a5982610dff565b9050606481610a689190611bac565b81610a739190611bdd565b9050610a7f8282610e44565b5050565b60008060009054906101000a900473ffffffffffffffffffffffffffffffffffffffff16905090565b60008060009054906101000a900473ffffffffffffffffffffffffffffffffffffffff1673ffffffffffffffffffffffffffffffffffffffff163373ffffffffffffffffffffffffffffffffffffffff1614905090565b60066020528060005260406000206000915054906101000a900473ffffffffffffffffffffffffffffffffffffffff1681565b6002838160058281548110610b4e57610b4d611900565b5b906000526020600020906003020160020160009054906101000a900463ffffffff1663ffffffff161015610b8157600080fd5b846006600082815260200190815260200160002060009054906101000a900473ffffffffffffffffffffffffffffffffffffffff1673ffffffffffffffffffffffffffffffffffffffff163373ffffffffffffffffffffffffffffffffffffffff1614610bed57600080fd5b848460058881548110610c0357610c02611900565b5b90600052602060002090600302016000019190610c219291906111cb565b50505050505050565b610c32610aac565b610c3b57600080fd5b8060098190555050565b610c4d610aac565b610c5657600080fd5b610c5f8161107a565b50565b826006600082815260200190815260200160002060009054906101000a900473ffffffffffffffffffffffffffffffffffffffff1673ffffffffffffffffffffffffffffffffffffffff163373ffffffffffffffffffffffffffffffffffffffff1614610cce57600080fd5b600060058581548110610ce457610ce3611900565b5b90600052602060002090600302019050610cfd81611171565b610d0657600080fd5b60025484610d149190611bac565b935060006002858360010154610d2a9190611c11565b610d349190611c67565b9050604051602001610d4590611cef565b6040516020818303038152906040528051906020012084604051602001610d6c9190611d35565b604051602081830303815290604052805190602001201415610daf576063606482610d979190611bac565b82610da29190611bdd565b610dac9190611c11565b90505b610dee6040518060400160405280600681526020017f4e6f4e616d65000000000000000000000000000000000000000000000000000081525082610e44565b610df782611198565b505050505050565b60008082604051602001610e139190611d35565b6040516020818303038152906040528051906020012060001c905060025481610e3c9190611bac565b915050919050565b60056040518060c00160405280848152602001838152602001600163ffffffff16815260200160035442610e789190611c11565b63ffffffff168152602001600061ffff168152602001600061ffff1681525090806001815401808255809150506001900390600052602060002090600302016000909190919091506000820151816000019080519060200190610edc929190611251565b506020820151816001015560408201518160020160006101000a81548163ffffffff021916908363ffffffff16021790555060608201518160020160046101000a81548163ffffffff021916908363ffffffff16021790555060808201518160020160086101000a81548161ffff021916908361ffff16021790555060a082015181600201600a6101000a81548161ffff021916908361ffff160217905550505060006001600580549050610f919190611bdd565b9050336006600083815260200190815260200160002060006101000a81548173ffffffffffffffffffffffffffffffffffffffff021916908373ffffffffffffffffffffffffffffffffffffffff160217905550600760003373ffffffffffffffffffffffffffffffffffffffff1673ffffffffffffffffffffffffffffffffffffffff168152602001908152602001600020600081548092919061103590611998565b91905055507f83253f07cdb88c445d046dda4df8617f3a41ce4ed98c1fa8e5e5236ad9dd2ed681848460405161106d93929190611d4c565b60405180910390a1505050565b600073ffffffffffffffffffffffffffffffffffffffff168173ffffffffffffffffffffffffffffffffffffffff1614156110b457600080fd5b8073ffffffffffffffffffffffffffffffffffffffff1660008054906101000a900473ffffffffffffffffffffffffffffffffffffffff1673ffffffffffffffffffffffffffffffffffffffff167f8be0079c531659141344cd1fd0a4f28419497f9722a3daafe3b4186f6b6457e060405160405180910390a3806000806101000a81548173ffffffffffffffffffffffffffffffffffffffff021916908373ffffffffffffffffffffffffffffffffffffffff16021790555050565b6000428260020160049054906101000a900463ffffffff1663ffffffff1611159050919050565b600354426111a69190611c11565b8160020160046101000a81548163ffffffff021916908363ffffffff16021790555050565b8280546111d790611b4b565b90600052602060002090601f0160209004810192826111f95760008555611240565b82601f1061121257803560ff1916838001178555611240565b82800160010185558215611240579182015b8281111561123f578235825591602001919060010190611224565b5b50905061124d91906112d7565b5090565b82805461125d90611b4b565b90600052602060002090601f01602090048101928261127f57600085556112c6565b82601f1061129857805160ff19168380011785556112c6565b828001600101855582156112c6579182015b828111156112c55782518255916020019190600101906112aa565b5b5090506112d391906112d7565b5090565b5b808211156112f05760008160009055506001016112d8565b5090565b6000604051905090565b600080fd5b600080fd5b6000819050919050565b61131b81611308565b811461132657600080fd5b50565b60008135905061133881611312565b92915050565b600060208284031215611354576113536112fe565b5b600061136284828501611329565b91505092915050565b600073ffffffffffffffffffffffffffffffffffffffff82169050919050565b60006113968261136b565b9050919050565b6113a68161138b565b81146113b157600080fd5b50565b6000813590506113c38161139d565b92915050565b6000602082840312156113df576113de6112fe565b5b60006113ed848285016113b4565b91505092915050565b600081519050919050565b600082825260208201905092915050565b6000819050602082019050919050565b61142b81611308565b82525050565b600061143d8383611422565b60208301905092915050565b6000602082019050919050565b6000611461826113f6565b61146b8185611401565b935061147683611412565b8060005b838110156114a757815161148e8882611431565b975061149983611449565b92505060018101905061147a565b5085935050505092915050565b600060208201905081810360008301526114ce8184611456565b905092915050565b600080604083850312156114ed576114ec6112fe565b5b60006114fb85828601611329565b925050602061150c85828601611329565b9150509250929050565b600081519050919050565b600082825260208201905092915050565b60005b83811015611550578082015181840152602081019050611535565b8381111561155f576000848401525b50505050565b6000601f19601f8301169050919050565b600061158182611516565b61158b8185611521565b935061159b818560208601611532565b6115a481611565565b840191505092915050565b6115b881611308565b82525050565b600063ffffffff82169050919050565b6115d7816115be565b82525050565b600061ffff82169050919050565b6115f4816115dd565b82525050565b600060c08201905081810360008301526116148189611576565b905061162360208301886115af565b61163060408301876115ce565b61163d60608301866115ce565b61164a60808301856115eb565b61165760a08301846115eb565b979650505050505050565b600080fd5b600080fd5b7f4e487b7100000000000000000000000000000000000000000000000000000000600052604160045260246000fd5b6116a482611565565b810181811067ffffffffffffffff821117156116c3576116c261166c565b5b80604052505050565b60006116d66112f4565b90506116e2828261169b565b919050565b600067ffffffffffffffff8211156117025761170161166c565b5b61170b82611565565b9050602081019050919050565b82818337600083830152505050565b600061173a611735846116e7565b6116cc565b90508281526020810184848401111561175657611755611667565b5b611761848285611718565b509392505050565b600082601f83011261177e5761177d611662565b5b813561178e848260208601611727565b91505092915050565b6000602082840312156117ad576117ac6112fe565b5b600082013567ffffffffffffffff8111156117cb576117ca611303565b5b6117d784828501611769565b91505092915050565b6117e98161138b565b82525050565b600060208201905061180460008301846117e0565b92915050565b60008115159050919050565b61181f8161180a565b82525050565b600060208201905061183a6000830184611816565b92915050565b600080fd5b600080fd5b60008083601f8401126118605761185f611662565b5b8235905067ffffffffffffffff81111561187d5761187c611840565b5b60208301915083600182028301111561189957611898611845565b5b9250929050565b6000806000604084860312156118b9576118b86112fe565b5b60006118c786828701611329565b935050602084013567ffffffffffffffff8111156118e8576118e7611303565b5b6118f48682870161184a565b92509250509250925092565b7f4e487b7100000000000000000000000000000000000000000000000000000000600052603260045260246000fd5b7f4e487b7100000000000000000000000000000000000000000000000000000000600052601160045260246000fd5b6000611969826115be565b9150611974836115be565b92508263ffffffff0382111561198d5761198c61192f565b5b828201905092915050565b60006119a382611308565b91507fffffffffffffffffffffffffffffffffffffffffffffffffffffffffffffffff8214156119d6576119d561192f565b5b600182019050919050565b60006020820190506119f660008301846115af565b92915050565b611a058161180a565b8114611a1057600080fd5b50565b600081519050611a22816119fc565b92915050565b600081519050611a3781611312565b92915050565b6000806000806000806000806000806101408b8d031215611a6157611a606112fe565b5b6000611a6f8d828e01611a13565b9a50506020611a808d828e01611a13565b9950506040611a918d828e01611a28565b9850506060611aa28d828e01611a28565b9750506080611ab38d828e01611a28565b96505060a0611ac48d828e01611a28565b95505060c0611ad58d828e01611a28565b94505060e0611ae68d828e01611a28565b935050610100611af88d828e01611a28565b925050610120611b0a8d828e01611a28565b9150509295989b9194979a5092959850565b7f4e487b7100000000000000000000000000000000000000000000000000000000600052602260045260246000fd5b60006002820490506001821680611b6357607f821691505b60208210811415611b7757611b76611b1c565b5b50919050565b7f4e487b7100000000000000000000000000000000000000000000000000000000600052601260045260246000fd5b6000611bb782611308565b9150611bc283611308565b925082611bd257611bd1611b7d565b5b828206905092915050565b6000611be882611308565b9150611bf383611308565b925082821015611c0657611c0561192f565b5b828203905092915050565b6000611c1c82611308565b9150611c2783611308565b9250827fffffffffffffffffffffffffffffffffffffffffffffffffffffffffffffffff03821115611c5c57611c5b61192f565b5b828201905092915050565b6000611c7282611308565b9150611c7d83611308565b925082611c8d57611c8c611b7d565b5b828204905092915050565b600081905092915050565b7f6b69747479000000000000000000000000000000000000000000000000000000600082015250565b6000611cd9600583611c98565b9150611ce482611ca3565b600582019050919050565b6000611cfa82611ccc565b9150819050919050565b6000611d0f82611516565b611d198185611c98565b9350611d29818560208601611532565b80840191505092915050565b6000611d418284611d04565b915081905092915050565b6000606082019050611d6160008301866115af565b8181036020830152611d738185611576565b9050611d8260408301846115af565b94935050505056fea2646970667358221220a4451ca871a3d0b13cca1d4fdcfb090c324b07b7f65092797a1ec17aab91150b64736f6c63430008090033",
  "immutableReferences": {},
  "source": "pragma solidity >=0.6.0;\n\n// SPDX-License-Identifier: UNLICENSED\n\nimport \"./blobfeeding.sol\";\n\ncontract BlobHelper is BlobFeeding {\n    uint256 levelUpFee = 0.001 ether;\n\n    modifier aboveLevel(uint256 _level, uint256 _blobId) {\n        require(blobs[_blobId].level >= _level);\n        _;\n    }\n\n    function withdraw() external onlyOwner {\n        address _owner = owner();\n        payable(_owner).transfer(address(this).balance);\n    }\n\n    function setLevelUpFee(uint256 _fee) external onlyOwner {\n        levelUpFee = _fee;\n    }\n\n    function levelUp(uint256 _blobId) external payable {\n        require(msg.value == levelUpFee);\n        blobs[_blobId].level = blobs[_blobId].level + 1;\n    }\n\n    function changeName(uint256 _blobId, string calldata _newName)\n        external\n        aboveLevel(2, _blobId)\n        onlyOwnerOf(_blobId)\n    {\n        blobs[_blobId].name = _newName;\n    }\n\n    function changeDna(uint256 _blobId, uint256 _newDna)\n        external\n        aboveLevel(20, _blobId)\n        onlyOwnerOf(_blobId)\n    {\n        blobs[_blobId].dna = _newDna;\n    }\n\n    function getBlobsByOwner(address _owner)\n        external\n        view\n        returns (uint256[] memory)\n    {\n        uint256[] memory result = new uint256[](ownerBlobCount[_owner]);\n        uint256 counter = 0;\n        for (uint256 i = 0; i < blobs.length; i++) {\n            if (blobToOwner[i] == _owner) {\n                result[counter] = i;\n                counter++;\n            }\n        }\n        return result;\n    }\n}\n",
  "sourcePath": "/Users/thomas/dev/cryptozombies/contracts/blobhelper.sol",
  "compiler": {
    "name": "solc",
    "version": "0.8.9+commit.e5eed63a.Emscripten.clang"
  },
  "schemaVersion": "3.4.3",
  "updatedAt": "2021-10-15T16:42:47.957Z",
  "devdoc": {
    "kind": "dev",
    "methods": {
      "isOwner()": {
        "returns": {
          "_0": "true if `msg.sender` is the owner of the contract."
        }
      },
      "owner()": {
        "returns": {
          "_0": "the address of the owner."
        }
      },
      "renounceOwnership()": {
        "details": "Allows the current owner to relinquish control of the contract."
      },
      "transferOwnership(address)": {
        "details": "Allows the current owner to transfer control of the contract to a newOwner.",
        "params": {
          "newOwner": "The address to transfer ownership to."
        }
      }
    },
    "version": 1
  },
  "userdoc": {
    "kind": "user",
    "methods": {
      "renounceOwnership()": {
        "notice": "Renouncing to ownership will leave the contract without an owner. It will not be possible to call the functions with the `onlyOwner` modifier anymore."
      }
    },
    "version": 1
  }
}