{
  "contractName": "BlobFactory",
  "abi": [
    {
      "anonymous": false,
      "inputs": [
        {
          "indexed": false,
          "internalType": "uint256",
          "name": "blobId",
          "type": "uint256"
        },
        {
          "indexed": false,
          "internalType": "string",
          "name": "name",
          "type": "string"
        },
        {
          "indexed": false,
          "internalType": "uint256",
          "name": "dna",
          "type": "uint256"
        }
      ],
      "name": "NewBlob",
      "type": "event"
    },
    {
      "anonymous": false,
      "inputs": [
        {
          "indexed": true,
          "internalType": "address",
          "name": "previousOwner",
          "type": "address"
        },
        {
          "indexed": true,
          "internalType": "address",
          "name": "newOwner",
          "type": "address"
        }
      ],
      "name": "OwnershipTransferred",
      "type": "event"
    },
    {
      "inputs": [
        {
          "internalType": "uint256",
          "name": "",
          "type": "uint256"
        }
      ],
      "name": "blobToOwner",
      "outputs": [
        {
          "internalType": "address",
          "name": "",
          "type": "address"
        }
      ],
      "stateMutability": "view",
      "type": "function"
    },
    {
      "inputs": [
        {
          "internalType": "uint256",
          "name": "",
          "type": "uint256"
        }
      ],
      "name": "blobs",
      "outputs": [
        {
          "internalType": "string",
          "name": "name",
          "type": "string"
        },
        {
          "internalType": "uint256",
          "name": "dna",
          "type": "uint256"
        },
        {
          "internalType": "uint32",
          "name": "level",
          "type": "uint32"
        },
        {
          "internalType": "uint32",
          "name": "readyTime",
          "type": "uint32"
        },
        {
          "internalType": "uint16",
          "name": "winCount",
          "type": "uint16"
        },
        {
          "internalType": "uint16",
          "name": "lossCount",
          "type": "uint16"
        }
      ],
      "stateMutability": "view",
      "type": "function"
    },
    {
      "inputs": [],
      "name": "isOwner",
      "outputs": [
        {
          "internalType": "bool",
          "name": "",
          "type": "bool"
        }
      ],
      "stateMutability": "view",
      "type": "function"
    },
    {
      "inputs": [],
      "name": "owner",
      "outputs": [
        {
          "internalType": "address",
          "name": "",
          "type": "address"
        }
      ],
      "stateMutability": "view",
      "type": "function"
    },
    {
      "inputs": [],
      "name": "renounceOwnership",
      "outputs": [],
      "stateMutability": "nonpayable",
      "type": "function"
    },
    {
      "inputs": [
        {
          "internalType": "address",
          "name": "newOwner",
          "type": "address"
        }
      ],
      "name": "transferOwnership",
      "outputs": [],
      "stateMutability": "nonpayable",
      "type": "function"
    },
    {
      "inputs": [
        {
          "internalType": "string",
          "name": "_name",
          "type": "string"
        }
      ],
      "name": "createRandomBlob",
      "outputs": [],
      "stateMutability": "nonpayable",
      "type": "function"
    }
  ],
  "bytecode": "0x60806040526010600155600154600a6200001a919062000283565b600255603c60035560056004553480156200003457600080fd5b50336000806101000a81548173ffffffffffffffffffffffffffffffffffffffff021916908373ffffffffffffffffffffffffffffffffffffffff16021790555060008054906101000a900473ffffffffffffffffffffffffffffffffffffffff1673ffffffffffffffffffffffffffffffffffffffff16600073ffffffffffffffffffffffffffffffffffffffff167f8be0079c531659141344cd1fd0a4f28419497f9722a3daafe3b4186f6b6457e060405160405180910390a3620002d4565b7f4e487b7100000000000000000000000000000000000000000000000000000000600052601160045260246000fd5b60008160011c9050919050565b6000808291508390505b600185111562000184578086048111156200015c576200015b620000f6565b5b60018516156200016c5780820291505b80810290506200017c8562000125565b94506200013c565b94509492505050565b6000826200019f576001905062000272565b81620001af576000905062000272565b8160018114620001c85760028114620001d35762000209565b600191505062000272565b60ff841115620001e857620001e7620000f6565b5b8360020a915084821115620002025762000201620000f6565b5b5062000272565b5060208310610133831016604e8410600b8410161715620002435782820a9050838111156200023d576200023c620000f6565b5b62000272565b62000252848484600162000132565b925090508184048111156200026c576200026b620000f6565b5b81810290505b9392505050565b6000819050919050565b6000620002908262000279565b91506200029d8362000279565b9250620002cc7fffffffffffffffffffffffffffffffffffffffffffffffffffffffffffffffff84846200018d565b905092915050565b610f6180620002e46000396000f3fe608060405234801561001057600080fd5b506004361061007d5760003560e01c80638da5cb5b1161005b5780638da5cb5b146100dd5780638f32d59b146100fb578063970bad6f14610119578063f2fde38b146101495761007d565b80632abc3d4e14610082578063715018a6146100b75780637c80f25b146100c1575b600080fd5b61009c600480360381019061009791906108f5565b610165565b6040516100ae96959493929190610a06565b60405180910390f35b6100bf610275565b005b6100db60048036038101906100d69190610ba3565b610344565b005b6100e56103c6565b6040516100f29190610c2d565b60405180910390f35b6101036103ef565b6040516101109190610c63565b60405180910390f35b610133600480360381019061012e91906108f5565b610446565b6040516101409190610c2d565b60405180910390f35b610163600480360381019061015e9190610caa565b610479565b005b6005818154811061017557600080fd5b906000526020600020906003020160009150905080600001805461019890610d06565b80601f01602080910402602001604051908101604052809291908181526020018280546101c490610d06565b80156102115780601f106101e657610100808354040283529160200191610211565b820191906000526020600020905b8154815290600101906020018083116101f457829003601f168201915b5050505050908060010154908060020160009054906101000a900463ffffffff16908060020160049054906101000a900463ffffffff16908060020160089054906101000a900461ffff169080600201600a9054906101000a900461ffff16905086565b61027d6103ef565b61028657600080fd5b600073ffffffffffffffffffffffffffffffffffffffff1660008054906101000a900473ffffffffffffffffffffffffffffffffffffffff1673ffffffffffffffffffffffffffffffffffffffff167f8be0079c531659141344cd1fd0a4f28419497f9722a3daafe3b4186f6b6457e060405160405180910390a360008060006101000a81548173ffffffffffffffffffffffffffffffffffffffff021916908373ffffffffffffffffffffffffffffffffffffffff160217905550565b600454600760003373ffffffffffffffffffffffffffffffffffffffff1673ffffffffffffffffffffffffffffffffffffffff168152602001908152602001600020541061039157600080fd5b600061039c82610496565b90506064816103ab9190610d67565b816103b69190610dc7565b90506103c282826104db565b5050565b60008060009054906101000a900473ffffffffffffffffffffffffffffffffffffffff16905090565b60008060009054906101000a900473ffffffffffffffffffffffffffffffffffffffff1673ffffffffffffffffffffffffffffffffffffffff163373ffffffffffffffffffffffffffffffffffffffff1614905090565b60066020528060005260406000206000915054906101000a900473ffffffffffffffffffffffffffffffffffffffff1681565b6104816103ef565b61048a57600080fd5b61049381610711565b50565b600080826040516020016104aa9190610e37565b6040516020818303038152906040528051906020012060001c9050600254816104d39190610d67565b915050919050565b60056040518060c00160405280848152602001838152602001600163ffffffff1681526020016003544261050f9190610e4e565b63ffffffff168152602001600061ffff168152602001600061ffff1681525090806001815401808255809150506001900390600052602060002090600302016000909190919091506000820151816000019080519060200190610573929190610808565b506020820151816001015560408201518160020160006101000a81548163ffffffff021916908363ffffffff16021790555060608201518160020160046101000a81548163ffffffff021916908363ffffffff16021790555060808201518160020160086101000a81548161ffff021916908361ffff16021790555060a082015181600201600a6101000a81548161ffff021916908361ffff1602179055505050600060016005805490506106289190610dc7565b9050336006600083815260200190815260200160002060006101000a81548173ffffffffffffffffffffffffffffffffffffffff021916908373ffffffffffffffffffffffffffffffffffffffff160217905550600760003373ffffffffffffffffffffffffffffffffffffffff1673ffffffffffffffffffffffffffffffffffffffff16815260200190815260200160002060008154809291906106cc90610ea4565b91905055507f83253f07cdb88c445d046dda4df8617f3a41ce4ed98c1fa8e5e5236ad9dd2ed681848460405161070493929190610eed565b60405180910390a1505050565b600073ffffffffffffffffffffffffffffffffffffffff168173ffffffffffffffffffffffffffffffffffffffff16141561074b57600080fd5b8073ffffffffffffffffffffffffffffffffffffffff1660008054906101000a900473ffffffffffffffffffffffffffffffffffffffff1673ffffffffffffffffffffffffffffffffffffffff167f8be0079c531659141344cd1fd0a4f28419497f9722a3daafe3b4186f6b6457e060405160405180910390a3806000806101000a81548173ffffffffffffffffffffffffffffffffffffffff021916908373ffffffffffffffffffffffffffffffffffffffff16021790555050565b82805461081490610d06565b90600052602060002090601f016020900481019282610836576000855561087d565b82601f1061084f57805160ff191683800117855561087d565b8280016001018555821561087d579182015b8281111561087c578251825591602001919060010190610861565b5b50905061088a919061088e565b5090565b5b808211156108a757600081600090555060010161088f565b5090565b6000604051905090565b600080fd5b600080fd5b6000819050919050565b6108d2816108bf565b81146108dd57600080fd5b50565b6000813590506108ef816108c9565b92915050565b60006020828403121561090b5761090a6108b5565b5b6000610919848285016108e0565b91505092915050565b600081519050919050565b600082825260208201905092915050565b60005b8381101561095c578082015181840152602081019050610941565b8381111561096b576000848401525b50505050565b6000601f19601f8301169050919050565b600061098d82610922565b610997818561092d565b93506109a781856020860161093e565b6109b081610971565b840191505092915050565b6109c4816108bf565b82525050565b600063ffffffff82169050919050565b6109e3816109ca565b82525050565b600061ffff82169050919050565b610a00816109e9565b82525050565b600060c0820190508181036000830152610a208189610982565b9050610a2f60208301886109bb565b610a3c60408301876109da565b610a4960608301866109da565b610a5660808301856109f7565b610a6360a08301846109f7565b979650505050505050565b600080fd5b600080fd5b7f4e487b7100000000000000000000000000000000000000000000000000000000600052604160045260246000fd5b610ab082610971565b810181811067ffffffffffffffff82111715610acf57610ace610a78565b5b80604052505050565b6000610ae26108ab565b9050610aee8282610aa7565b919050565b600067ffffffffffffffff821115610b0e57610b0d610a78565b5b610b1782610971565b9050602081019050919050565b82818337600083830152505050565b6000610b46610b4184610af3565b610ad8565b905082815260208101848484011115610b6257610b61610a73565b5b610b6d848285610b24565b509392505050565b600082601f830112610b8a57610b89610a6e565b5b8135610b9a848260208601610b33565b91505092915050565b600060208284031215610bb957610bb86108b5565b5b600082013567ffffffffffffffff811115610bd757610bd66108ba565b5b610be384828501610b75565b91505092915050565b600073ffffffffffffffffffffffffffffffffffffffff82169050919050565b6000610c1782610bec565b9050919050565b610c2781610c0c565b82525050565b6000602082019050610c426000830184610c1e565b92915050565b60008115159050919050565b610c5d81610c48565b82525050565b6000602082019050610c786000830184610c54565b92915050565b610c8781610c0c565b8114610c9257600080fd5b50565b600081359050610ca481610c7e565b92915050565b600060208284031215610cc057610cbf6108b5565b5b6000610cce84828501610c95565b91505092915050565b7f4e487b7100000000000000000000000000000000000000000000000000000000600052602260045260246000fd5b60006002820490506001821680610d1e57607f821691505b60208210811415610d3257610d31610cd7565b5b50919050565b7f4e487b7100000000000000000000000000000000000000000000000000000000600052601260045260246000fd5b6000610d72826108bf565b9150610d7d836108bf565b925082610d8d57610d8c610d38565b5b828206905092915050565b7f4e487b7100000000000000000000000000000000000000000000000000000000600052601160045260246000fd5b6000610dd2826108bf565b9150610ddd836108bf565b925082821015610df057610def610d98565b5b828203905092915050565b600081905092915050565b6000610e1182610922565b610e1b8185610dfb565b9350610e2b81856020860161093e565b80840191505092915050565b6000610e438284610e06565b915081905092915050565b6000610e59826108bf565b9150610e64836108bf565b9250827fffffffffffffffffffffffffffffffffffffffffffffffffffffffffffffffff03821115610e9957610e98610d98565b5b828201905092915050565b6000610eaf826108bf565b91507fffffffffffffffffffffffffffffffffffffffffffffffffffffffffffffffff821415610ee257610ee1610d98565b5b600182019050919050565b6000606082019050610f0260008301866109bb565b8181036020830152610f148185610982565b9050610f2360408301846109bb565b94935050505056fea2646970667358221220e80e227cbf738bf0b7be367871e8b8a9fecfbccb5d0b0a338c8610b9c1e7659d64736f6c63430008090033",
  "immutableReferences": {},
  "source": "pragma solidity >=0.8.9;\n\n// SPDX-License-Identifier: UNLICENSED\n\nimport \"./ownable.sol\";\nimport \"./safemath.sol\";\n\ncontract BlobFactory is Ownable {\n    using SafeMath for uint256;\n    using SafeMath32 for uint32;\n    using SafeMath16 for uint16;\n\n    event NewBlob(uint256 blobId, string name, uint256 dna);\n\n    uint256 dnaDigits = 16;\n    uint256 dnaModulus = 10**dnaDigits;\n    uint256 cooldownTime = 1 minutes;\n    uint256 maxBlobs = 5;\n\n    struct Blob {\n        string name;\n        uint256 dna;\n        uint32 level;\n        uint32 readyTime;\n        uint16 winCount;\n        uint16 lossCount;\n    }\n\n    Blob[] public blobs;\n\n    mapping(uint256 => address) public blobToOwner;\n    mapping(address => uint256) ownerBlobCount;\n\n    function _createBlob(string memory _name, uint256 _dna) internal {\n        blobs.push(\n            Blob(_name, _dna, 1, uint32(block.timestamp + cooldownTime), 0, 0)\n        );\n        uint256 id = blobs.length - 1;\n\n        blobToOwner[id] = msg.sender;\n        ownerBlobCount[msg.sender]++;\n        emit NewBlob(id, _name, _dna);\n    }\n\n    function _generateRandomDna(string memory _str)\n        private\n        view\n        returns (uint256)\n    {\n        uint256 rand = uint256(keccak256(abi.encodePacked(_str)));\n        return rand % dnaModulus;\n    }\n\n    function createRandomBlob(string memory _name) public {\n        require(ownerBlobCount[msg.sender] < maxBlobs);\n        uint256 randDna = _generateRandomDna(_name);\n        randDna = randDna - (randDna % 100);\n        _createBlob(_name, randDna);\n    }\n}\n",
  "sourcePath": "/Users/thomas/dev/cryptozombies/contracts/blobfactory.sol",
  "compiler": {
    "name": "solc",
    "version": "0.8.9+commit.e5eed63a.Emscripten.clang"
  },
  "schemaVersion": "3.4.3",
  "updatedAt": "2021-10-15T16:42:47.942Z",
  "devdoc": {
    "kind": "dev",
    "methods": {
      "isOwner()": {
        "returns": {
          "_0": "true if `msg.sender` is the owner of the contract."
        }
      },
      "owner()": {
        "returns": {
          "_0": "the address of the owner."
        }
      },
      "renounceOwnership()": {
        "details": "Allows the current owner to relinquish control of the contract."
      },
      "transferOwnership(address)": {
        "details": "Allows the current owner to transfer control of the contract to a newOwner.",
        "params": {
          "newOwner": "The address to transfer ownership to."
        }
      }
    },
    "version": 1
  },
  "userdoc": {
    "kind": "user",
    "methods": {
      "renounceOwnership()": {
        "notice": "Renouncing to ownership will leave the contract without an owner. It will not be possible to call the functions with the `onlyOwner` modifier anymore."
      }
    },
    "version": 1
  }
}