{
  "contractName": "BlobHelper",
  "abi": [
    {
      "anonymous": false,
      "inputs": [
        {
          "indexed": false,
          "internalType": "uint256",
          "name": "blobId",
          "type": "uint256"
        },
        {
          "indexed": false,
          "internalType": "string",
          "name": "name",
          "type": "string"
        },
        {
          "indexed": false,
          "internalType": "uint256",
          "name": "dna",
          "type": "uint256"
        }
      ],
      "name": "NewBlob",
      "type": "event"
    },
    {
      "anonymous": false,
      "inputs": [
        {
          "indexed": true,
          "internalType": "address",
          "name": "previousOwner",
          "type": "address"
        },
        {
          "indexed": true,
          "internalType": "address",
          "name": "newOwner",
          "type": "address"
        }
      ],
      "name": "OwnershipTransferred",
      "type": "event"
    },
    {
      "inputs": [
        {
          "internalType": "uint256",
          "name": "",
          "type": "uint256"
        }
      ],
      "name": "blobToOwner",
      "outputs": [
        {
          "internalType": "address",
          "name": "",
          "type": "address"
        }
      ],
      "stateMutability": "view",
      "type": "function"
    },
    {
      "inputs": [
        {
          "internalType": "uint256",
          "name": "",
          "type": "uint256"
        }
      ],
      "name": "blobs",
      "outputs": [
        {
          "internalType": "string",
          "name": "name",
          "type": "string"
        },
        {
          "internalType": "uint256",
          "name": "dna",
          "type": "uint256"
        },
        {
          "internalType": "uint32",
          "name": "level",
          "type": "uint32"
        },
        {
          "internalType": "uint32",
          "name": "readyTime",
          "type": "uint32"
        },
        {
          "internalType": "uint16",
          "name": "winCount",
          "type": "uint16"
        },
        {
          "internalType": "uint16",
          "name": "lossCount",
          "type": "uint16"
        }
      ],
      "stateMutability": "view",
      "type": "function"
    },
    {
      "inputs": [
        {
          "internalType": "string",
          "name": "_name",
          "type": "string"
        }
      ],
      "name": "createRandomBlob",
      "outputs": [],
      "stateMutability": "nonpayable",
      "type": "function"
    },
    {
      "inputs": [],
      "name": "isOwner",
      "outputs": [
        {
          "internalType": "bool",
          "name": "",
          "type": "bool"
        }
      ],
      "stateMutability": "view",
      "type": "function"
    },
    {
      "inputs": [],
      "name": "owner",
      "outputs": [
        {
          "internalType": "address",
          "name": "",
          "type": "address"
        }
      ],
      "stateMutability": "view",
      "type": "function"
    },
    {
      "inputs": [],
      "name": "renounceOwnership",
      "outputs": [],
      "stateMutability": "nonpayable",
      "type": "function"
    },
    {
      "inputs": [
        {
          "internalType": "address",
          "name": "newOwner",
          "type": "address"
        }
      ],
      "name": "transferOwnership",
      "outputs": [],
      "stateMutability": "nonpayable",
      "type": "function"
    },
    {
      "inputs": [
        {
          "internalType": "address",
          "name": "_owner",
          "type": "address"
        }
      ],
      "name": "getBlobsByOwner",
      "outputs": [
        {
          "internalType": "uint256[]",
          "name": "",
          "type": "uint256[]"
        }
      ],
      "stateMutability": "view",
      "type": "function"
    }
  ],
  "bytecode": "0x60806040526010600155600154600a6200001a919062000283565b600255603c60035560056004553480156200003457600080fd5b50336000806101000a81548173ffffffffffffffffffffffffffffffffffffffff021916908373ffffffffffffffffffffffffffffffffffffffff16021790555060008054906101000a900473ffffffffffffffffffffffffffffffffffffffff1673ffffffffffffffffffffffffffffffffffffffff16600073ffffffffffffffffffffffffffffffffffffffff167f8be0079c531659141344cd1fd0a4f28419497f9722a3daafe3b4186f6b6457e060405160405180910390a3620002d4565b7f4e487b7100000000000000000000000000000000000000000000000000000000600052601160045260246000fd5b60008160011c9050919050565b6000808291508390505b600185111562000184578086048111156200015c576200015b620000f6565b5b60018516156200016c5780820291505b80810290506200017c8562000125565b94506200013c565b94509492505050565b6000826200019f576001905062000272565b81620001af576000905062000272565b8160018114620001c85760028114620001d35762000209565b600191505062000272565b60ff841115620001e857620001e7620000f6565b5b8360020a915084821115620002025762000201620000f6565b5b5062000272565b5060208310610133831016604e8410600b8410161715620002435782820a9050838111156200023d576200023c620000f6565b5b62000272565b62000252848484600162000132565b925090508184048111156200026c576200026b620000f6565b5b81810290505b9392505050565b6000819050919050565b6000620002908262000279565b91506200029d8362000279565b9250620002cc7fffffffffffffffffffffffffffffffffffffffffffffffffffffffffffffffff84846200018d565b905092915050565b6111fe80620002e46000396000f3fe608060405234801561001057600080fd5b50600436106100885760003560e01c80638da5cb5b1161005b5780638da5cb5b146101185780638f32d59b14610136578063970bad6f14610154578063f2fde38b1461018457610088565b80631782d4731461008d5780632abc3d4e146100bd578063715018a6146100f25780637c80f25b146100fc575b600080fd5b6100a760048036038101906100a29190610aab565b6101a0565b6040516100b49190610ba0565b60405180910390f35b6100d760048036038101906100d29190610bee565b6102f3565b6040516100e996959493929190610cff565b60405180910390f35b6100fa610403565b005b61011660048036038101906101119190610e9c565b6104d2565b005b610120610554565b60405161012d9190610ef4565b60405180910390f35b61013e61057d565b60405161014b9190610f2a565b60405180910390f35b61016e60048036038101906101699190610bee565b6105d4565b60405161017b9190610ef4565b60405180910390f35b61019e60048036038101906101999190610aab565b610607565b005b60606000600760008473ffffffffffffffffffffffffffffffffffffffff1673ffffffffffffffffffffffffffffffffffffffff1681526020019081526020016000205467ffffffffffffffff8111156101fd576101fc610d71565b5b60405190808252806020026020018201604052801561022b5781602001602082028036833780820191505090505b5090506000805b6005805490508110156102e8578473ffffffffffffffffffffffffffffffffffffffff166006600083815260200190815260200160002060009054906101000a900473ffffffffffffffffffffffffffffffffffffffff1673ffffffffffffffffffffffffffffffffffffffff1614156102d557808383815181106102ba576102b9610f45565b5b60200260200101818152505081806102d190610fa3565b9250505b80806102e090610fa3565b915050610232565b508192505050919050565b6005818154811061030357600080fd5b90600052602060002090600302016000915090508060000180546103269061101b565b80601f01602080910402602001604051908101604052809291908181526020018280546103529061101b565b801561039f5780601f106103745761010080835404028352916020019161039f565b820191906000526020600020905b81548152906001019060200180831161038257829003601f168201915b5050505050908060010154908060020160009054906101000a900463ffffffff16908060020160049054906101000a900463ffffffff16908060020160089054906101000a900461ffff169080600201600a9054906101000a900461ffff16905086565b61040b61057d565b61041457600080fd5b600073ffffffffffffffffffffffffffffffffffffffff1660008054906101000a900473ffffffffffffffffffffffffffffffffffffffff1673ffffffffffffffffffffffffffffffffffffffff167f8be0079c531659141344cd1fd0a4f28419497f9722a3daafe3b4186f6b6457e060405160405180910390a360008060006101000a81548173ffffffffffffffffffffffffffffffffffffffff021916908373ffffffffffffffffffffffffffffffffffffffff160217905550565b600454600760003373ffffffffffffffffffffffffffffffffffffffff1673ffffffffffffffffffffffffffffffffffffffff168152602001908152602001600020541061051f57600080fd5b600061052a82610624565b9050606481610539919061107c565b8161054491906110ad565b90506105508282610669565b5050565b60008060009054906101000a900473ffffffffffffffffffffffffffffffffffffffff16905090565b60008060009054906101000a900473ffffffffffffffffffffffffffffffffffffffff1673ffffffffffffffffffffffffffffffffffffffff163373ffffffffffffffffffffffffffffffffffffffff1614905090565b60066020528060005260406000206000915054906101000a900473ffffffffffffffffffffffffffffffffffffffff1681565b61060f61057d565b61061857600080fd5b6106218161089f565b50565b60008082604051602001610638919061111d565b6040516020818303038152906040528051906020012060001c905060025481610661919061107c565b915050919050565b60056040518060c00160405280848152602001838152602001600163ffffffff1681526020016003544261069d9190611134565b63ffffffff168152602001600061ffff168152602001600061ffff1681525090806001815401808255809150506001900390600052602060002090600302016000909190919091506000820151816000019080519060200190610701929190610996565b506020820151816001015560408201518160020160006101000a81548163ffffffff021916908363ffffffff16021790555060608201518160020160046101000a81548163ffffffff021916908363ffffffff16021790555060808201518160020160086101000a81548161ffff021916908361ffff16021790555060a082015181600201600a6101000a81548161ffff021916908361ffff1602179055505050600060016005805490506107b691906110ad565b9050336006600083815260200190815260200160002060006101000a81548173ffffffffffffffffffffffffffffffffffffffff021916908373ffffffffffffffffffffffffffffffffffffffff160217905550600760003373ffffffffffffffffffffffffffffffffffffffff1673ffffffffffffffffffffffffffffffffffffffff168152602001908152602001600020600081548092919061085a90610fa3565b91905055507f83253f07cdb88c445d046dda4df8617f3a41ce4ed98c1fa8e5e5236ad9dd2ed68184846040516108929392919061118a565b60405180910390a1505050565b600073ffffffffffffffffffffffffffffffffffffffff168173ffffffffffffffffffffffffffffffffffffffff1614156108d957600080fd5b8073ffffffffffffffffffffffffffffffffffffffff1660008054906101000a900473ffffffffffffffffffffffffffffffffffffffff1673ffffffffffffffffffffffffffffffffffffffff167f8be0079c531659141344cd1fd0a4f28419497f9722a3daafe3b4186f6b6457e060405160405180910390a3806000806101000a81548173ffffffffffffffffffffffffffffffffffffffff021916908373ffffffffffffffffffffffffffffffffffffffff16021790555050565b8280546109a29061101b565b90600052602060002090601f0160209004810192826109c45760008555610a0b565b82601f106109dd57805160ff1916838001178555610a0b565b82800160010185558215610a0b579182015b82811115610a0a5782518255916020019190600101906109ef565b5b509050610a189190610a1c565b5090565b5b80821115610a35576000816000905550600101610a1d565b5090565b6000604051905090565b600080fd5b600080fd5b600073ffffffffffffffffffffffffffffffffffffffff82169050919050565b6000610a7882610a4d565b9050919050565b610a8881610a6d565b8114610a9357600080fd5b50565b600081359050610aa581610a7f565b92915050565b600060208284031215610ac157610ac0610a43565b5b6000610acf84828501610a96565b91505092915050565b600081519050919050565b600082825260208201905092915050565b6000819050602082019050919050565b6000819050919050565b610b1781610b04565b82525050565b6000610b298383610b0e565b60208301905092915050565b6000602082019050919050565b6000610b4d82610ad8565b610b578185610ae3565b9350610b6283610af4565b8060005b83811015610b93578151610b7a8882610b1d565b9750610b8583610b35565b925050600181019050610b66565b5085935050505092915050565b60006020820190508181036000830152610bba8184610b42565b905092915050565b610bcb81610b04565b8114610bd657600080fd5b50565b600081359050610be881610bc2565b92915050565b600060208284031215610c0457610c03610a43565b5b6000610c1284828501610bd9565b91505092915050565b600081519050919050565b600082825260208201905092915050565b60005b83811015610c55578082015181840152602081019050610c3a565b83811115610c64576000848401525b50505050565b6000601f19601f8301169050919050565b6000610c8682610c1b565b610c908185610c26565b9350610ca0818560208601610c37565b610ca981610c6a565b840191505092915050565b610cbd81610b04565b82525050565b600063ffffffff82169050919050565b610cdc81610cc3565b82525050565b600061ffff82169050919050565b610cf981610ce2565b82525050565b600060c0820190508181036000830152610d198189610c7b565b9050610d286020830188610cb4565b610d356040830187610cd3565b610d426060830186610cd3565b610d4f6080830185610cf0565b610d5c60a0830184610cf0565b979650505050505050565b600080fd5b600080fd5b7f4e487b7100000000000000000000000000000000000000000000000000000000600052604160045260246000fd5b610da982610c6a565b810181811067ffffffffffffffff82111715610dc857610dc7610d71565b5b80604052505050565b6000610ddb610a39565b9050610de78282610da0565b919050565b600067ffffffffffffffff821115610e0757610e06610d71565b5b610e1082610c6a565b9050602081019050919050565b82818337600083830152505050565b6000610e3f610e3a84610dec565b610dd1565b905082815260208101848484011115610e5b57610e5a610d6c565b5b610e66848285610e1d565b509392505050565b600082601f830112610e8357610e82610d67565b5b8135610e93848260208601610e2c565b91505092915050565b600060208284031215610eb257610eb1610a43565b5b600082013567ffffffffffffffff811115610ed057610ecf610a48565b5b610edc84828501610e6e565b91505092915050565b610eee81610a6d565b82525050565b6000602082019050610f096000830184610ee5565b92915050565b60008115159050919050565b610f2481610f0f565b82525050565b6000602082019050610f3f6000830184610f1b565b92915050565b7f4e487b7100000000000000000000000000000000000000000000000000000000600052603260045260246000fd5b7f4e487b7100000000000000000000000000000000000000000000000000000000600052601160045260246000fd5b6000610fae82610b04565b91507fffffffffffffffffffffffffffffffffffffffffffffffffffffffffffffffff821415610fe157610fe0610f74565b5b600182019050919050565b7f4e487b7100000000000000000000000000000000000000000000000000000000600052602260045260246000fd5b6000600282049050600182168061103357607f821691505b6020821081141561104757611046610fec565b5b50919050565b7f4e487b7100000000000000000000000000000000000000000000000000000000600052601260045260246000fd5b600061108782610b04565b915061109283610b04565b9250826110a2576110a161104d565b5b828206905092915050565b60006110b882610b04565b91506110c383610b04565b9250828210156110d6576110d5610f74565b5b828203905092915050565b600081905092915050565b60006110f782610c1b565b61110181856110e1565b9350611111818560208601610c37565b80840191505092915050565b600061112982846110ec565b915081905092915050565b600061113f82610b04565b915061114a83610b04565b9250827fffffffffffffffffffffffffffffffffffffffffffffffffffffffffffffffff0382111561117f5761117e610f74565b5b828201905092915050565b600060608201905061119f6000830186610cb4565b81810360208301526111b18185610c7b565b90506111c06040830184610cb4565b94935050505056fea264697066735822122028eefdb6244cea7be86b6096d07df3b0bf1361ea08c9f50ec28f4eb95e704c4a64736f6c63430008090033",
  "immutableReferences": {},
  "source": "pragma solidity >=0.6.0;\n\n// SPDX-License-Identifier: UNLICENSED\n\nimport \"./BlobFactory.sol\";\n\ncontract BlobHelper is BlobFactory {\n    function getBlobsByOwner(address _owner)\n        external\n        view\n        returns (uint256[] memory)\n    {\n        uint256[] memory result = new uint256[](ownerBlobCount[_owner]);\n        uint256 counter = 0;\n        for (uint256 i = 0; i < blobs.length; i++) {\n            if (blobToOwner[i] == _owner) {\n                result[counter] = i;\n                counter++;\n            }\n        }\n        return result;\n    }\n}\n",
  "sourcePath": "/Users/thomas/dev/cryptoblobs/contracts/BlobHelper.sol",
  "compiler": {
    "name": "solc",
    "version": "0.8.9+commit.e5eed63a.Emscripten.clang"
  },
  "schemaVersion": "3.4.3",
  "updatedAt": "2021-10-23T13:57:34.004Z",
  "devdoc": {
    "kind": "dev",
    "methods": {
      "isOwner()": {
        "returns": {
          "_0": "true if `msg.sender` is the owner of the contract."
        }
      },
      "owner()": {
        "returns": {
          "_0": "the address of the owner."
        }
      },
      "renounceOwnership()": {
        "details": "Allows the current owner to relinquish control of the contract."
      },
      "transferOwnership(address)": {
        "details": "Allows the current owner to transfer control of the contract to a newOwner.",
        "params": {
          "newOwner": "The address to transfer ownership to."
        }
      }
    },
    "version": 1
  },
  "userdoc": {
    "kind": "user",
    "methods": {
      "renounceOwnership()": {
        "notice": "Renouncing to ownership will leave the contract without an owner. It will not be possible to call the functions with the `onlyOwner` modifier anymore."
      }
    },
    "version": 1
  }
}