{
  "contractName": "BlobAttack",
  "abi": [
    {
      "anonymous": false,
      "inputs": [
        {
          "indexed": false,
          "internalType": "uint256",
          "name": "blobId",
          "type": "uint256"
        },
        {
          "indexed": false,
          "internalType": "string",
          "name": "name",
          "type": "string"
        },
        {
          "indexed": false,
          "internalType": "uint256",
          "name": "dna",
          "type": "uint256"
        }
      ],
      "name": "NewBlob",
      "type": "event"
    },
    {
      "anonymous": false,
      "inputs": [
        {
          "indexed": true,
          "internalType": "address",
          "name": "previousOwner",
          "type": "address"
        },
        {
          "indexed": true,
          "internalType": "address",
          "name": "newOwner",
          "type": "address"
        }
      ],
      "name": "OwnershipTransferred",
      "type": "event"
    },
    {
      "inputs": [
        {
          "internalType": "uint256",
          "name": "",
          "type": "uint256"
        }
      ],
      "name": "blobToOwner",
      "outputs": [
        {
          "internalType": "address",
          "name": "",
          "type": "address"
        }
      ],
      "stateMutability": "view",
      "type": "function"
    },
    {
      "inputs": [
        {
          "internalType": "uint256",
          "name": "",
          "type": "uint256"
        }
      ],
      "name": "blobs",
      "outputs": [
        {
          "internalType": "string",
          "name": "name",
          "type": "string"
        },
        {
          "internalType": "uint256",
          "name": "dna",
          "type": "uint256"
        },
        {
          "internalType": "uint32",
          "name": "level",
          "type": "uint32"
        },
        {
          "internalType": "uint32",
          "name": "readyTime",
          "type": "uint32"
        },
        {
          "internalType": "uint16",
          "name": "winCount",
          "type": "uint16"
        },
        {
          "internalType": "uint16",
          "name": "lossCount",
          "type": "uint16"
        }
      ],
      "stateMutability": "view",
      "type": "function"
    },
    {
      "inputs": [
        {
          "internalType": "uint256",
          "name": "_blobId",
          "type": "uint256"
        },
        {
          "internalType": "uint256",
          "name": "_newDna",
          "type": "uint256"
        }
      ],
      "name": "changeDna",
      "outputs": [],
      "stateMutability": "nonpayable",
      "type": "function"
    },
    {
      "inputs": [
        {
          "internalType": "uint256",
          "name": "_blobId",
          "type": "uint256"
        },
        {
          "internalType": "string",
          "name": "_newName",
          "type": "string"
        }
      ],
      "name": "changeName",
      "outputs": [],
      "stateMutability": "nonpayable",
      "type": "function"
    },
    {
      "inputs": [
        {
          "internalType": "string",
          "name": "_name",
          "type": "string"
        }
      ],
      "name": "createRandomBlob",
      "outputs": [],
      "stateMutability": "nonpayable",
      "type": "function"
    },
    {
      "inputs": [
        {
          "internalType": "uint256",
          "name": "_blobId",
          "type": "uint256"
        },
        {
          "internalType": "uint256",
          "name": "_kittyId",
          "type": "uint256"
        }
      ],
      "name": "feedOnKitty",
      "outputs": [],
      "stateMutability": "nonpayable",
      "type": "function"
    },
    {
      "inputs": [
        {
          "internalType": "address",
          "name": "_owner",
          "type": "address"
        }
      ],
      "name": "getBlobsByOwner",
      "outputs": [
        {
          "internalType": "uint256[]",
          "name": "",
          "type": "uint256[]"
        }
      ],
      "stateMutability": "view",
      "type": "function"
    },
    {
      "inputs": [],
      "name": "isOwner",
      "outputs": [
        {
          "internalType": "bool",
          "name": "",
          "type": "bool"
        }
      ],
      "stateMutability": "view",
      "type": "function"
    },
    {
      "inputs": [
        {
          "internalType": "uint256",
          "name": "_blobId",
          "type": "uint256"
        }
      ],
      "name": "levelUp",
      "outputs": [],
      "stateMutability": "payable",
      "type": "function"
    },
    {
      "inputs": [],
      "name": "owner",
      "outputs": [
        {
          "internalType": "address",
          "name": "",
          "type": "address"
        }
      ],
      "stateMutability": "view",
      "type": "function"
    },
    {
      "inputs": [],
      "name": "renounceOwnership",
      "outputs": [],
      "stateMutability": "nonpayable",
      "type": "function"
    },
    {
      "inputs": [
        {
          "internalType": "address",
          "name": "_address",
          "type": "address"
        }
      ],
      "name": "setKittyContractAddress",
      "outputs": [],
      "stateMutability": "nonpayable",
      "type": "function"
    },
    {
      "inputs": [
        {
          "internalType": "uint256",
          "name": "_fee",
          "type": "uint256"
        }
      ],
      "name": "setLevelUpFee",
      "outputs": [],
      "stateMutability": "nonpayable",
      "type": "function"
    },
    {
      "inputs": [
        {
          "internalType": "address",
          "name": "newOwner",
          "type": "address"
        }
      ],
      "name": "transferOwnership",
      "outputs": [],
      "stateMutability": "nonpayable",
      "type": "function"
    },
    {
      "inputs": [],
      "name": "withdraw",
      "outputs": [],
      "stateMutability": "nonpayable",
      "type": "function"
    },
    {
      "inputs": [
        {
          "internalType": "uint256",
          "name": "_blobId",
          "type": "uint256"
        },
        {
          "internalType": "uint256",
          "name": "_targetId",
          "type": "uint256"
        }
      ],
      "name": "attack",
      "outputs": [],
      "stateMutability": "nonpayable",
      "type": "function"
    }
  ],
  "bytecode": "0x60806040526010600155600154600a6200001a919062000298565b600255603c600355600560045566038d7ea4c680006009556000600a556046600b553480156200004957600080fd5b50336000806101000a81548173ffffffffffffffffffffffffffffffffffffffff021916908373ffffffffffffffffffffffffffffffffffffffff16021790555060008054906101000a900473ffffffffffffffffffffffffffffffffffffffff1673ffffffffffffffffffffffffffffffffffffffff16600073ffffffffffffffffffffffffffffffffffffffff167f8be0079c531659141344cd1fd0a4f28419497f9722a3daafe3b4186f6b6457e060405160405180910390a3620002e9565b7f4e487b7100000000000000000000000000000000000000000000000000000000600052601160045260246000fd5b60008160011c9050919050565b6000808291508390505b600185111562000199578086048111156200017157620001706200010b565b5b6001851615620001815780820291505b808102905062000191856200013a565b945062000151565b94509492505050565b600082620001b4576001905062000287565b81620001c4576000905062000287565b8160018114620001dd5760028114620001e8576200021e565b600191505062000287565b60ff841115620001fd57620001fc6200010b565b5b8360020a9150848211156200021757620002166200010b565b5b5062000287565b5060208310610133831016604e8410600b8410161715620002585782820a9050838111156200025257620002516200010b565b5b62000287565b62000267848484600162000147565b925090508184048111156200028157620002806200010b565b5b81810290505b9392505050565b6000819050919050565b6000620002a5826200028e565b9150620002b2836200028e565b9250620002e17fffffffffffffffffffffffffffffffffffffffffffffffffffffffffffffffff8484620001a2565b905092915050565b6121af80620002f96000396000f3fe6080604052600436106100f35760003560e01c80637c80f25b1161008a578063c39cbef111610059578063c39cbef1146102f8578063ccf670f814610321578063e1fa76381461034a578063f2fde38b14610373576100f3565b80637c80f25b1461023c5780638da5cb5b146102655780638f32d59b14610290578063970bad6f146102bb576100f3565b80633ccfd60b116100c65780633ccfd60b146101bc5780635f4623f1146101d35780635faf2880146101fc578063715018a614610225576100f3565b80630ce90ec2146100f85780631782d4731461011457806317a7f4cc146101515780632abc3d4e1461017a575b600080fd5b610112600480360381019061010d919061162f565b61039c565b005b34801561012057600080fd5b5061013b600480360381019061013691906116ba565b610432565b60405161014891906117a5565b60405180910390f35b34801561015d57600080fd5b50610178600480360381019061017391906117c7565b610585565b005b34801561018657600080fd5b506101a1600480360381019061019c919061162f565b6106b2565b6040516101b3969594939291906118eb565b60405180910390f35b3480156101c857600080fd5b506101d16107c2565b005b3480156101df57600080fd5b506101fa60048036038101906101f591906116ba565b610829565b005b34801561020857600080fd5b50610223600480360381019061021e91906117c7565b61087e565b005b34801561023157600080fd5b5061023a610966565b005b34801561024857600080fd5b50610263600480360381019061025e9190611a88565b610a35565b005b34801561027157600080fd5b5061027a610ab7565b6040516102879190611ae0565b60405180910390f35b34801561029c57600080fd5b506102a5610ae0565b6040516102b29190611b16565b60405180910390f35b3480156102c757600080fd5b506102e260048036038101906102dd919061162f565b610b37565b6040516102ef9190611ae0565b60405180910390f35b34801561030457600080fd5b5061031f600480360381019061031a9190611b91565b610b6a565b005b34801561032d57600080fd5b506103486004803603810190610343919061162f565b610c5e565b005b34801561035657600080fd5b50610371600480360381019061036c91906117c7565b610c79565b005b34801561037f57600080fd5b5061039a600480360381019061039591906116ba565b610eda565b005b60095434146103aa57600080fd5b6001600582815481106103c0576103bf611bf1565b5b906000526020600020906003020160020160009054906101000a900463ffffffff166103ec9190611c4f565b60058281548110610400576103ff611bf1565b5b906000526020600020906003020160020160006101000a81548163ffffffff021916908363ffffffff16021790555050565b60606000600760008473ffffffffffffffffffffffffffffffffffffffff1673ffffffffffffffffffffffffffffffffffffffff1681526020019081526020016000205467ffffffffffffffff81111561048f5761048e61195d565b5b6040519080825280602002602001820160405280156104bd5781602001602082028036833780820191505090505b5090506000805b60058054905081101561057a578473ffffffffffffffffffffffffffffffffffffffff166006600083815260200190815260200160002060009054906101000a900473ffffffffffffffffffffffffffffffffffffffff1673ffffffffffffffffffffffffffffffffffffffff161415610567578083838151811061054c5761054b611bf1565b5b602002602001018181525050818061056390611c89565b9250505b808061057290611c89565b9150506104c4565b508192505050919050565b6000600860009054906101000a900473ffffffffffffffffffffffffffffffffffffffff1673ffffffffffffffffffffffffffffffffffffffff1663e98b7f4d836040518263ffffffff1660e01b81526004016105e29190611cd2565b6101406040518083038186803b1580156105fb57600080fd5b505afa15801561060f573d6000803e3d6000fd5b505050506040513d601f19601f820116820180604052508101906106339190611d2e565b909192939495969798509091929394959697509091929394959650909192939495509091929394509091929350909192509091509050809150506106ad83826040518060400160405280600581526020017f6b69747479000000000000000000000000000000000000000000000000000000815250610ef7565b505050565b600581815481106106c257600080fd5b90600052602060002090600302016000915090508060000180546106e590611e3c565b80601f016020809104026020016040519081016040528092919081815260200182805461071190611e3c565b801561075e5780601f106107335761010080835404028352916020019161075e565b820191906000526020600020905b81548152906001019060200180831161074157829003601f168201915b5050505050908060010154908060020160009054906101000a900463ffffffff16908060020160049054906101000a900463ffffffff16908060020160089054906101000a900461ffff169080600201600a9054906101000a900461ffff16905086565b6107ca610ae0565b6107d357600080fd5b60006107dd610ab7565b90508073ffffffffffffffffffffffffffffffffffffffff166108fc479081150290604051600060405180830381858888f19350505050158015610825573d6000803e3d6000fd5b5050565b610831610ae0565b61083a57600080fd5b80600860006101000a81548173ffffffffffffffffffffffffffffffffffffffff021916908373ffffffffffffffffffffffffffffffffffffffff16021790555050565b601482816005828154811061089657610895611bf1565b5b906000526020600020906003020160020160009054906101000a900463ffffffff1663ffffffff1610156108c957600080fd5b836006600082815260200190815260200160002060009054906101000a900473ffffffffffffffffffffffffffffffffffffffff1673ffffffffffffffffffffffffffffffffffffffff163373ffffffffffffffffffffffffffffffffffffffff161461093557600080fd5b836005868154811061094a57610949611bf1565b5b9060005260206000209060030201600101819055505050505050565b61096e610ae0565b61097757600080fd5b600073ffffffffffffffffffffffffffffffffffffffff1660008054906101000a900473ffffffffffffffffffffffffffffffffffffffff1673ffffffffffffffffffffffffffffffffffffffff167f8be0079c531659141344cd1fd0a4f28419497f9722a3daafe3b4186f6b6457e060405160405180910390a360008060006101000a81548173ffffffffffffffffffffffffffffffffffffffff021916908373ffffffffffffffffffffffffffffffffffffffff160217905550565b600454600760003373ffffffffffffffffffffffffffffffffffffffff1673ffffffffffffffffffffffffffffffffffffffff1681526020019081526020016000205410610a8257600080fd5b6000610a8d82611094565b9050606481610a9c9190611e9d565b81610aa79190611ece565b9050610ab382826110d9565b5050565b60008060009054906101000a900473ffffffffffffffffffffffffffffffffffffffff16905090565b60008060009054906101000a900473ffffffffffffffffffffffffffffffffffffffff1673ffffffffffffffffffffffffffffffffffffffff163373ffffffffffffffffffffffffffffffffffffffff1614905090565b60066020528060005260406000206000915054906101000a900473ffffffffffffffffffffffffffffffffffffffff1681565b6002838160058281548110610b8257610b81611bf1565b5b906000526020600020906003020160020160009054906101000a900463ffffffff1663ffffffff161015610bb557600080fd5b846006600082815260200190815260200160002060009054906101000a900473ffffffffffffffffffffffffffffffffffffffff1673ffffffffffffffffffffffffffffffffffffffff163373ffffffffffffffffffffffffffffffffffffffff1614610c2157600080fd5b848460058881548110610c3757610c36611bf1565b5b90600052602060002090600302016000019190610c559291906114bc565b50505050505050565b610c66610ae0565b610c6f57600080fd5b8060098190555050565b816006600082815260200190815260200160002060009054906101000a900473ffffffffffffffffffffffffffffffffffffffff1673ffffffffffffffffffffffffffffffffffffffff163373ffffffffffffffffffffffffffffffffffffffff1614610ce557600080fd5b600060058481548110610cfb57610cfa611bf1565b5b90600052602060002090600302019050600060058481548110610d2157610d20611bf1565b5b906000526020600020906003020190506000610d3d606461130f565b9050600b548111610e4e5782600201600881819054906101000a900461ffff1680929190610d6a90611f02565b91906101000a81548161ffff021916908361ffff1602179055505082600201600081819054906101000a900463ffffffff1680929190610da990611f2d565b91906101000a81548163ffffffff021916908363ffffffff1602179055505081600201600a81819054906101000a900461ffff1680929190610dea90611f02565b91906101000a81548161ffff021916908361ffff16021790555050610e498683600101546040518060400160405280600481526020017f626c6f6200000000000000000000000000000000000000000000000000000000815250610ef7565b610ed2565b82600201600a81819054906101000a900461ffff1680929190610e7090611f02565b91906101000a81548161ffff021916908361ffff1602179055505081600201600881819054906101000a900461ffff1680929190610ead90611f02565b91906101000a81548161ffff021916908361ffff16021790555050610ed18361136b565b5b505050505050565b610ee2610ae0565b610eeb57600080fd5b610ef48161139e565b50565b826006600082815260200190815260200160002060009054906101000a900473ffffffffffffffffffffffffffffffffffffffff1673ffffffffffffffffffffffffffffffffffffffff163373ffffffffffffffffffffffffffffffffffffffff1614610f6357600080fd5b600060058581548110610f7957610f78611bf1565b5b90600052602060002090600302019050610f9281611495565b610f9b57600080fd5b60025484610fa99190611e9d565b935060006002858360010154610fbf9190611f5a565b610fc99190611fb0565b9050604051602001610fda90612038565b6040516020818303038152906040528051906020012084604051602001611001919061207e565b60405160208183030381529060405280519060200120141561104457606360648261102c9190611e9d565b826110379190611ece565b6110419190611f5a565b90505b6110836040518060400160405280600681526020017f4e6f4e616d650000000000000000000000000000000000000000000000000000815250826110d9565b61108c8261136b565b505050505050565b600080826040516020016110a8919061207e565b6040516020818303038152906040528051906020012060001c9050600254816110d19190611e9d565b915050919050565b60056040518060c00160405280848152602001838152602001600163ffffffff1681526020016003544261110d9190611f5a565b63ffffffff168152602001600061ffff168152602001600061ffff1681525090806001815401808255809150506001900390600052602060002090600302016000909190919091506000820151816000019080519060200190611171929190611542565b506020820151816001015560408201518160020160006101000a81548163ffffffff021916908363ffffffff16021790555060608201518160020160046101000a81548163ffffffff021916908363ffffffff16021790555060808201518160020160086101000a81548161ffff021916908361ffff16021790555060a082015181600201600a6101000a81548161ffff021916908361ffff1602179055505050600060016005805490506112269190611ece565b9050336006600083815260200190815260200160002060006101000a81548173ffffffffffffffffffffffffffffffffffffffff021916908373ffffffffffffffffffffffffffffffffffffffff160217905550600760003373ffffffffffffffffffffffffffffffffffffffff1673ffffffffffffffffffffffffffffffffffffffff16815260200190815260200160002060008154809291906112ca90611c89565b91905055507f83253f07cdb88c445d046dda4df8617f3a41ce4ed98c1fa8e5e5236ad9dd2ed681848460405161130293929190612095565b60405180910390a1505050565b6000600a600081548092919061132490611c89565b9190505550814233600a546040516020016113419392919061213c565b6040516020818303038152906040528051906020012060001c6113649190611e9d565b9050919050565b600354426113799190611f5a565b8160020160046101000a81548163ffffffff021916908363ffffffff16021790555050565b600073ffffffffffffffffffffffffffffffffffffffff168173ffffffffffffffffffffffffffffffffffffffff1614156113d857600080fd5b8073ffffffffffffffffffffffffffffffffffffffff1660008054906101000a900473ffffffffffffffffffffffffffffffffffffffff1673ffffffffffffffffffffffffffffffffffffffff167f8be0079c531659141344cd1fd0a4f28419497f9722a3daafe3b4186f6b6457e060405160405180910390a3806000806101000a81548173ffffffffffffffffffffffffffffffffffffffff021916908373ffffffffffffffffffffffffffffffffffffffff16021790555050565b6000428260020160049054906101000a900463ffffffff1663ffffffff1611159050919050565b8280546114c890611e3c565b90600052602060002090601f0160209004810192826114ea5760008555611531565b82601f1061150357803560ff1916838001178555611531565b82800160010185558215611531579182015b82811115611530578235825591602001919060010190611515565b5b50905061153e91906115c8565b5090565b82805461154e90611e3c565b90600052602060002090601f01602090048101928261157057600085556115b7565b82601f1061158957805160ff19168380011785556115b7565b828001600101855582156115b7579182015b828111156115b657825182559160200191906001019061159b565b5b5090506115c491906115c8565b5090565b5b808211156115e15760008160009055506001016115c9565b5090565b6000604051905090565b600080fd5b600080fd5b6000819050919050565b61160c816115f9565b811461161757600080fd5b50565b60008135905061162981611603565b92915050565b600060208284031215611645576116446115ef565b5b60006116538482850161161a565b91505092915050565b600073ffffffffffffffffffffffffffffffffffffffff82169050919050565b60006116878261165c565b9050919050565b6116978161167c565b81146116a257600080fd5b50565b6000813590506116b48161168e565b92915050565b6000602082840312156116d0576116cf6115ef565b5b60006116de848285016116a5565b91505092915050565b600081519050919050565b600082825260208201905092915050565b6000819050602082019050919050565b61171c816115f9565b82525050565b600061172e8383611713565b60208301905092915050565b6000602082019050919050565b6000611752826116e7565b61175c81856116f2565b935061176783611703565b8060005b8381101561179857815161177f8882611722565b975061178a8361173a565b92505060018101905061176b565b5085935050505092915050565b600060208201905081810360008301526117bf8184611747565b905092915050565b600080604083850312156117de576117dd6115ef565b5b60006117ec8582860161161a565b92505060206117fd8582860161161a565b9150509250929050565b600081519050919050565b600082825260208201905092915050565b60005b83811015611841578082015181840152602081019050611826565b83811115611850576000848401525b50505050565b6000601f19601f8301169050919050565b600061187282611807565b61187c8185611812565b935061188c818560208601611823565b61189581611856565b840191505092915050565b6118a9816115f9565b82525050565b600063ffffffff82169050919050565b6118c8816118af565b82525050565b600061ffff82169050919050565b6118e5816118ce565b82525050565b600060c08201905081810360008301526119058189611867565b905061191460208301886118a0565b61192160408301876118bf565b61192e60608301866118bf565b61193b60808301856118dc565b61194860a08301846118dc565b979650505050505050565b600080fd5b600080fd5b7f4e487b7100000000000000000000000000000000000000000000000000000000600052604160045260246000fd5b61199582611856565b810181811067ffffffffffffffff821117156119b4576119b361195d565b5b80604052505050565b60006119c76115e5565b90506119d3828261198c565b919050565b600067ffffffffffffffff8211156119f3576119f261195d565b5b6119fc82611856565b9050602081019050919050565b82818337600083830152505050565b6000611a2b611a26846119d8565b6119bd565b905082815260208101848484011115611a4757611a46611958565b5b611a52848285611a09565b509392505050565b600082601f830112611a6f57611a6e611953565b5b8135611a7f848260208601611a18565b91505092915050565b600060208284031215611a9e57611a9d6115ef565b5b600082013567ffffffffffffffff811115611abc57611abb6115f4565b5b611ac884828501611a5a565b91505092915050565b611ada8161167c565b82525050565b6000602082019050611af56000830184611ad1565b92915050565b60008115159050919050565b611b1081611afb565b82525050565b6000602082019050611b2b6000830184611b07565b92915050565b600080fd5b600080fd5b60008083601f840112611b5157611b50611953565b5b8235905067ffffffffffffffff811115611b6e57611b6d611b31565b5b602083019150836001820283011115611b8a57611b89611b36565b5b9250929050565b600080600060408486031215611baa57611ba96115ef565b5b6000611bb88682870161161a565b935050602084013567ffffffffffffffff811115611bd957611bd86115f4565b5b611be586828701611b3b565b92509250509250925092565b7f4e487b7100000000000000000000000000000000000000000000000000000000600052603260045260246000fd5b7f4e487b7100000000000000000000000000000000000000000000000000000000600052601160045260246000fd5b6000611c5a826118af565b9150611c65836118af565b92508263ffffffff03821115611c7e57611c7d611c20565b5b828201905092915050565b6000611c94826115f9565b91507fffffffffffffffffffffffffffffffffffffffffffffffffffffffffffffffff821415611cc757611cc6611c20565b5b600182019050919050565b6000602082019050611ce760008301846118a0565b92915050565b611cf681611afb565b8114611d0157600080fd5b50565b600081519050611d1381611ced565b92915050565b600081519050611d2881611603565b92915050565b6000806000806000806000806000806101408b8d031215611d5257611d516115ef565b5b6000611d608d828e01611d04565b9a50506020611d718d828e01611d04565b9950506040611d828d828e01611d19565b9850506060611d938d828e01611d19565b9750506080611da48d828e01611d19565b96505060a0611db58d828e01611d19565b95505060c0611dc68d828e01611d19565b94505060e0611dd78d828e01611d19565b935050610100611de98d828e01611d19565b925050610120611dfb8d828e01611d19565b9150509295989b9194979a5092959850565b7f4e487b7100000000000000000000000000000000000000000000000000000000600052602260045260246000fd5b60006002820490506001821680611e5457607f821691505b60208210811415611e6857611e67611e0d565b5b50919050565b7f4e487b7100000000000000000000000000000000000000000000000000000000600052601260045260246000fd5b6000611ea8826115f9565b9150611eb3836115f9565b925082611ec357611ec2611e6e565b5b828206905092915050565b6000611ed9826115f9565b9150611ee4836115f9565b925082821015611ef757611ef6611c20565b5b828203905092915050565b6000611f0d826118ce565b915061ffff821415611f2257611f21611c20565b5b600182019050919050565b6000611f38826118af565b915063ffffffff821415611f4f57611f4e611c20565b5b600182019050919050565b6000611f65826115f9565b9150611f70836115f9565b9250827fffffffffffffffffffffffffffffffffffffffffffffffffffffffffffffffff03821115611fa557611fa4611c20565b5b828201905092915050565b6000611fbb826115f9565b9150611fc6836115f9565b925082611fd657611fd5611e6e565b5b828204905092915050565b600081905092915050565b7f6b69747479000000000000000000000000000000000000000000000000000000600082015250565b6000612022600583611fe1565b915061202d82611fec565b600582019050919050565b600061204382612015565b9150819050919050565b600061205882611807565b6120628185611fe1565b9350612072818560208601611823565b80840191505092915050565b600061208a828461204d565b915081905092915050565b60006060820190506120aa60008301866118a0565b81810360208301526120bc8185611867565b90506120cb60408301846118a0565b949350505050565b6000819050919050565b6120ee6120e9826115f9565b6120d3565b82525050565b60008160601b9050919050565b600061210c826120f4565b9050919050565b600061211e82612101565b9050919050565b6121366121318261167c565b612113565b82525050565b600061214882866120dd565b6020820191506121588285612125565b60148201915061216882846120dd565b60208201915081905094935050505056fea26469706673582212201edd6822d77732eb90a67efda41386cccfb3ea9da62057366a530f657135229d64736f6c63430008090033",
  "immutableReferences": {},
  "source": "pragma solidity >=0.8.9;\n\n// SPDX-License-Identifier: UNLICENSED\n\nimport \"./blobhelper.sol\";\n\ncontract BlobAttack is BlobHelper {\n    uint256 randNonce = 0;\n    uint256 attackVictoryProbability = 70;\n\n    function randMod(uint256 _modulus) internal returns (uint256) {\n        randNonce++;\n        return\n            uint256(\n                keccak256(\n                    abi.encodePacked(block.timestamp, msg.sender, randNonce)\n                )\n            ) % _modulus;\n    }\n\n    function attack(uint256 _blobId, uint256 _targetId)\n        external\n        onlyOwnerOf(_blobId)\n    {\n        Blob storage myBlob = blobs[_blobId];\n        Blob storage enemyBlob = blobs[_targetId];\n        uint256 rand = randMod(100);\n        if (rand <= attackVictoryProbability) {\n            myBlob.winCount++;\n            myBlob.level++;\n            enemyBlob.lossCount++;\n            feedAndMultiply(_blobId, enemyBlob.dna, \"blob\");\n        } else {\n            myBlob.lossCount++;\n            enemyBlob.winCount++;\n            _triggerCooldown(myBlob);\n        }\n    }\n}\n",
  "sourcePath": "/Users/thomas/dev/cryptozombies/contracts/blobattack.sol",
  "compiler": {
    "name": "solc",
    "version": "0.8.9+commit.e5eed63a.Emscripten.clang"
  },
  "schemaVersion": "3.4.3",
  "updatedAt": "2021-10-15T16:29:47.005Z",
  "devdoc": {
    "kind": "dev",
    "methods": {
      "isOwner()": {
        "returns": {
          "_0": "true if `msg.sender` is the owner of the contract."
        }
      },
      "owner()": {
        "returns": {
          "_0": "the address of the owner."
        }
      },
      "renounceOwnership()": {
        "details": "Allows the current owner to relinquish control of the contract."
      },
      "transferOwnership(address)": {
        "details": "Allows the current owner to transfer control of the contract to a newOwner.",
        "params": {
          "newOwner": "The address to transfer ownership to."
        }
      }
    },
    "version": 1
  },
  "userdoc": {
    "kind": "user",
    "methods": {
      "renounceOwnership()": {
        "notice": "Renouncing to ownership will leave the contract without an owner. It will not be possible to call the functions with the `onlyOwner` modifier anymore."
      }
    },
    "version": 1
  }
}