{
  "contractName": "BlobMarketplace",
  "abi": [
    {
      "anonymous": false,
      "inputs": [
        {
          "indexed": true,
          "internalType": "address",
          "name": "_owner",
          "type": "address"
        },
        {
          "indexed": true,
          "internalType": "address",
          "name": "_approved",
          "type": "address"
        },
        {
          "indexed": true,
          "internalType": "uint256",
          "name": "_tokenId",
          "type": "uint256"
        }
      ],
      "name": "Approval",
      "type": "event"
    },
    {
      "anonymous": false,
      "inputs": [
        {
          "indexed": false,
          "internalType": "uint256",
          "name": "blobId",
          "type": "uint256"
        },
        {
          "indexed": false,
          "internalType": "string",
          "name": "name",
          "type": "string"
        },
        {
          "indexed": false,
          "internalType": "uint256",
          "name": "dna",
          "type": "uint256"
        }
      ],
      "name": "NewBlob",
      "type": "event"
    },
    {
      "anonymous": false,
      "inputs": [
        {
          "indexed": true,
          "internalType": "address",
          "name": "previousOwner",
          "type": "address"
        },
        {
          "indexed": true,
          "internalType": "address",
          "name": "newOwner",
          "type": "address"
        }
      ],
      "name": "OwnershipTransferred",
      "type": "event"
    },
    {
      "anonymous": false,
      "inputs": [
        {
          "indexed": true,
          "internalType": "address",
          "name": "_from",
          "type": "address"
        },
        {
          "indexed": true,
          "internalType": "address",
          "name": "_to",
          "type": "address"
        },
        {
          "indexed": true,
          "internalType": "uint256",
          "name": "_tokenId",
          "type": "uint256"
        }
      ],
      "name": "Transfer",
      "type": "event"
    },
    {
      "inputs": [
        {
          "internalType": "address",
          "name": "_approved",
          "type": "address"
        },
        {
          "internalType": "uint256",
          "name": "_tokenId",
          "type": "uint256"
        }
      ],
      "name": "approve",
      "outputs": [],
      "stateMutability": "payable",
      "type": "function",
      "payable": true
    },
    {
      "inputs": [
        {
          "internalType": "address",
          "name": "_owner",
          "type": "address"
        }
      ],
      "name": "balanceOf",
      "outputs": [
        {
          "internalType": "uint256",
          "name": "",
          "type": "uint256"
        }
      ],
      "stateMutability": "view",
      "type": "function",
      "constant": true
    },
    {
      "inputs": [
        {
          "internalType": "uint256",
          "name": "",
          "type": "uint256"
        }
      ],
      "name": "blobToOwner",
      "outputs": [
        {
          "internalType": "address",
          "name": "",
          "type": "address"
        }
      ],
      "stateMutability": "view",
      "type": "function",
      "constant": true
    },
    {
      "inputs": [
        {
          "internalType": "uint256",
          "name": "",
          "type": "uint256"
        }
      ],
      "name": "blobs",
      "outputs": [
        {
          "internalType": "string",
          "name": "name",
          "type": "string"
        },
        {
          "internalType": "uint256",
          "name": "dna",
          "type": "uint256"
        },
        {
          "internalType": "uint32",
          "name": "level",
          "type": "uint32"
        },
        {
          "internalType": "uint32",
          "name": "readyTime",
          "type": "uint32"
        },
        {
          "internalType": "uint16",
          "name": "winCount",
          "type": "uint16"
        },
        {
          "internalType": "uint16",
          "name": "lossCount",
          "type": "uint16"
        }
      ],
      "stateMutability": "view",
      "type": "function",
      "constant": true
    },
    {
      "inputs": [
        {
          "internalType": "string",
          "name": "_name",
          "type": "string"
        }
      ],
      "name": "createRandomBlob",
      "outputs": [],
      "stateMutability": "nonpayable",
      "type": "function"
    },
    {
      "inputs": [
        {
          "internalType": "address",
          "name": "_owner",
          "type": "address"
        }
      ],
      "name": "getBlobsByOwner",
      "outputs": [
        {
          "internalType": "uint256[]",
          "name": "",
          "type": "uint256[]"
        }
      ],
      "stateMutability": "view",
      "type": "function",
      "constant": true
    },
    {
      "inputs": [],
      "name": "isOwner",
      "outputs": [
        {
          "internalType": "bool",
          "name": "",
          "type": "bool"
        }
      ],
      "stateMutability": "view",
      "type": "function",
      "constant": true
    },
    {
      "inputs": [
        {
          "internalType": "uint256",
          "name": "",
          "type": "uint256"
        }
      ],
      "name": "listings",
      "outputs": [
        {
          "internalType": "uint256",
          "name": "",
          "type": "uint256"
        }
      ],
      "stateMutability": "view",
      "type": "function",
      "constant": true
    },
    {
      "inputs": [],
      "name": "owner",
      "outputs": [
        {
          "internalType": "address",
          "name": "",
          "type": "address"
        }
      ],
      "stateMutability": "view",
      "type": "function",
      "constant": true
    },
    {
      "inputs": [
        {
          "internalType": "uint256",
          "name": "_tokenId",
          "type": "uint256"
        }
      ],
      "name": "ownerOf",
      "outputs": [
        {
          "internalType": "address",
          "name": "",
          "type": "address"
        }
      ],
      "stateMutability": "view",
      "type": "function",
      "constant": true
    },
    {
      "inputs": [],
      "name": "renounceOwnership",
      "outputs": [],
      "stateMutability": "nonpayable",
      "type": "function"
    },
    {
      "inputs": [
        {
          "internalType": "address",
          "name": "_from",
          "type": "address"
        },
        {
          "internalType": "address",
          "name": "_to",
          "type": "address"
        },
        {
          "internalType": "uint256",
          "name": "_tokenId",
          "type": "uint256"
        }
      ],
      "name": "transferFrom",
      "outputs": [],
      "stateMutability": "payable",
      "type": "function",
      "payable": true
    },
    {
      "inputs": [
        {
          "internalType": "address",
          "name": "newOwner",
          "type": "address"
        }
      ],
      "name": "transferOwnership",
      "outputs": [],
      "stateMutability": "nonpayable",
      "type": "function"
    },
    {
      "inputs": [
        {
          "internalType": "uint256",
          "name": "_blobId",
          "type": "uint256"
        }
      ],
      "name": "getBlobPrice",
      "outputs": [
        {
          "internalType": "uint256",
          "name": "",
          "type": "uint256"
        }
      ],
      "stateMutability": "view",
      "type": "function",
      "constant": true
    },
    {
      "inputs": [],
      "name": "getBlobsForSale",
      "outputs": [
        {
          "internalType": "uint256[]",
          "name": "",
          "type": "uint256[]"
        }
      ],
      "stateMutability": "view",
      "type": "function",
      "constant": true
    },
    {
      "inputs": [
        {
          "internalType": "uint256",
          "name": "_blobId",
          "type": "uint256"
        },
        {
          "internalType": "uint256",
          "name": "price",
          "type": "uint256"
        }
      ],
      "name": "listBlobForSale",
      "outputs": [],
      "stateMutability": "payable",
      "type": "function",
      "payable": true
    },
    {
      "inputs": [
        {
          "internalType": "uint256",
          "name": "_blobId",
          "type": "uint256"
        }
      ],
      "name": "cancelBlobListing",
      "outputs": [],
      "stateMutability": "payable",
      "type": "function",
      "payable": true
    },
    {
      "inputs": [
        {
          "internalType": "uint256",
          "name": "_blobId",
          "type": "uint256"
        }
      ],
      "name": "buyBlob",
      "outputs": [],
      "stateMutability": "payable",
      "type": "function",
      "payable": true
    }
  ],
  "bytecode": "0x60806040526010600155600154600a6200001a919062000288565b600255603c60035560056004556000600a553480156200003957600080fd5b50336000806101000a81548173ffffffffffffffffffffffffffffffffffffffff021916908373ffffffffffffffffffffffffffffffffffffffff16021790555060008054906101000a900473ffffffffffffffffffffffffffffffffffffffff1673ffffffffffffffffffffffffffffffffffffffff16600073ffffffffffffffffffffffffffffffffffffffff167f8be0079c531659141344cd1fd0a4f28419497f9722a3daafe3b4186f6b6457e060405160405180910390a3620002d9565b7f4e487b7100000000000000000000000000000000000000000000000000000000600052601160045260246000fd5b60008160011c9050919050565b6000808291508390505b60018511156200018957808604811115620001615762000160620000fb565b5b6001851615620001715780820291505b808102905062000181856200012a565b945062000141565b94509492505050565b600082620001a4576001905062000277565b81620001b4576000905062000277565b8160018114620001cd5760028114620001d8576200020e565b600191505062000277565b60ff841115620001ed57620001ec620000fb565b5b8360020a915084821115620002075762000206620000fb565b5b5062000277565b5060208310610133831016604e8410600b8410161715620002485782820a905083811115620002425762000241620000fb565b5b62000277565b62000257848484600162000137565b92509050818404811115620002715762000270620000fb565b5b81810290505b9392505050565b6000819050919050565b600062000295826200027e565b9150620002a2836200027e565b9250620002d17fffffffffffffffffffffffffffffffffffffffffffffffffffffffffffffffff848462000192565b905092915050565b611f1c80620002e96000396000f3fe6080604052600436106101095760003560e01c8063715018a611610095578063970bad6f11610064578063970bad6f14610329578063b540577614610366578063de74e57b146103a3578063f2fde38b146103e0578063fe0fd3021461040957610109565b8063715018a6146102935780637c80f25b146102aa5780638da5cb5b146102d35780638f32d59b146102fe57610109565b80632abc3d4e116100dc5780632abc3d4e1461019f5780634da6372a146101e15780636352211e146101fd578063709ff36d1461023a57806370a082311461025657610109565b8063095ea7b31461010e5780630cc9fd851461012a5780631782d4731461014657806323b872dd14610183575b600080fd5b610128600480360381019061012391906116b8565b610434565b005b610144600480360381019061013f91906116f8565b610552565b005b34801561015257600080fd5b5061016d60048036038101906101689190611725565b610614565b60405161017a9190611810565b60405180910390f35b61019d60048036038101906101989190611832565b610767565b005b3480156101ab57600080fd5b506101c660048036038101906101c191906116f8565b61084b565b6040516101d896959493929190611969565b60405180910390f35b6101fb60048036038101906101f691906116f8565b61095b565b005b34801561020957600080fd5b50610224600480360381019061021f91906116f8565b610b30565b60405161023191906119e0565b60405180910390f35b610254600480360381019061024f91906119fb565b610b6d565b005b34801561026257600080fd5b5061027d60048036038101906102789190611725565b610c3f565b60405161028a9190611a3b565b60405180910390f35b34801561029f57600080fd5b506102a8610c88565b005b3480156102b657600080fd5b506102d160048036038101906102cc9190611b8b565b610d57565b005b3480156102df57600080fd5b506102e8610dd9565b6040516102f591906119e0565b60405180910390f35b34801561030a57600080fd5b50610313610e02565b6040516103209190611bef565b60405180910390f35b34801561033557600080fd5b50610350600480360381019061034b91906116f8565b610e59565b60405161035d91906119e0565b60405180910390f35b34801561037257600080fd5b5061038d600480360381019061038891906116f8565b610e8c565b60405161039a9190611a3b565b60405180910390f35b3480156103af57600080fd5b506103ca60048036038101906103c591906116f8565b610ecc565b6040516103d79190611a3b565b60405180910390f35b3480156103ec57600080fd5b5061040760048036038101906104029190611725565b610ee4565b005b34801561041557600080fd5b5061041e610f01565b60405161042b9190611810565b60405180910390f35b806006600082815260200190815260200160002060009054906101000a900473ffffffffffffffffffffffffffffffffffffffff1673ffffffffffffffffffffffffffffffffffffffff163373ffffffffffffffffffffffffffffffffffffffff16146104a057600080fd5b826008600084815260200190815260200160002060006101000a81548173ffffffffffffffffffffffffffffffffffffffff021916908373ffffffffffffffffffffffffffffffffffffffff160217905550818373ffffffffffffffffffffffffffffffffffffffff163373ffffffffffffffffffffffffffffffffffffffff167f8c5be1e5ebec7d5bd14f71427d1e84f3dd0314c0f7b2291e5b200ac8c7c3b92560405160405180910390a4505050565b806006600082815260200190815260200160002060009054906101000a900473ffffffffffffffffffffffffffffffffffffffff1673ffffffffffffffffffffffffffffffffffffffff163373ffffffffffffffffffffffffffffffffffffffff16146105be57600080fd5b816000600960008381526020019081526020016000205414156105e057600080fd5b6009600084815260200190815260200160002060009055600a600081548092919061060a90611c39565b9190505550505050565b60606000600760008473ffffffffffffffffffffffffffffffffffffffff1673ffffffffffffffffffffffffffffffffffffffff1681526020019081526020016000205467ffffffffffffffff81111561067157610670611a60565b5b60405190808252806020026020018201604052801561069f5781602001602082028036833780820191505090505b5090506000805b60058054905081101561075c578473ffffffffffffffffffffffffffffffffffffffff166006600083815260200190815260200160002060009054906101000a900473ffffffffffffffffffffffffffffffffffffffff1673ffffffffffffffffffffffffffffffffffffffff161415610749578083838151811061072e5761072d611c63565b5b602002602001018181525050818061074590611c92565b9250505b808061075490611c92565b9150506106a6565b508192505050919050565b3373ffffffffffffffffffffffffffffffffffffffff166006600083815260200190815260200160002060009054906101000a900473ffffffffffffffffffffffffffffffffffffffff1673ffffffffffffffffffffffffffffffffffffffff16148061083257503373ffffffffffffffffffffffffffffffffffffffff166008600083815260200190815260200160002060009054906101000a900473ffffffffffffffffffffffffffffffffffffffff1673ffffffffffffffffffffffffffffffffffffffff16145b61083b57600080fd5b610846838383610fca565b505050565b6005818154811061085b57600080fd5b906000526020600020906003020160009150905080600001805461087e90611d0a565b80601f01602080910402602001604051908101604052809291908181526020018280546108aa90611d0a565b80156108f75780601f106108cc576101008083540402835291602001916108f7565b820191906000526020600020905b8154815290600101906020018083116108da57829003601f168201915b5050505050908060010154908060020160009054906101000a900463ffffffff16908060020160049054906101000a900463ffffffff16908060020160089054906101000a900461ffff169080600201600a9054906101000a900461ffff16905086565b8060006009600083815260200190815260200160002054141561097d57600080fd5b6009600083815260200190815260200160002054341461099c57600080fd5b60006006600084815260200190815260200160002060009054906101000a900473ffffffffffffffffffffffffffffffffffffffff169050600760003373ffffffffffffffffffffffffffffffffffffffff1673ffffffffffffffffffffffffffffffffffffffff1681526020019081526020016000206000815480929190610a2490611c92565b9190505550600760008273ffffffffffffffffffffffffffffffffffffffff1673ffffffffffffffffffffffffffffffffffffffff1681526020019081526020016000206000815480929190610a7990611c39565b9190505550336006600085815260200190815260200160002060006101000a81548173ffffffffffffffffffffffffffffffffffffffff021916908373ffffffffffffffffffffffffffffffffffffffff160217905550823373ffffffffffffffffffffffffffffffffffffffff168273ffffffffffffffffffffffffffffffffffffffff167fddf252ad1be2c89b69c2b068fc378daa952ba7f163c4a11628f55a4df523b3ef60405160405180910390a4505050565b60006006600083815260200190815260200160002060009054906101000a900473ffffffffffffffffffffffffffffffffffffffff169050919050565b816006600082815260200190815260200160002060009054906101000a900473ffffffffffffffffffffffffffffffffffffffff1673ffffffffffffffffffffffffffffffffffffffff163373ffffffffffffffffffffffffffffffffffffffff1614610bd957600080fd5b6000600960008581526020019081526020016000205414610bf957600080fd5b60008211610c0a57610c09611d3c565b5b816009600085815260200190815260200160002081905550600a6000815480929190610c3590611c92565b9190505550505050565b6000600760008373ffffffffffffffffffffffffffffffffffffffff1673ffffffffffffffffffffffffffffffffffffffff168152602001908152602001600020549050919050565b610c90610e02565b610c9957600080fd5b600073ffffffffffffffffffffffffffffffffffffffff1660008054906101000a900473ffffffffffffffffffffffffffffffffffffffff1673ffffffffffffffffffffffffffffffffffffffff167f8be0079c531659141344cd1fd0a4f28419497f9722a3daafe3b4186f6b6457e060405160405180910390a360008060006101000a81548173ffffffffffffffffffffffffffffffffffffffff021916908373ffffffffffffffffffffffffffffffffffffffff160217905550565b600454600760003373ffffffffffffffffffffffffffffffffffffffff1673ffffffffffffffffffffffffffffffffffffffff1681526020019081526020016000205410610da457600080fd5b6000610daf826111a8565b9050606481610dbe9190611d9a565b81610dc99190611dcb565b9050610dd582826111ed565b5050565b60008060009054906101000a900473ffffffffffffffffffffffffffffffffffffffff16905090565b60008060009054906101000a900473ffffffffffffffffffffffffffffffffffffffff1673ffffffffffffffffffffffffffffffffffffffff163373ffffffffffffffffffffffffffffffffffffffff1614905090565b60066020528060005260406000206000915054906101000a900473ffffffffffffffffffffffffffffffffffffffff1681565b600081600060096000838152602001908152602001600020541415610eb057600080fd5b6009600084815260200190815260200160002054915050919050565b60096020528060005260406000206000915090505481565b610eec610e02565b610ef557600080fd5b610efe81611423565b50565b60606000600a5467ffffffffffffffff811115610f2157610f20611a60565b5b604051908082528060200260200182016040528015610f4f5781602001602082028036833780820191505090505b5090506000805b600580549050811015610fc157600060096000838152602001908152602001600020541115610fae5780838381518110610f9357610f92611c63565b5b6020026020010181815250508180610faa90611c92565b9250505b8080610fb990611c92565b915050610f56565b50819250505090565b61101d6001600760008573ffffffffffffffffffffffffffffffffffffffff1673ffffffffffffffffffffffffffffffffffffffff1681526020019081526020016000205461151a90919063ffffffff16565b600760008473ffffffffffffffffffffffffffffffffffffffff1673ffffffffffffffffffffffffffffffffffffffff168152602001908152602001600020819055506110b36001600760003373ffffffffffffffffffffffffffffffffffffffff1673ffffffffffffffffffffffffffffffffffffffff1681526020019081526020016000205461154690919063ffffffff16565b600760003373ffffffffffffffffffffffffffffffffffffffff1673ffffffffffffffffffffffffffffffffffffffff16815260200190815260200160002081905550816006600083815260200190815260200160002060006101000a81548173ffffffffffffffffffffffffffffffffffffffff021916908373ffffffffffffffffffffffffffffffffffffffff160217905550808273ffffffffffffffffffffffffffffffffffffffff168473ffffffffffffffffffffffffffffffffffffffff167fddf252ad1be2c89b69c2b068fc378daa952ba7f163c4a11628f55a4df523b3ef60405160405180910390a4505050565b600080826040516020016111bc9190611e3b565b6040516020818303038152906040528051906020012060001c9050600254816111e59190611d9a565b915050919050565b60056040518060c00160405280848152602001838152602001600163ffffffff168152602001600354426112219190611e52565b63ffffffff168152602001600061ffff168152602001600061ffff168152509080600181540180825580915050600190039060005260206000209060030201600090919091909150600082015181600001908051906020019061128592919061156d565b506020820151816001015560408201518160020160006101000a81548163ffffffff021916908363ffffffff16021790555060608201518160020160046101000a81548163ffffffff021916908363ffffffff16021790555060808201518160020160086101000a81548161ffff021916908361ffff16021790555060a082015181600201600a6101000a81548161ffff021916908361ffff16021790555050506000600160058054905061133a9190611dcb565b9050336006600083815260200190815260200160002060006101000a81548173ffffffffffffffffffffffffffffffffffffffff021916908373ffffffffffffffffffffffffffffffffffffffff160217905550600760003373ffffffffffffffffffffffffffffffffffffffff1673ffffffffffffffffffffffffffffffffffffffff16815260200190815260200160002060008154809291906113de90611c92565b91905055507f83253f07cdb88c445d046dda4df8617f3a41ce4ed98c1fa8e5e5236ad9dd2ed681848460405161141693929190611ea8565b60405180910390a1505050565b600073ffffffffffffffffffffffffffffffffffffffff168173ffffffffffffffffffffffffffffffffffffffff16141561145d57600080fd5b8073ffffffffffffffffffffffffffffffffffffffff1660008054906101000a900473ffffffffffffffffffffffffffffffffffffffff1673ffffffffffffffffffffffffffffffffffffffff167f8be0079c531659141344cd1fd0a4f28419497f9722a3daafe3b4186f6b6457e060405160405180910390a3806000806101000a81548173ffffffffffffffffffffffffffffffffffffffff021916908373ffffffffffffffffffffffffffffffffffffffff16021790555050565b60008082846115299190611e52565b90508381101561153c5761153b611d3c565b5b8091505092915050565b60008282111561155957611558611d3c565b5b81836115659190611dcb565b905092915050565b82805461157990611d0a565b90600052602060002090601f01602090048101928261159b57600085556115e2565b82601f106115b457805160ff19168380011785556115e2565b828001600101855582156115e2579182015b828111156115e15782518255916020019190600101906115c6565b5b5090506115ef91906115f3565b5090565b5b8082111561160c5760008160009055506001016115f4565b5090565b6000604051905090565b600080fd5b600080fd5b600073ffffffffffffffffffffffffffffffffffffffff82169050919050565b600061164f82611624565b9050919050565b61165f81611644565b811461166a57600080fd5b50565b60008135905061167c81611656565b92915050565b6000819050919050565b61169581611682565b81146116a057600080fd5b50565b6000813590506116b28161168c565b92915050565b600080604083850312156116cf576116ce61161a565b5b60006116dd8582860161166d565b92505060206116ee858286016116a3565b9150509250929050565b60006020828403121561170e5761170d61161a565b5b600061171c848285016116a3565b91505092915050565b60006020828403121561173b5761173a61161a565b5b60006117498482850161166d565b91505092915050565b600081519050919050565b600082825260208201905092915050565b6000819050602082019050919050565b61178781611682565b82525050565b6000611799838361177e565b60208301905092915050565b6000602082019050919050565b60006117bd82611752565b6117c7818561175d565b93506117d28361176e565b8060005b838110156118035781516117ea888261178d565b97506117f5836117a5565b9250506001810190506117d6565b5085935050505092915050565b6000602082019050818103600083015261182a81846117b2565b905092915050565b60008060006060848603121561184b5761184a61161a565b5b60006118598682870161166d565b935050602061186a8682870161166d565b925050604061187b868287016116a3565b9150509250925092565b600081519050919050565b600082825260208201905092915050565b60005b838110156118bf5780820151818401526020810190506118a4565b838111156118ce576000848401525b50505050565b6000601f19601f8301169050919050565b60006118f082611885565b6118fa8185611890565b935061190a8185602086016118a1565b611913816118d4565b840191505092915050565b61192781611682565b82525050565b600063ffffffff82169050919050565b6119468161192d565b82525050565b600061ffff82169050919050565b6119638161194c565b82525050565b600060c082019050818103600083015261198381896118e5565b9050611992602083018861191e565b61199f604083018761193d565b6119ac606083018661193d565b6119b9608083018561195a565b6119c660a083018461195a565b979650505050505050565b6119da81611644565b82525050565b60006020820190506119f560008301846119d1565b92915050565b60008060408385031215611a1257611a1161161a565b5b6000611a20858286016116a3565b9250506020611a31858286016116a3565b9150509250929050565b6000602082019050611a50600083018461191e565b92915050565b600080fd5b600080fd5b7f4e487b7100000000000000000000000000000000000000000000000000000000600052604160045260246000fd5b611a98826118d4565b810181811067ffffffffffffffff82111715611ab757611ab6611a60565b5b80604052505050565b6000611aca611610565b9050611ad68282611a8f565b919050565b600067ffffffffffffffff821115611af657611af5611a60565b5b611aff826118d4565b9050602081019050919050565b82818337600083830152505050565b6000611b2e611b2984611adb565b611ac0565b905082815260208101848484011115611b4a57611b49611a5b565b5b611b55848285611b0c565b509392505050565b600082601f830112611b7257611b71611a56565b5b8135611b82848260208601611b1b565b91505092915050565b600060208284031215611ba157611ba061161a565b5b600082013567ffffffffffffffff811115611bbf57611bbe61161f565b5b611bcb84828501611b5d565b91505092915050565b60008115159050919050565b611be981611bd4565b82525050565b6000602082019050611c046000830184611be0565b92915050565b7f4e487b7100000000000000000000000000000000000000000000000000000000600052601160045260246000fd5b6000611c4482611682565b91506000821415611c5857611c57611c0a565b5b600182039050919050565b7f4e487b7100000000000000000000000000000000000000000000000000000000600052603260045260246000fd5b6000611c9d82611682565b91507fffffffffffffffffffffffffffffffffffffffffffffffffffffffffffffffff821415611cd057611ccf611c0a565b5b600182019050919050565b7f4e487b7100000000000000000000000000000000000000000000000000000000600052602260045260246000fd5b60006002820490506001821680611d2257607f821691505b60208210811415611d3657611d35611cdb565b5b50919050565b7f4e487b7100000000000000000000000000000000000000000000000000000000600052600160045260246000fd5b7f4e487b7100000000000000000000000000000000000000000000000000000000600052601260045260246000fd5b6000611da582611682565b9150611db083611682565b925082611dc057611dbf611d6b565b5b828206905092915050565b6000611dd682611682565b9150611de183611682565b925082821015611df457611df3611c0a565b5b828203905092915050565b600081905092915050565b6000611e1582611885565b611e1f8185611dff565b9350611e2f8185602086016118a1565b80840191505092915050565b6000611e478284611e0a565b915081905092915050565b6000611e5d82611682565b9150611e6883611682565b9250827fffffffffffffffffffffffffffffffffffffffffffffffffffffffffffffffff03821115611e9d57611e9c611c0a565b5b828201905092915050565b6000606082019050611ebd600083018661191e565b8181036020830152611ecf81856118e5565b9050611ede604083018461191e565b94935050505056fea264697066735822122002fb7daf32ff6cee16353bb026e110bb2a9d1a4e0392a7124573aead6bff6c0364736f6c63430008090033",
  "immutableReferences": {},
  "source": "// SPDX-License-Identifier: UNLICENSED\npragma solidity >=0.8.9;\n\nimport \"./CryptoBlobs.sol\";\nimport \"./safemath.sol\";\n\n/// @author Thomas Sauvajon\ncontract BlobMarketplace is CryptoBlobs {\n    using SafeMath for uint256;\n\n    mapping(uint256 => uint256) public listings;\n    uint256 listingCount = 0;\n\n    modifier forSale(uint256 _blobId) {\n        require(listings[_blobId] != 0);\n        _;\n    }\n\n    function getBlobPrice(uint256 _blobId)\n        external\n        view\n        forSale(_blobId)\n        returns (uint256)\n    {\n        return listings[_blobId];\n    }\n\n    function getBlobsForSale() external view returns (uint256[] memory) {\n        uint256[] memory result = new uint256[](listingCount);\n        uint256 i = 0;\n        for (uint256 blobId = 0; blobId < blobs.length; blobId++) {\n            // if the blob is listed for sale\n            if (listings[blobId] > 0) {\n                result[i] = blobId;\n                i++;\n            }\n        }\n        return result;\n    }\n\n    function listBlobForSale(uint256 _blobId, uint256 price)\n        external\n        payable\n        onlyOwnerOf(_blobId)\n    {\n        require(listings[_blobId] == 0); // must not be already for sale\n        assert(price > 0);\n\n        listings[_blobId] = price;\n        listingCount++;\n\n        // emit event? TODO: look at what Events are for\n    }\n\n    function cancelBlobListing(uint256 _blobId)\n        external\n        payable\n        onlyOwnerOf(_blobId)\n        forSale(_blobId)\n    {\n        delete listings[_blobId];\n        listingCount--;\n    }\n\n    function buyBlob(uint256 _blobId) external payable forSale(_blobId) {\n        require(msg.value == listings[_blobId]);\n\n        address owner = blobToOwner[_blobId];\n\n        ownerBlobCount[msg.sender]++;\n        ownerBlobCount[owner]--;\n        blobToOwner[_blobId] = msg.sender;\n\n        emit Transfer(owner, msg.sender, _blobId);\n    }\n}\n",
  "sourcePath": "/Users/thomas/dev/cryptoblobs/contracts/BlobMarketplace.sol",
  "compiler": {
    "name": "solc",
    "version": "0.8.9+commit.e5eed63a.Emscripten.clang"
  },
  "schemaVersion": "3.4.3",
  "updatedAt": "2021-10-21T16:16:22.488Z",
  "networkType": "ethereum",
  "devdoc": {
    "author": "Thomas Sauvajon",
    "kind": "dev",
    "methods": {
      "isOwner()": {
        "returns": {
          "_0": "true if `msg.sender` is the owner of the contract."
        }
      },
      "owner()": {
        "returns": {
          "_0": "the address of the owner."
        }
      },
      "renounceOwnership()": {
        "details": "Allows the current owner to relinquish control of the contract."
      },
      "transferOwnership(address)": {
        "details": "Allows the current owner to transfer control of the contract to a newOwner.",
        "params": {
          "newOwner": "The address to transfer ownership to."
        }
      }
    },
    "version": 1
  },
  "userdoc": {
    "kind": "user",
    "methods": {
      "renounceOwnership()": {
        "notice": "Renouncing to ownership will leave the contract without an owner. It will not be possible to call the functions with the `onlyOwner` modifier anymore."
      }
    },
    "version": 1
  }
}