{
  "contractName": "CryptoBlobs",
  "abi": [
    {
      "anonymous": false,
      "inputs": [
        {
          "indexed": true,
          "internalType": "address",
          "name": "_owner",
          "type": "address"
        },
        {
          "indexed": true,
          "internalType": "address",
          "name": "_approved",
          "type": "address"
        },
        {
          "indexed": true,
          "internalType": "uint256",
          "name": "_tokenId",
          "type": "uint256"
        }
      ],
      "name": "Approval",
      "type": "event"
    },
    {
      "anonymous": false,
      "inputs": [
        {
          "indexed": false,
          "internalType": "uint256",
          "name": "blobId",
          "type": "uint256"
        },
        {
          "indexed": false,
          "internalType": "string",
          "name": "name",
          "type": "string"
        },
        {
          "indexed": false,
          "internalType": "uint256",
          "name": "dna",
          "type": "uint256"
        }
      ],
      "name": "NewBlob",
      "type": "event"
    },
    {
      "anonymous": false,
      "inputs": [
        {
          "indexed": true,
          "internalType": "address",
          "name": "previousOwner",
          "type": "address"
        },
        {
          "indexed": true,
          "internalType": "address",
          "name": "newOwner",
          "type": "address"
        }
      ],
      "name": "OwnershipTransferred",
      "type": "event"
    },
    {
      "anonymous": false,
      "inputs": [
        {
          "indexed": true,
          "internalType": "address",
          "name": "_from",
          "type": "address"
        },
        {
          "indexed": true,
          "internalType": "address",
          "name": "_to",
          "type": "address"
        },
        {
          "indexed": true,
          "internalType": "uint256",
          "name": "_tokenId",
          "type": "uint256"
        }
      ],
      "name": "Transfer",
      "type": "event"
    },
    {
      "inputs": [
        {
          "internalType": "uint256",
          "name": "",
          "type": "uint256"
        }
      ],
      "name": "blobToOwner",
      "outputs": [
        {
          "internalType": "address",
          "name": "",
          "type": "address"
        }
      ],
      "stateMutability": "view",
      "type": "function",
      "constant": true
    },
    {
      "inputs": [
        {
          "internalType": "uint256",
          "name": "",
          "type": "uint256"
        }
      ],
      "name": "blobs",
      "outputs": [
        {
          "internalType": "string",
          "name": "name",
          "type": "string"
        },
        {
          "internalType": "uint256",
          "name": "dna",
          "type": "uint256"
        },
        {
          "internalType": "uint32",
          "name": "level",
          "type": "uint32"
        },
        {
          "internalType": "uint32",
          "name": "readyTime",
          "type": "uint32"
        },
        {
          "internalType": "uint16",
          "name": "winCount",
          "type": "uint16"
        },
        {
          "internalType": "uint16",
          "name": "lossCount",
          "type": "uint16"
        }
      ],
      "stateMutability": "view",
      "type": "function",
      "constant": true
    },
    {
      "inputs": [
        {
          "internalType": "string",
          "name": "_name",
          "type": "string"
        }
      ],
      "name": "createRandomBlob",
      "outputs": [],
      "stateMutability": "nonpayable",
      "type": "function"
    },
    {
      "inputs": [
        {
          "internalType": "address",
          "name": "_owner",
          "type": "address"
        }
      ],
      "name": "getBlobsByOwner",
      "outputs": [
        {
          "internalType": "uint256[]",
          "name": "",
          "type": "uint256[]"
        }
      ],
      "stateMutability": "view",
      "type": "function",
      "constant": true
    },
    {
      "inputs": [],
      "name": "isOwner",
      "outputs": [
        {
          "internalType": "bool",
          "name": "",
          "type": "bool"
        }
      ],
      "stateMutability": "view",
      "type": "function",
      "constant": true
    },
    {
      "inputs": [],
      "name": "owner",
      "outputs": [
        {
          "internalType": "address",
          "name": "",
          "type": "address"
        }
      ],
      "stateMutability": "view",
      "type": "function",
      "constant": true
    },
    {
      "inputs": [],
      "name": "renounceOwnership",
      "outputs": [],
      "stateMutability": "nonpayable",
      "type": "function"
    },
    {
      "inputs": [
        {
          "internalType": "address",
          "name": "newOwner",
          "type": "address"
        }
      ],
      "name": "transferOwnership",
      "outputs": [],
      "stateMutability": "nonpayable",
      "type": "function"
    },
    {
      "inputs": [
        {
          "internalType": "address",
          "name": "_owner",
          "type": "address"
        }
      ],
      "name": "balanceOf",
      "outputs": [
        {
          "internalType": "uint256",
          "name": "",
          "type": "uint256"
        }
      ],
      "stateMutability": "view",
      "type": "function",
      "constant": true
    },
    {
      "inputs": [
        {
          "internalType": "uint256",
          "name": "_tokenId",
          "type": "uint256"
        }
      ],
      "name": "ownerOf",
      "outputs": [
        {
          "internalType": "address",
          "name": "",
          "type": "address"
        }
      ],
      "stateMutability": "view",
      "type": "function",
      "constant": true
    },
    {
      "inputs": [
        {
          "internalType": "address",
          "name": "_from",
          "type": "address"
        },
        {
          "internalType": "address",
          "name": "_to",
          "type": "address"
        },
        {
          "internalType": "uint256",
          "name": "_tokenId",
          "type": "uint256"
        }
      ],
      "name": "transferFrom",
      "outputs": [],
      "stateMutability": "payable",
      "type": "function",
      "payable": true
    },
    {
      "inputs": [
        {
          "internalType": "address",
          "name": "_approved",
          "type": "address"
        },
        {
          "internalType": "uint256",
          "name": "_tokenId",
          "type": "uint256"
        }
      ],
      "name": "approve",
      "outputs": [],
      "stateMutability": "payable",
      "type": "function",
      "payable": true
    }
  ],
  "bytecode": "0x60806040526010600155600154600a6200001a919062000283565b600255603c60035560056004553480156200003457600080fd5b50336000806101000a81548173ffffffffffffffffffffffffffffffffffffffff021916908373ffffffffffffffffffffffffffffffffffffffff16021790555060008054906101000a900473ffffffffffffffffffffffffffffffffffffffff1673ffffffffffffffffffffffffffffffffffffffff16600073ffffffffffffffffffffffffffffffffffffffff167f8be0079c531659141344cd1fd0a4f28419497f9722a3daafe3b4186f6b6457e060405160405180910390a3620002d4565b7f4e487b7100000000000000000000000000000000000000000000000000000000600052601160045260246000fd5b60008160011c9050919050565b6000808291508390505b600185111562000184578086048111156200015c576200015b620000f6565b5b60018516156200016c5780820291505b80810290506200017c8562000125565b94506200013c565b94509492505050565b6000826200019f576001905062000272565b81620001af576000905062000272565b8160018114620001c85760028114620001d35762000209565b600191505062000272565b60ff841115620001e857620001e7620000f6565b5b8360020a915084821115620002025762000201620000f6565b5b5062000272565b5060208310610133831016604e8410600b8410161715620002435782820a9050838111156200023d576200023c620000f6565b5b62000272565b62000252848484600162000132565b925090508184048111156200026c576200026b620000f6565b5b81810290505b9392505050565b6000819050919050565b6000620002908262000279565b91506200029d8362000279565b9250620002cc7fffffffffffffffffffffffffffffffffffffffffffffffffffffffffffffffff84846200018d565b905092915050565b6117f380620002e46000396000f3fe6080604052600436106100a75760003560e01c8063715018a611610064578063715018a6146101dd5780637c80f25b146101f45780638da5cb5b1461021d5780638f32d59b14610248578063970bad6f14610273578063f2fde38b146102b0576100a7565b8063095ea7b3146100ac5780631782d473146100c857806323b872dd146101055780632abc3d4e146101215780636352211e1461016357806370a08231146101a0575b600080fd5b6100c660048036038101906100c19190610ffe565b6102d9565b005b3480156100d457600080fd5b506100ef60048036038101906100ea919061103e565b6103f7565b6040516100fc9190611129565b60405180910390f35b61011f600480360381019061011a919061114b565b61054a565b005b34801561012d57600080fd5b506101486004803603810190610143919061119e565b61062e565b60405161015a969594939291906112af565b60405180910390f35b34801561016f57600080fd5b5061018a6004803603810190610185919061119e565b61073e565b6040516101979190611326565b60405180910390f35b3480156101ac57600080fd5b506101c760048036038101906101c2919061103e565b61077b565b6040516101d49190611341565b60405180910390f35b3480156101e957600080fd5b506101f26107c4565b005b34801561020057600080fd5b5061021b60048036038101906102169190611491565b610893565b005b34801561022957600080fd5b50610232610915565b60405161023f9190611326565b60405180910390f35b34801561025457600080fd5b5061025d61093e565b60405161026a91906114f5565b60405180910390f35b34801561027f57600080fd5b5061029a6004803603810190610295919061119e565b610995565b6040516102a79190611326565b60405180910390f35b3480156102bc57600080fd5b506102d760048036038101906102d2919061103e565b6109c8565b005b806006600082815260200190815260200160002060009054906101000a900473ffffffffffffffffffffffffffffffffffffffff1673ffffffffffffffffffffffffffffffffffffffff163373ffffffffffffffffffffffffffffffffffffffff161461034557600080fd5b826008600084815260200190815260200160002060006101000a81548173ffffffffffffffffffffffffffffffffffffffff021916908373ffffffffffffffffffffffffffffffffffffffff160217905550818373ffffffffffffffffffffffffffffffffffffffff163373ffffffffffffffffffffffffffffffffffffffff167f8c5be1e5ebec7d5bd14f71427d1e84f3dd0314c0f7b2291e5b200ac8c7c3b92560405160405180910390a4505050565b60606000600760008473ffffffffffffffffffffffffffffffffffffffff1673ffffffffffffffffffffffffffffffffffffffff1681526020019081526020016000205467ffffffffffffffff81111561045457610453611366565b5b6040519080825280602002602001820160405280156104825781602001602082028036833780820191505090505b5090506000805b60058054905081101561053f578473ffffffffffffffffffffffffffffffffffffffff166006600083815260200190815260200160002060009054906101000a900473ffffffffffffffffffffffffffffffffffffffff1673ffffffffffffffffffffffffffffffffffffffff16141561052c578083838151811061051157610510611510565b5b60200260200101818152505081806105289061156e565b9250505b80806105379061156e565b915050610489565b508192505050919050565b3373ffffffffffffffffffffffffffffffffffffffff166006600083815260200190815260200160002060009054906101000a900473ffffffffffffffffffffffffffffffffffffffff1673ffffffffffffffffffffffffffffffffffffffff16148061061557503373ffffffffffffffffffffffffffffffffffffffff166008600083815260200190815260200160002060009054906101000a900473ffffffffffffffffffffffffffffffffffffffff1673ffffffffffffffffffffffffffffffffffffffff16145b61061e57600080fd5b6106298383836109e5565b505050565b6005818154811061063e57600080fd5b9060005260206000209060030201600091509050806000018054610661906115e6565b80601f016020809104026020016040519081016040528092919081815260200182805461068d906115e6565b80156106da5780601f106106af576101008083540402835291602001916106da565b820191906000526020600020905b8154815290600101906020018083116106bd57829003601f168201915b5050505050908060010154908060020160009054906101000a900463ffffffff16908060020160049054906101000a900463ffffffff16908060020160089054906101000a900461ffff169080600201600a9054906101000a900461ffff16905086565b60006006600083815260200190815260200160002060009054906101000a900473ffffffffffffffffffffffffffffffffffffffff169050919050565b6000600760008373ffffffffffffffffffffffffffffffffffffffff1673ffffffffffffffffffffffffffffffffffffffff168152602001908152602001600020549050919050565b6107cc61093e565b6107d557600080fd5b600073ffffffffffffffffffffffffffffffffffffffff1660008054906101000a900473ffffffffffffffffffffffffffffffffffffffff1673ffffffffffffffffffffffffffffffffffffffff167f8be0079c531659141344cd1fd0a4f28419497f9722a3daafe3b4186f6b6457e060405160405180910390a360008060006101000a81548173ffffffffffffffffffffffffffffffffffffffff021916908373ffffffffffffffffffffffffffffffffffffffff160217905550565b600454600760003373ffffffffffffffffffffffffffffffffffffffff1673ffffffffffffffffffffffffffffffffffffffff16815260200190815260200160002054106108e057600080fd5b60006108eb82610b41565b90506064816108fa9190611647565b816109059190611678565b90506109118282610b86565b5050565b60008060009054906101000a900473ffffffffffffffffffffffffffffffffffffffff16905090565b60008060009054906101000a900473ffffffffffffffffffffffffffffffffffffffff1673ffffffffffffffffffffffffffffffffffffffff163373ffffffffffffffffffffffffffffffffffffffff1614905090565b60066020528060005260406000206000915054906101000a900473ffffffffffffffffffffffffffffffffffffffff1681565b6109d061093e565b6109d957600080fd5b6109e281610dbc565b50565b600760008373ffffffffffffffffffffffffffffffffffffffff1673ffffffffffffffffffffffffffffffffffffffff1681526020019081526020016000206000815480929190610a359061156e565b9190505550600760003373ffffffffffffffffffffffffffffffffffffffff1673ffffffffffffffffffffffffffffffffffffffff1681526020019081526020016000206000815480929190610a8a906116ac565b9190505550816006600083815260200190815260200160002060006101000a81548173ffffffffffffffffffffffffffffffffffffffff021916908373ffffffffffffffffffffffffffffffffffffffff160217905550808273ffffffffffffffffffffffffffffffffffffffff168473ffffffffffffffffffffffffffffffffffffffff167fddf252ad1be2c89b69c2b068fc378daa952ba7f163c4a11628f55a4df523b3ef60405160405180910390a4505050565b60008082604051602001610b559190611712565b6040516020818303038152906040528051906020012060001c905060025481610b7e9190611647565b915050919050565b60056040518060c00160405280848152602001838152602001600163ffffffff16815260200160035442610bba9190611729565b63ffffffff168152602001600061ffff168152602001600061ffff1681525090806001815401808255809150506001900390600052602060002090600302016000909190919091506000820151816000019080519060200190610c1e929190610eb3565b506020820151816001015560408201518160020160006101000a81548163ffffffff021916908363ffffffff16021790555060608201518160020160046101000a81548163ffffffff021916908363ffffffff16021790555060808201518160020160086101000a81548161ffff021916908361ffff16021790555060a082015181600201600a6101000a81548161ffff021916908361ffff160217905550505060006001600580549050610cd39190611678565b9050336006600083815260200190815260200160002060006101000a81548173ffffffffffffffffffffffffffffffffffffffff021916908373ffffffffffffffffffffffffffffffffffffffff160217905550600760003373ffffffffffffffffffffffffffffffffffffffff1673ffffffffffffffffffffffffffffffffffffffff1681526020019081526020016000206000815480929190610d779061156e565b91905055507f83253f07cdb88c445d046dda4df8617f3a41ce4ed98c1fa8e5e5236ad9dd2ed6818484604051610daf9392919061177f565b60405180910390a1505050565b600073ffffffffffffffffffffffffffffffffffffffff168173ffffffffffffffffffffffffffffffffffffffff161415610df657600080fd5b8073ffffffffffffffffffffffffffffffffffffffff1660008054906101000a900473ffffffffffffffffffffffffffffffffffffffff1673ffffffffffffffffffffffffffffffffffffffff167f8be0079c531659141344cd1fd0a4f28419497f9722a3daafe3b4186f6b6457e060405160405180910390a3806000806101000a81548173ffffffffffffffffffffffffffffffffffffffff021916908373ffffffffffffffffffffffffffffffffffffffff16021790555050565b828054610ebf906115e6565b90600052602060002090601f016020900481019282610ee15760008555610f28565b82601f10610efa57805160ff1916838001178555610f28565b82800160010185558215610f28579182015b82811115610f27578251825591602001919060010190610f0c565b5b509050610f359190610f39565b5090565b5b80821115610f52576000816000905550600101610f3a565b5090565b6000604051905090565b600080fd5b600080fd5b600073ffffffffffffffffffffffffffffffffffffffff82169050919050565b6000610f9582610f6a565b9050919050565b610fa581610f8a565b8114610fb057600080fd5b50565b600081359050610fc281610f9c565b92915050565b6000819050919050565b610fdb81610fc8565b8114610fe657600080fd5b50565b600081359050610ff881610fd2565b92915050565b6000806040838503121561101557611014610f60565b5b600061102385828601610fb3565b925050602061103485828601610fe9565b9150509250929050565b60006020828403121561105457611053610f60565b5b600061106284828501610fb3565b91505092915050565b600081519050919050565b600082825260208201905092915050565b6000819050602082019050919050565b6110a081610fc8565b82525050565b60006110b28383611097565b60208301905092915050565b6000602082019050919050565b60006110d68261106b565b6110e08185611076565b93506110eb83611087565b8060005b8381101561111c57815161110388826110a6565b975061110e836110be565b9250506001810190506110ef565b5085935050505092915050565b6000602082019050818103600083015261114381846110cb565b905092915050565b60008060006060848603121561116457611163610f60565b5b600061117286828701610fb3565b935050602061118386828701610fb3565b925050604061119486828701610fe9565b9150509250925092565b6000602082840312156111b4576111b3610f60565b5b60006111c284828501610fe9565b91505092915050565b600081519050919050565b600082825260208201905092915050565b60005b838110156112055780820151818401526020810190506111ea565b83811115611214576000848401525b50505050565b6000601f19601f8301169050919050565b6000611236826111cb565b61124081856111d6565b93506112508185602086016111e7565b6112598161121a565b840191505092915050565b61126d81610fc8565b82525050565b600063ffffffff82169050919050565b61128c81611273565b82525050565b600061ffff82169050919050565b6112a981611292565b82525050565b600060c08201905081810360008301526112c9818961122b565b90506112d86020830188611264565b6112e56040830187611283565b6112f26060830186611283565b6112ff60808301856112a0565b61130c60a08301846112a0565b979650505050505050565b61132081610f8a565b82525050565b600060208201905061133b6000830184611317565b92915050565b60006020820190506113566000830184611264565b92915050565b600080fd5b600080fd5b7f4e487b7100000000000000000000000000000000000000000000000000000000600052604160045260246000fd5b61139e8261121a565b810181811067ffffffffffffffff821117156113bd576113bc611366565b5b80604052505050565b60006113d0610f56565b90506113dc8282611395565b919050565b600067ffffffffffffffff8211156113fc576113fb611366565b5b6114058261121a565b9050602081019050919050565b82818337600083830152505050565b600061143461142f846113e1565b6113c6565b9050828152602081018484840111156114505761144f611361565b5b61145b848285611412565b509392505050565b600082601f8301126114785761147761135c565b5b8135611488848260208601611421565b91505092915050565b6000602082840312156114a7576114a6610f60565b5b600082013567ffffffffffffffff8111156114c5576114c4610f65565b5b6114d184828501611463565b91505092915050565b60008115159050919050565b6114ef816114da565b82525050565b600060208201905061150a60008301846114e6565b92915050565b7f4e487b7100000000000000000000000000000000000000000000000000000000600052603260045260246000fd5b7f4e487b7100000000000000000000000000000000000000000000000000000000600052601160045260246000fd5b600061157982610fc8565b91507fffffffffffffffffffffffffffffffffffffffffffffffffffffffffffffffff8214156115ac576115ab61153f565b5b600182019050919050565b7f4e487b7100000000000000000000000000000000000000000000000000000000600052602260045260246000fd5b600060028204905060018216806115fe57607f821691505b60208210811415611612576116116115b7565b5b50919050565b7f4e487b7100000000000000000000000000000000000000000000000000000000600052601260045260246000fd5b600061165282610fc8565b915061165d83610fc8565b92508261166d5761166c611618565b5b828206905092915050565b600061168382610fc8565b915061168e83610fc8565b9250828210156116a1576116a061153f565b5b828203905092915050565b60006116b782610fc8565b915060008214156116cb576116ca61153f565b5b600182039050919050565b600081905092915050565b60006116ec826111cb565b6116f681856116d6565b93506117068185602086016111e7565b80840191505092915050565b600061171e82846116e1565b915081905092915050565b600061173482610fc8565b915061173f83610fc8565b9250827fffffffffffffffffffffffffffffffffffffffffffffffffffffffffffffffff038211156117745761177361153f565b5b828201905092915050565b60006060820190506117946000830186611264565b81810360208301526117a6818561122b565b90506117b56040830184611264565b94935050505056fea2646970667358221220be4ff07a7df06c014db81945866007fe6b01924bfd56b37d9ff78b686e60465a64736f6c63430008090033",
  "immutableReferences": {},
  "source": "pragma solidity >=0.8.9;\n\n// SPDX-License-Identifier: UNLICENSED\n\nimport \"./BlobHelper.sol\";\nimport \"./erc721.sol\";\nimport \"./safemath.sol\";\n\n/// @author Thomas Sauvajon\n/// @dev Compliant with OpenZeppelin's implementation of the ERC721 spec draft\ncontract CryptoBlobs is BlobHelper, ERC721 {\n    using SafeMath for uint256;\n\n    mapping(uint256 => address) blobApprovals;\n\n    modifier onlyOwnerOf(uint256 _blobId) {\n        require(msg.sender == blobToOwner[_blobId]);\n        _;\n    }\n\n    function balanceOf(address _owner) external view returns (uint256) {\n        return ownerBlobCount[_owner];\n    }\n\n    function ownerOf(uint256 _tokenId) external view returns (address) {\n        return blobToOwner[_tokenId];\n    }\n\n    function _transfer(\n        address _from,\n        address _to,\n        uint256 _tokenId\n    ) private {\n        ownerBlobCount[_to]++;\n        ownerBlobCount[msg.sender]--;\n        blobToOwner[_tokenId] = _to;\n        emit Transfer(_from, _to, _tokenId);\n    }\n\n    function transferFrom(\n        address _from,\n        address _to,\n        uint256 _tokenId\n    ) external payable {\n        require(\n            blobToOwner[_tokenId] == msg.sender ||\n                blobApprovals[_tokenId] == msg.sender\n        );\n        _transfer(_from, _to, _tokenId);\n    }\n\n    function approve(address _approved, uint256 _tokenId)\n        external\n        payable\n        onlyOwnerOf(_tokenId)\n    {\n        blobApprovals[_tokenId] = _approved;\n        emit Approval(msg.sender, _approved, _tokenId);\n    }\n}\n",
  "sourcePath": "/Users/thomas/dev/cryptoblobs/contracts/CryptoBlobs.sol",
  "compiler": {
    "name": "solc",
    "version": "0.8.9+commit.e5eed63a.Emscripten.clang"
  },
  "schemaVersion": "3.4.3",
  "updatedAt": "2021-10-23T14:00:03.549Z",
  "networkType": "ethereum",
  "devdoc": {
    "author": "Thomas Sauvajon",
    "details": "Compliant with OpenZeppelin's implementation of the ERC721 spec draft",
    "kind": "dev",
    "methods": {
      "isOwner()": {
        "returns": {
          "_0": "true if `msg.sender` is the owner of the contract."
        }
      },
      "owner()": {
        "returns": {
          "_0": "the address of the owner."
        }
      },
      "renounceOwnership()": {
        "details": "Allows the current owner to relinquish control of the contract."
      },
      "transferOwnership(address)": {
        "details": "Allows the current owner to transfer control of the contract to a newOwner.",
        "params": {
          "newOwner": "The address to transfer ownership to."
        }
      }
    },
    "version": 1
  },
  "userdoc": {
    "kind": "user",
    "methods": {
      "renounceOwnership()": {
        "notice": "Renouncing to ownership will leave the contract without an owner. It will not be possible to call the functions with the `onlyOwner` modifier anymore."
      }
    },
    "version": 1
  }
}