{
  "contractName": "CryptoBlobs",
  "abi": [
    {
      "anonymous": false,
      "inputs": [
        {
          "indexed": true,
          "internalType": "address",
          "name": "_owner",
          "type": "address"
        },
        {
          "indexed": true,
          "internalType": "address",
          "name": "_approved",
          "type": "address"
        },
        {
          "indexed": true,
          "internalType": "uint256",
          "name": "_tokenId",
          "type": "uint256"
        }
      ],
      "name": "Approval",
      "type": "event"
    },
    {
      "anonymous": false,
      "inputs": [
        {
          "indexed": false,
          "internalType": "uint256",
          "name": "blobId",
          "type": "uint256"
        },
        {
          "indexed": false,
          "internalType": "string",
          "name": "name",
          "type": "string"
        },
        {
          "indexed": false,
          "internalType": "uint256",
          "name": "dna",
          "type": "uint256"
        }
      ],
      "name": "NewBlob",
      "type": "event"
    },
    {
      "anonymous": false,
      "inputs": [
        {
          "indexed": true,
          "internalType": "address",
          "name": "previousOwner",
          "type": "address"
        },
        {
          "indexed": true,
          "internalType": "address",
          "name": "newOwner",
          "type": "address"
        }
      ],
      "name": "OwnershipTransferred",
      "type": "event"
    },
    {
      "anonymous": false,
      "inputs": [
        {
          "indexed": true,
          "internalType": "address",
          "name": "_from",
          "type": "address"
        },
        {
          "indexed": true,
          "internalType": "address",
          "name": "_to",
          "type": "address"
        },
        {
          "indexed": true,
          "internalType": "uint256",
          "name": "_tokenId",
          "type": "uint256"
        }
      ],
      "name": "Transfer",
      "type": "event"
    },
    {
      "inputs": [
        {
          "internalType": "uint256",
          "name": "_blobId",
          "type": "uint256"
        },
        {
          "internalType": "uint256",
          "name": "_targetId",
          "type": "uint256"
        }
      ],
      "name": "attack",
      "outputs": [],
      "stateMutability": "nonpayable",
      "type": "function"
    },
    {
      "inputs": [
        {
          "internalType": "uint256",
          "name": "",
          "type": "uint256"
        }
      ],
      "name": "blobToOwner",
      "outputs": [
        {
          "internalType": "address",
          "name": "",
          "type": "address"
        }
      ],
      "stateMutability": "view",
      "type": "function",
      "constant": true
    },
    {
      "inputs": [
        {
          "internalType": "uint256",
          "name": "",
          "type": "uint256"
        }
      ],
      "name": "blobs",
      "outputs": [
        {
          "internalType": "string",
          "name": "name",
          "type": "string"
        },
        {
          "internalType": "uint256",
          "name": "dna",
          "type": "uint256"
        },
        {
          "internalType": "uint32",
          "name": "level",
          "type": "uint32"
        },
        {
          "internalType": "uint32",
          "name": "readyTime",
          "type": "uint32"
        },
        {
          "internalType": "uint16",
          "name": "winCount",
          "type": "uint16"
        },
        {
          "internalType": "uint16",
          "name": "lossCount",
          "type": "uint16"
        }
      ],
      "stateMutability": "view",
      "type": "function",
      "constant": true
    },
    {
      "inputs": [
        {
          "internalType": "uint256",
          "name": "_blobId",
          "type": "uint256"
        },
        {
          "internalType": "uint256",
          "name": "_newDna",
          "type": "uint256"
        }
      ],
      "name": "changeDna",
      "outputs": [],
      "stateMutability": "nonpayable",
      "type": "function"
    },
    {
      "inputs": [
        {
          "internalType": "uint256",
          "name": "_blobId",
          "type": "uint256"
        },
        {
          "internalType": "string",
          "name": "_newName",
          "type": "string"
        }
      ],
      "name": "changeName",
      "outputs": [],
      "stateMutability": "nonpayable",
      "type": "function"
    },
    {
      "inputs": [
        {
          "internalType": "string",
          "name": "_name",
          "type": "string"
        }
      ],
      "name": "createRandomBlob",
      "outputs": [],
      "stateMutability": "nonpayable",
      "type": "function"
    },
    {
      "inputs": [
        {
          "internalType": "uint256",
          "name": "_blobId",
          "type": "uint256"
        },
        {
          "internalType": "uint256",
          "name": "_kittyId",
          "type": "uint256"
        }
      ],
      "name": "feedOnKitty",
      "outputs": [],
      "stateMutability": "nonpayable",
      "type": "function"
    },
    {
      "inputs": [
        {
          "internalType": "address",
          "name": "_owner",
          "type": "address"
        }
      ],
      "name": "getBlobsByOwner",
      "outputs": [
        {
          "internalType": "uint256[]",
          "name": "",
          "type": "uint256[]"
        }
      ],
      "stateMutability": "view",
      "type": "function",
      "constant": true
    },
    {
      "inputs": [],
      "name": "isOwner",
      "outputs": [
        {
          "internalType": "bool",
          "name": "",
          "type": "bool"
        }
      ],
      "stateMutability": "view",
      "type": "function",
      "constant": true
    },
    {
      "inputs": [
        {
          "internalType": "uint256",
          "name": "_blobId",
          "type": "uint256"
        }
      ],
      "name": "levelUp",
      "outputs": [],
      "stateMutability": "payable",
      "type": "function",
      "payable": true
    },
    {
      "inputs": [],
      "name": "owner",
      "outputs": [
        {
          "internalType": "address",
          "name": "",
          "type": "address"
        }
      ],
      "stateMutability": "view",
      "type": "function",
      "constant": true
    },
    {
      "inputs": [],
      "name": "renounceOwnership",
      "outputs": [],
      "stateMutability": "nonpayable",
      "type": "function"
    },
    {
      "inputs": [
        {
          "internalType": "address",
          "name": "_address",
          "type": "address"
        }
      ],
      "name": "setKittyContractAddress",
      "outputs": [],
      "stateMutability": "nonpayable",
      "type": "function"
    },
    {
      "inputs": [
        {
          "internalType": "uint256",
          "name": "_fee",
          "type": "uint256"
        }
      ],
      "name": "setLevelUpFee",
      "outputs": [],
      "stateMutability": "nonpayable",
      "type": "function"
    },
    {
      "inputs": [
        {
          "internalType": "address",
          "name": "newOwner",
          "type": "address"
        }
      ],
      "name": "transferOwnership",
      "outputs": [],
      "stateMutability": "nonpayable",
      "type": "function"
    },
    {
      "inputs": [],
      "name": "withdraw",
      "outputs": [],
      "stateMutability": "nonpayable",
      "type": "function"
    },
    {
      "inputs": [
        {
          "internalType": "address",
          "name": "_owner",
          "type": "address"
        }
      ],
      "name": "balanceOf",
      "outputs": [
        {
          "internalType": "uint256",
          "name": "",
          "type": "uint256"
        }
      ],
      "stateMutability": "view",
      "type": "function",
      "constant": true
    },
    {
      "inputs": [
        {
          "internalType": "uint256",
          "name": "_tokenId",
          "type": "uint256"
        }
      ],
      "name": "ownerOf",
      "outputs": [
        {
          "internalType": "address",
          "name": "",
          "type": "address"
        }
      ],
      "stateMutability": "view",
      "type": "function",
      "constant": true
    },
    {
      "inputs": [
        {
          "internalType": "address",
          "name": "_from",
          "type": "address"
        },
        {
          "internalType": "address",
          "name": "_to",
          "type": "address"
        },
        {
          "internalType": "uint256",
          "name": "_tokenId",
          "type": "uint256"
        }
      ],
      "name": "transferFrom",
      "outputs": [],
      "stateMutability": "payable",
      "type": "function",
      "payable": true
    },
    {
      "inputs": [
        {
          "internalType": "address",
          "name": "_approved",
          "type": "address"
        },
        {
          "internalType": "uint256",
          "name": "_tokenId",
          "type": "uint256"
        }
      ],
      "name": "approve",
      "outputs": [],
      "stateMutability": "payable",
      "type": "function",
      "payable": true
    }
  ],
  "bytecode": "0x60806040526010600155600154600a6200001a919062000298565b600255603c600355600560045566038d7ea4c680006009556000600a556046600b553480156200004957600080fd5b50336000806101000a81548173ffffffffffffffffffffffffffffffffffffffff021916908373ffffffffffffffffffffffffffffffffffffffff16021790555060008054906101000a900473ffffffffffffffffffffffffffffffffffffffff1673ffffffffffffffffffffffffffffffffffffffff16600073ffffffffffffffffffffffffffffffffffffffff167f8be0079c531659141344cd1fd0a4f28419497f9722a3daafe3b4186f6b6457e060405160405180910390a3620002e9565b7f4e487b7100000000000000000000000000000000000000000000000000000000600052601160045260246000fd5b60008160011c9050919050565b6000808291508390505b600185111562000199578086048111156200017157620001706200010b565b5b6001851615620001815780820291505b808102905062000191856200013a565b945062000151565b94509492505050565b600082620001b4576001905062000287565b81620001c4576000905062000287565b8160018114620001dd5760028114620001e8576200021e565b600191505062000287565b60ff841115620001fd57620001fc6200010b565b5b8360020a9150848211156200021757620002166200010b565b5b5062000287565b5060208310610133831016604e8410600b8410161715620002585782820a9050838111156200025257620002516200010b565b5b62000287565b62000267848484600162000147565b925090508184048111156200028157620002806200010b565b5b81810290505b9392505050565b6000819050919050565b6000620002a5826200028e565b9150620002b2836200028e565b9250620002e17fffffffffffffffffffffffffffffffffffffffffffffffffffffffffffffffff8484620001a2565b905092915050565b61280880620002f96000396000f3fe60806040526004361061011f5760003560e01c806370a08231116100a0578063970bad6f11610064578063970bad6f14610399578063c39cbef1146103d6578063ccf670f8146103ff578063e1fa763814610428578063f2fde38b146104515761011f565b806370a08231146102c6578063715018a6146103035780637c80f25b1461031a5780638da5cb5b146103435780638f32d59b1461036e5761011f565b80632abc3d4e116100e75780632abc3d4e146101de5780633ccfd60b146102205780635f4623f1146102375780635faf2880146102605780636352211e146102895761011f565b8063095ea7b3146101245780630ce90ec2146101405780631782d4731461015c57806317a7f4cc1461019957806323b872dd146101c2575b600080fd5b61013e60048036038101906101399190611c24565b61047a565b005b61015a60048036038101906101559190611c64565b610598565b005b34801561016857600080fd5b50610183600480360381019061017e9190611c91565b61062e565b6040516101909190611d7c565b60405180910390f35b3480156101a557600080fd5b506101c060048036038101906101bb9190611d9e565b610781565b005b6101dc60048036038101906101d79190611dde565b6108ae565b005b3480156101ea57600080fd5b5061020560048036038101906102009190611c64565b610992565b60405161021796959493929190611f15565b60405180910390f35b34801561022c57600080fd5b50610235610aa2565b005b34801561024357600080fd5b5061025e60048036038101906102599190611c91565b610b09565b005b34801561026c57600080fd5b5061028760048036038101906102829190611d9e565b610b5e565b005b34801561029557600080fd5b506102b060048036038101906102ab9190611c64565b610c46565b6040516102bd9190611f8c565b60405180910390f35b3480156102d257600080fd5b506102ed60048036038101906102e89190611c91565b610c83565b6040516102fa9190611fa7565b60405180910390f35b34801561030f57600080fd5b50610318610ccc565b005b34801561032657600080fd5b50610341600480360381019061033c91906120f7565b610d9b565b005b34801561034f57600080fd5b50610358610e1d565b6040516103659190611f8c565b60405180910390f35b34801561037a57600080fd5b50610383610e46565b604051610390919061215b565b60405180910390f35b3480156103a557600080fd5b506103c060048036038101906103bb9190611c64565b610e9d565b6040516103cd9190611f8c565b60405180910390f35b3480156103e257600080fd5b506103fd60048036038101906103f891906121d6565b610ed0565b005b34801561040b57600080fd5b5061042660048036038101906104219190611c64565b610fc4565b005b34801561043457600080fd5b5061044f600480360381019061044a9190611d9e565b610fdf565b005b34801561045d57600080fd5b5061047860048036038101906104739190611c91565b611240565b005b806006600082815260200190815260200160002060009054906101000a900473ffffffffffffffffffffffffffffffffffffffff1673ffffffffffffffffffffffffffffffffffffffff163373ffffffffffffffffffffffffffffffffffffffff16146104e657600080fd5b82600c600084815260200190815260200160002060006101000a81548173ffffffffffffffffffffffffffffffffffffffff021916908373ffffffffffffffffffffffffffffffffffffffff160217905550818373ffffffffffffffffffffffffffffffffffffffff163373ffffffffffffffffffffffffffffffffffffffff167f8c5be1e5ebec7d5bd14f71427d1e84f3dd0314c0f7b2291e5b200ac8c7c3b92560405160405180910390a4505050565b60095434146105a657600080fd5b6001600582815481106105bc576105bb612236565b5b906000526020600020906003020160020160009054906101000a900463ffffffff166105e89190612294565b600582815481106105fc576105fb612236565b5b906000526020600020906003020160020160006101000a81548163ffffffff021916908363ffffffff16021790555050565b60606000600760008473ffffffffffffffffffffffffffffffffffffffff1673ffffffffffffffffffffffffffffffffffffffff1681526020019081526020016000205467ffffffffffffffff81111561068b5761068a611fcc565b5b6040519080825280602002602001820160405280156106b95781602001602082028036833780820191505090505b5090506000805b600580549050811015610776578473ffffffffffffffffffffffffffffffffffffffff166006600083815260200190815260200160002060009054906101000a900473ffffffffffffffffffffffffffffffffffffffff1673ffffffffffffffffffffffffffffffffffffffff161415610763578083838151811061074857610747612236565b5b602002602001018181525050818061075f906122ce565b9250505b808061076e906122ce565b9150506106c0565b508192505050919050565b6000600860009054906101000a900473ffffffffffffffffffffffffffffffffffffffff1673ffffffffffffffffffffffffffffffffffffffff1663e98b7f4d836040518263ffffffff1660e01b81526004016107de9190611fa7565b6101406040518083038186803b1580156107f757600080fd5b505afa15801561080b573d6000803e3d6000fd5b505050506040513d601f19601f8201168201806040525081019061082f9190612358565b909192939495969798509091929394959697509091929394959650909192939495509091929394509091929350909192509091509050809150506108a983826040518060400160405280600581526020017f6b6974747900000000000000000000000000000000000000000000000000000081525061125d565b505050565b3373ffffffffffffffffffffffffffffffffffffffff166006600083815260200190815260200160002060009054906101000a900473ffffffffffffffffffffffffffffffffffffffff1673ffffffffffffffffffffffffffffffffffffffff16148061097957503373ffffffffffffffffffffffffffffffffffffffff16600c600083815260200190815260200160002060009054906101000a900473ffffffffffffffffffffffffffffffffffffffff1673ffffffffffffffffffffffffffffffffffffffff16145b61098257600080fd5b61098d8383836113fa565b505050565b600581815481106109a257600080fd5b90600052602060002090600302016000915090508060000180546109c590612466565b80601f01602080910402602001604051908101604052809291908181526020018280546109f190612466565b8015610a3e5780601f10610a1357610100808354040283529160200191610a3e565b820191906000526020600020905b815481529060010190602001808311610a2157829003601f168201915b5050505050908060010154908060020160009054906101000a900463ffffffff16908060020160049054906101000a900463ffffffff16908060020160089054906101000a900461ffff169080600201600a9054906101000a900461ffff16905086565b610aaa610e46565b610ab357600080fd5b6000610abd610e1d565b90508073ffffffffffffffffffffffffffffffffffffffff166108fc479081150290604051600060405180830381858888f19350505050158015610b05573d6000803e3d6000fd5b5050565b610b11610e46565b610b1a57600080fd5b80600860006101000a81548173ffffffffffffffffffffffffffffffffffffffff021916908373ffffffffffffffffffffffffffffffffffffffff16021790555050565b6014828160058281548110610b7657610b75612236565b5b906000526020600020906003020160020160009054906101000a900463ffffffff1663ffffffff161015610ba957600080fd5b836006600082815260200190815260200160002060009054906101000a900473ffffffffffffffffffffffffffffffffffffffff1673ffffffffffffffffffffffffffffffffffffffff163373ffffffffffffffffffffffffffffffffffffffff1614610c1557600080fd5b8360058681548110610c2a57610c29612236565b5b9060005260206000209060030201600101819055505050505050565b60006006600083815260200190815260200160002060009054906101000a900473ffffffffffffffffffffffffffffffffffffffff169050919050565b6000600760008373ffffffffffffffffffffffffffffffffffffffff1673ffffffffffffffffffffffffffffffffffffffff168152602001908152602001600020549050919050565b610cd4610e46565b610cdd57600080fd5b600073ffffffffffffffffffffffffffffffffffffffff1660008054906101000a900473ffffffffffffffffffffffffffffffffffffffff1673ffffffffffffffffffffffffffffffffffffffff167f8be0079c531659141344cd1fd0a4f28419497f9722a3daafe3b4186f6b6457e060405160405180910390a360008060006101000a81548173ffffffffffffffffffffffffffffffffffffffff021916908373ffffffffffffffffffffffffffffffffffffffff160217905550565b600454600760003373ffffffffffffffffffffffffffffffffffffffff1673ffffffffffffffffffffffffffffffffffffffff1681526020019081526020016000205410610de857600080fd5b6000610df3826115d8565b9050606481610e0291906124c7565b81610e0d91906124f8565b9050610e19828261161d565b5050565b60008060009054906101000a900473ffffffffffffffffffffffffffffffffffffffff16905090565b60008060009054906101000a900473ffffffffffffffffffffffffffffffffffffffff1673ffffffffffffffffffffffffffffffffffffffff163373ffffffffffffffffffffffffffffffffffffffff1614905090565b60066020528060005260406000206000915054906101000a900473ffffffffffffffffffffffffffffffffffffffff1681565b6002838160058281548110610ee857610ee7612236565b5b906000526020600020906003020160020160009054906101000a900463ffffffff1663ffffffff161015610f1b57600080fd5b846006600082815260200190815260200160002060009054906101000a900473ffffffffffffffffffffffffffffffffffffffff1673ffffffffffffffffffffffffffffffffffffffff163373ffffffffffffffffffffffffffffffffffffffff1614610f8757600080fd5b848460058881548110610f9d57610f9c612236565b5b90600052602060002090600302016000019190610fbb929190611a53565b50505050505050565b610fcc610e46565b610fd557600080fd5b8060098190555050565b816006600082815260200190815260200160002060009054906101000a900473ffffffffffffffffffffffffffffffffffffffff1673ffffffffffffffffffffffffffffffffffffffff163373ffffffffffffffffffffffffffffffffffffffff161461104b57600080fd5b60006005848154811061106157611060612236565b5b9060005260206000209060030201905060006005848154811061108757611086612236565b5b9060005260206000209060030201905060006110a36064611853565b9050600b5481116111b45782600201600881819054906101000a900461ffff16809291906110d09061252c565b91906101000a81548161ffff021916908361ffff1602179055505082600201600081819054906101000a900463ffffffff168092919061110f90612557565b91906101000a81548163ffffffff021916908363ffffffff1602179055505081600201600a81819054906101000a900461ffff16809291906111509061252c565b91906101000a81548161ffff021916908361ffff160217905550506111af8683600101546040518060400160405280600481526020017f626c6f620000000000000000000000000000000000000000000000000000000081525061125d565b611238565b82600201600a81819054906101000a900461ffff16809291906111d69061252c565b91906101000a81548161ffff021916908361ffff1602179055505081600201600881819054906101000a900461ffff16809291906112139061252c565b91906101000a81548161ffff021916908361ffff16021790555050611237836118af565b5b505050505050565b611248610e46565b61125157600080fd5b61125a816118e2565b50565b826006600082815260200190815260200160002060009054906101000a900473ffffffffffffffffffffffffffffffffffffffff1673ffffffffffffffffffffffffffffffffffffffff163373ffffffffffffffffffffffffffffffffffffffff16146112c957600080fd5b6000600585815481106112df576112de612236565b5b906000526020600020906003020190506112f8816119d9565b61130157600080fd5b6002548461130f91906124c7565b9350600060028583600101546113259190612584565b61132f91906125da565b905060405160200161134090612662565b604051602081830303815290604052805190602001208460405160200161136791906126a8565b6040516020818303038152906040528051906020012014156113aa57606360648261139291906124c7565b8261139d91906124f8565b6113a79190612584565b90505b6113e96040518060400160405280600681526020017f4e6f4e616d6500000000000000000000000000000000000000000000000000008152508261161d565b6113f2826118af565b505050505050565b61144d6001600760008573ffffffffffffffffffffffffffffffffffffffff1673ffffffffffffffffffffffffffffffffffffffff16815260200190815260200160002054611a0090919063ffffffff16565b600760008473ffffffffffffffffffffffffffffffffffffffff1673ffffffffffffffffffffffffffffffffffffffff168152602001908152602001600020819055506114e36001600760003373ffffffffffffffffffffffffffffffffffffffff1673ffffffffffffffffffffffffffffffffffffffff16815260200190815260200160002054611a2c90919063ffffffff16565b600760003373ffffffffffffffffffffffffffffffffffffffff1673ffffffffffffffffffffffffffffffffffffffff16815260200190815260200160002081905550816006600083815260200190815260200160002060006101000a81548173ffffffffffffffffffffffffffffffffffffffff021916908373ffffffffffffffffffffffffffffffffffffffff160217905550808273ffffffffffffffffffffffffffffffffffffffff168473ffffffffffffffffffffffffffffffffffffffff167fddf252ad1be2c89b69c2b068fc378daa952ba7f163c4a11628f55a4df523b3ef60405160405180910390a4505050565b600080826040516020016115ec91906126a8565b6040516020818303038152906040528051906020012060001c90506002548161161591906124c7565b915050919050565b60056040518060c00160405280848152602001838152602001600163ffffffff168152602001600354426116519190612584565b63ffffffff168152602001600061ffff168152602001600061ffff16815250908060018154018082558091505060019003906000526020600020906003020160009091909190915060008201518160000190805190602001906116b5929190611ad9565b506020820151816001015560408201518160020160006101000a81548163ffffffff021916908363ffffffff16021790555060608201518160020160046101000a81548163ffffffff021916908363ffffffff16021790555060808201518160020160086101000a81548161ffff021916908361ffff16021790555060a082015181600201600a6101000a81548161ffff021916908361ffff16021790555050506000600160058054905061176a91906124f8565b9050336006600083815260200190815260200160002060006101000a81548173ffffffffffffffffffffffffffffffffffffffff021916908373ffffffffffffffffffffffffffffffffffffffff160217905550600760003373ffffffffffffffffffffffffffffffffffffffff1673ffffffffffffffffffffffffffffffffffffffff168152602001908152602001600020600081548092919061180e906122ce565b91905055507f83253f07cdb88c445d046dda4df8617f3a41ce4ed98c1fa8e5e5236ad9dd2ed6818484604051611846939291906126bf565b60405180910390a1505050565b6000600a6000815480929190611868906122ce565b9190505550814233600a5460405160200161188593929190612766565b6040516020818303038152906040528051906020012060001c6118a891906124c7565b9050919050565b600354426118bd9190612584565b8160020160046101000a81548163ffffffff021916908363ffffffff16021790555050565b600073ffffffffffffffffffffffffffffffffffffffff168173ffffffffffffffffffffffffffffffffffffffff16141561191c57600080fd5b8073ffffffffffffffffffffffffffffffffffffffff1660008054906101000a900473ffffffffffffffffffffffffffffffffffffffff1673ffffffffffffffffffffffffffffffffffffffff167f8be0079c531659141344cd1fd0a4f28419497f9722a3daafe3b4186f6b6457e060405160405180910390a3806000806101000a81548173ffffffffffffffffffffffffffffffffffffffff021916908373ffffffffffffffffffffffffffffffffffffffff16021790555050565b6000428260020160049054906101000a900463ffffffff1663ffffffff1611159050919050565b6000808284611a0f9190612584565b905083811015611a2257611a216127a3565b5b8091505092915050565b600082821115611a3f57611a3e6127a3565b5b8183611a4b91906124f8565b905092915050565b828054611a5f90612466565b90600052602060002090601f016020900481019282611a815760008555611ac8565b82601f10611a9a57803560ff1916838001178555611ac8565b82800160010185558215611ac8579182015b82811115611ac7578235825591602001919060010190611aac565b5b509050611ad59190611b5f565b5090565b828054611ae590612466565b90600052602060002090601f016020900481019282611b075760008555611b4e565b82601f10611b2057805160ff1916838001178555611b4e565b82800160010185558215611b4e579182015b82811115611b4d578251825591602001919060010190611b32565b5b509050611b5b9190611b5f565b5090565b5b80821115611b78576000816000905550600101611b60565b5090565b6000604051905090565b600080fd5b600080fd5b600073ffffffffffffffffffffffffffffffffffffffff82169050919050565b6000611bbb82611b90565b9050919050565b611bcb81611bb0565b8114611bd657600080fd5b50565b600081359050611be881611bc2565b92915050565b6000819050919050565b611c0181611bee565b8114611c0c57600080fd5b50565b600081359050611c1e81611bf8565b92915050565b60008060408385031215611c3b57611c3a611b86565b5b6000611c4985828601611bd9565b9250506020611c5a85828601611c0f565b9150509250929050565b600060208284031215611c7a57611c79611b86565b5b6000611c8884828501611c0f565b91505092915050565b600060208284031215611ca757611ca6611b86565b5b6000611cb584828501611bd9565b91505092915050565b600081519050919050565b600082825260208201905092915050565b6000819050602082019050919050565b611cf381611bee565b82525050565b6000611d058383611cea565b60208301905092915050565b6000602082019050919050565b6000611d2982611cbe565b611d338185611cc9565b9350611d3e83611cda565b8060005b83811015611d6f578151611d568882611cf9565b9750611d6183611d11565b925050600181019050611d42565b5085935050505092915050565b60006020820190508181036000830152611d968184611d1e565b905092915050565b60008060408385031215611db557611db4611b86565b5b6000611dc385828601611c0f565b9250506020611dd485828601611c0f565b9150509250929050565b600080600060608486031215611df757611df6611b86565b5b6000611e0586828701611bd9565b9350506020611e1686828701611bd9565b9250506040611e2786828701611c0f565b9150509250925092565b600081519050919050565b600082825260208201905092915050565b60005b83811015611e6b578082015181840152602081019050611e50565b83811115611e7a576000848401525b50505050565b6000601f19601f8301169050919050565b6000611e9c82611e31565b611ea68185611e3c565b9350611eb6818560208601611e4d565b611ebf81611e80565b840191505092915050565b611ed381611bee565b82525050565b600063ffffffff82169050919050565b611ef281611ed9565b82525050565b600061ffff82169050919050565b611f0f81611ef8565b82525050565b600060c0820190508181036000830152611f2f8189611e91565b9050611f3e6020830188611eca565b611f4b6040830187611ee9565b611f586060830186611ee9565b611f656080830185611f06565b611f7260a0830184611f06565b979650505050505050565b611f8681611bb0565b82525050565b6000602082019050611fa16000830184611f7d565b92915050565b6000602082019050611fbc6000830184611eca565b92915050565b600080fd5b600080fd5b7f4e487b7100000000000000000000000000000000000000000000000000000000600052604160045260246000fd5b61200482611e80565b810181811067ffffffffffffffff8211171561202357612022611fcc565b5b80604052505050565b6000612036611b7c565b90506120428282611ffb565b919050565b600067ffffffffffffffff82111561206257612061611fcc565b5b61206b82611e80565b9050602081019050919050565b82818337600083830152505050565b600061209a61209584612047565b61202c565b9050828152602081018484840111156120b6576120b5611fc7565b5b6120c1848285612078565b509392505050565b600082601f8301126120de576120dd611fc2565b5b81356120ee848260208601612087565b91505092915050565b60006020828403121561210d5761210c611b86565b5b600082013567ffffffffffffffff81111561212b5761212a611b8b565b5b612137848285016120c9565b91505092915050565b60008115159050919050565b61215581612140565b82525050565b6000602082019050612170600083018461214c565b92915050565b600080fd5b600080fd5b60008083601f84011261219657612195611fc2565b5b8235905067ffffffffffffffff8111156121b3576121b2612176565b5b6020830191508360018202830111156121cf576121ce61217b565b5b9250929050565b6000806000604084860312156121ef576121ee611b86565b5b60006121fd86828701611c0f565b935050602084013567ffffffffffffffff81111561221e5761221d611b8b565b5b61222a86828701612180565b92509250509250925092565b7f4e487b7100000000000000000000000000000000000000000000000000000000600052603260045260246000fd5b7f4e487b7100000000000000000000000000000000000000000000000000000000600052601160045260246000fd5b600061229f82611ed9565b91506122aa83611ed9565b92508263ffffffff038211156122c3576122c2612265565b5b828201905092915050565b60006122d982611bee565b91507fffffffffffffffffffffffffffffffffffffffffffffffffffffffffffffffff82141561230c5761230b612265565b5b600182019050919050565b61232081612140565b811461232b57600080fd5b50565b60008151905061233d81612317565b92915050565b60008151905061235281611bf8565b92915050565b6000806000806000806000806000806101408b8d03121561237c5761237b611b86565b5b600061238a8d828e0161232e565b9a5050602061239b8d828e0161232e565b99505060406123ac8d828e01612343565b98505060606123bd8d828e01612343565b97505060806123ce8d828e01612343565b96505060a06123df8d828e01612343565b95505060c06123f08d828e01612343565b94505060e06124018d828e01612343565b9350506101006124138d828e01612343565b9250506101206124258d828e01612343565b9150509295989b9194979a5092959850565b7f4e487b7100000000000000000000000000000000000000000000000000000000600052602260045260246000fd5b6000600282049050600182168061247e57607f821691505b6020821081141561249257612491612437565b5b50919050565b7f4e487b7100000000000000000000000000000000000000000000000000000000600052601260045260246000fd5b60006124d282611bee565b91506124dd83611bee565b9250826124ed576124ec612498565b5b828206905092915050565b600061250382611bee565b915061250e83611bee565b92508282101561252157612520612265565b5b828203905092915050565b600061253782611ef8565b915061ffff82141561254c5761254b612265565b5b600182019050919050565b600061256282611ed9565b915063ffffffff82141561257957612578612265565b5b600182019050919050565b600061258f82611bee565b915061259a83611bee565b9250827fffffffffffffffffffffffffffffffffffffffffffffffffffffffffffffffff038211156125cf576125ce612265565b5b828201905092915050565b60006125e582611bee565b91506125f083611bee565b925082612600576125ff612498565b5b828204905092915050565b600081905092915050565b7f6b69747479000000000000000000000000000000000000000000000000000000600082015250565b600061264c60058361260b565b915061265782612616565b600582019050919050565b600061266d8261263f565b9150819050919050565b600061268282611e31565b61268c818561260b565b935061269c818560208601611e4d565b80840191505092915050565b60006126b48284612677565b915081905092915050565b60006060820190506126d46000830186611eca565b81810360208301526126e68185611e91565b90506126f56040830184611eca565b949350505050565b6000819050919050565b61271861271382611bee565b6126fd565b82525050565b60008160601b9050919050565b60006127368261271e565b9050919050565b60006127488261272b565b9050919050565b61276061275b82611bb0565b61273d565b82525050565b60006127728286612707565b602082019150612782828561274f565b6014820191506127928284612707565b602082019150819050949350505050565b7f4e487b7100000000000000000000000000000000000000000000000000000000600052600160045260246000fdfea264697066735822122016b367e1bc97c3a9933d01cf9baed001cb34f3917184efbe337d50f9135b95a564736f6c63430008090033",
  "immutableReferences": {},
  "source": "pragma solidity >=0.8.9;\n\n// SPDX-License-Identifier: UNLICENSED\n\nimport \"./blobattack.sol\";\nimport \"./erc721.sol\";\nimport \"./safemath.sol\";\n\n/// @author Thomas Sauvajon\n/// @dev Compliant with OpenZeppelin's implementation of the ERC721 spec draft\ncontract CryptoBlobs is BlobAttack, ERC721 {\n    using SafeMath for uint256;\n\n    mapping(uint256 => address) blobApprovals;\n\n    function balanceOf(address _owner) external view returns (uint256) {\n        return ownerBlobCount[_owner];\n    }\n\n    function ownerOf(uint256 _tokenId) external view returns (address) {\n        return blobToOwner[_tokenId];\n    }\n\n    function _transfer(\n        address _from,\n        address _to,\n        uint256 _tokenId\n    ) private {\n        ownerBlobCount[_to] = ownerBlobCount[_to].add(1);\n        ownerBlobCount[msg.sender] = ownerBlobCount[msg.sender].sub(1);\n        blobToOwner[_tokenId] = _to;\n        emit Transfer(_from, _to, _tokenId);\n    }\n\n    function transferFrom(\n        address _from,\n        address _to,\n        uint256 _tokenId\n    ) external payable {\n        require(\n            blobToOwner[_tokenId] == msg.sender ||\n                blobApprovals[_tokenId] == msg.sender\n        );\n        _transfer(_from, _to, _tokenId);\n    }\n\n    function approve(address _approved, uint256 _tokenId)\n        external\n        payable\n        onlyOwnerOf(_tokenId)\n    {\n        blobApprovals[_tokenId] = _approved;\n        emit Approval(msg.sender, _approved, _tokenId);\n    }\n}\n",
  "sourcePath": "/Users/thomas/dev/cryptozombies/contracts/CryptoBlobs.sol",
  "compiler": {
    "name": "solc",
    "version": "0.8.9+commit.e5eed63a.Emscripten.clang"
  },
  "schemaVersion": "3.4.3",
  "updatedAt": "2021-10-15T16:46:19.282Z",
  "networkType": "ethereum",
  "devdoc": {
    "author": "Thomas Sauvajon",
    "details": "Compliant with OpenZeppelin's implementation of the ERC721 spec draft",
    "kind": "dev",
    "methods": {
      "isOwner()": {
        "returns": {
          "_0": "true if `msg.sender` is the owner of the contract."
        }
      },
      "owner()": {
        "returns": {
          "_0": "the address of the owner."
        }
      },
      "renounceOwnership()": {
        "details": "Allows the current owner to relinquish control of the contract."
      },
      "transferOwnership(address)": {
        "details": "Allows the current owner to transfer control of the contract to a newOwner.",
        "params": {
          "newOwner": "The address to transfer ownership to."
        }
      }
    },
    "version": 1
  },
  "userdoc": {
    "kind": "user",
    "methods": {
      "renounceOwnership()": {
        "notice": "Renouncing to ownership will leave the contract without an owner. It will not be possible to call the functions with the `onlyOwner` modifier anymore."
      }
    },
    "version": 1
  }
}