{
  "contractName": "CryptoBlobs",
  "abi": [
    {
      "anonymous": false,
      "inputs": [
        {
          "indexed": true,
          "internalType": "address",
          "name": "_owner",
          "type": "address"
        },
        {
          "indexed": true,
          "internalType": "address",
          "name": "_approved",
          "type": "address"
        },
        {
          "indexed": true,
          "internalType": "uint256",
          "name": "_tokenId",
          "type": "uint256"
        }
      ],
      "name": "Approval",
      "type": "event"
    },
    {
      "anonymous": false,
      "inputs": [
        {
          "indexed": false,
          "internalType": "uint256",
          "name": "blobId",
          "type": "uint256"
        },
        {
          "indexed": false,
          "internalType": "string",
          "name": "name",
          "type": "string"
        },
        {
          "indexed": false,
          "internalType": "uint256",
          "name": "dna",
          "type": "uint256"
        }
      ],
      "name": "NewBlob",
      "type": "event"
    },
    {
      "anonymous": false,
      "inputs": [
        {
          "indexed": true,
          "internalType": "address",
          "name": "previousOwner",
          "type": "address"
        },
        {
          "indexed": true,
          "internalType": "address",
          "name": "newOwner",
          "type": "address"
        }
      ],
      "name": "OwnershipTransferred",
      "type": "event"
    },
    {
      "anonymous": false,
      "inputs": [
        {
          "indexed": true,
          "internalType": "address",
          "name": "_from",
          "type": "address"
        },
        {
          "indexed": true,
          "internalType": "address",
          "name": "_to",
          "type": "address"
        },
        {
          "indexed": true,
          "internalType": "uint256",
          "name": "_tokenId",
          "type": "uint256"
        }
      ],
      "name": "Transfer",
      "type": "event"
    },
    {
      "inputs": [
        {
          "internalType": "uint256",
          "name": "",
          "type": "uint256"
        }
      ],
      "name": "blobToOwner",
      "outputs": [
        {
          "internalType": "address",
          "name": "",
          "type": "address"
        }
      ],
      "stateMutability": "view",
      "type": "function"
    },
    {
      "inputs": [
        {
          "internalType": "uint256",
          "name": "",
          "type": "uint256"
        }
      ],
      "name": "blobs",
      "outputs": [
        {
          "internalType": "string",
          "name": "name",
          "type": "string"
        },
        {
          "internalType": "uint256",
          "name": "dna",
          "type": "uint256"
        },
        {
          "internalType": "uint32",
          "name": "level",
          "type": "uint32"
        },
        {
          "internalType": "uint32",
          "name": "readyTime",
          "type": "uint32"
        },
        {
          "internalType": "uint16",
          "name": "winCount",
          "type": "uint16"
        },
        {
          "internalType": "uint16",
          "name": "lossCount",
          "type": "uint16"
        }
      ],
      "stateMutability": "view",
      "type": "function"
    },
    {
      "inputs": [
        {
          "internalType": "string",
          "name": "_name",
          "type": "string"
        }
      ],
      "name": "createRandomBlob",
      "outputs": [],
      "stateMutability": "nonpayable",
      "type": "function"
    },
    {
      "inputs": [
        {
          "internalType": "address",
          "name": "_owner",
          "type": "address"
        }
      ],
      "name": "getBlobsByOwner",
      "outputs": [
        {
          "internalType": "uint256[]",
          "name": "",
          "type": "uint256[]"
        }
      ],
      "stateMutability": "view",
      "type": "function"
    },
    {
      "inputs": [],
      "name": "isOwner",
      "outputs": [
        {
          "internalType": "bool",
          "name": "",
          "type": "bool"
        }
      ],
      "stateMutability": "view",
      "type": "function"
    },
    {
      "inputs": [],
      "name": "owner",
      "outputs": [
        {
          "internalType": "address",
          "name": "",
          "type": "address"
        }
      ],
      "stateMutability": "view",
      "type": "function"
    },
    {
      "inputs": [],
      "name": "renounceOwnership",
      "outputs": [],
      "stateMutability": "nonpayable",
      "type": "function"
    },
    {
      "inputs": [
        {
          "internalType": "address",
          "name": "newOwner",
          "type": "address"
        }
      ],
      "name": "transferOwnership",
      "outputs": [],
      "stateMutability": "nonpayable",
      "type": "function"
    },
    {
      "inputs": [
        {
          "internalType": "address",
          "name": "_owner",
          "type": "address"
        }
      ],
      "name": "balanceOf",
      "outputs": [
        {
          "internalType": "uint256",
          "name": "",
          "type": "uint256"
        }
      ],
      "stateMutability": "view",
      "type": "function"
    },
    {
      "inputs": [
        {
          "internalType": "uint256",
          "name": "_tokenId",
          "type": "uint256"
        }
      ],
      "name": "ownerOf",
      "outputs": [
        {
          "internalType": "address",
          "name": "",
          "type": "address"
        }
      ],
      "stateMutability": "view",
      "type": "function"
    },
    {
      "inputs": [
        {
          "internalType": "address",
          "name": "_from",
          "type": "address"
        },
        {
          "internalType": "address",
          "name": "_to",
          "type": "address"
        },
        {
          "internalType": "uint256",
          "name": "_tokenId",
          "type": "uint256"
        }
      ],
      "name": "transferFrom",
      "outputs": [],
      "stateMutability": "payable",
      "type": "function"
    },
    {
      "inputs": [
        {
          "internalType": "address",
          "name": "_approved",
          "type": "address"
        },
        {
          "internalType": "uint256",
          "name": "_tokenId",
          "type": "uint256"
        }
      ],
      "name": "approve",
      "outputs": [],
      "stateMutability": "payable",
      "type": "function"
    }
  ],
  "bytecode": "0x60806040526010600155600154600a6200001a919062000283565b600255603c60035560056004553480156200003457600080fd5b50336000806101000a81548173ffffffffffffffffffffffffffffffffffffffff021916908373ffffffffffffffffffffffffffffffffffffffff16021790555060008054906101000a900473ffffffffffffffffffffffffffffffffffffffff1673ffffffffffffffffffffffffffffffffffffffff16600073ffffffffffffffffffffffffffffffffffffffff167f8be0079c531659141344cd1fd0a4f28419497f9722a3daafe3b4186f6b6457e060405160405180910390a3620002d4565b7f4e487b7100000000000000000000000000000000000000000000000000000000600052601160045260246000fd5b60008160011c9050919050565b6000808291508390505b600185111562000184578086048111156200015c576200015b620000f6565b5b60018516156200016c5780820291505b80810290506200017c8562000125565b94506200013c565b94509492505050565b6000826200019f576001905062000272565b81620001af576000905062000272565b8160018114620001c85760028114620001d35762000209565b600191505062000272565b60ff841115620001e857620001e7620000f6565b5b8360020a915084821115620002025762000201620000f6565b5b5062000272565b5060208310610133831016604e8410600b8410161715620002435782820a9050838111156200023d576200023c620000f6565b5b62000272565b62000252848484600162000132565b925090508184048111156200026c576200026b620000f6565b5b81810290505b9392505050565b6000819050919050565b6000620002908262000279565b91506200029d8362000279565b9250620002cc7fffffffffffffffffffffffffffffffffffffffffffffffffffffffffffffffff84846200018d565b905092915050565b6118cd80620002e46000396000f3fe6080604052600436106100a75760003560e01c8063715018a611610064578063715018a6146101dd5780637c80f25b146101f45780638da5cb5b1461021d5780638f32d59b14610248578063970bad6f14610273578063f2fde38b146102b0576100a7565b8063095ea7b3146100ac5780631782d473146100c857806323b872dd146101055780632abc3d4e146101215780636352211e1461016357806370a08231146101a0575b600080fd5b6100c660048036038101906100c191906110d3565b6102d9565b005b3480156100d457600080fd5b506100ef60048036038101906100ea9190611113565b6103f7565b6040516100fc91906111fe565b60405180910390f35b61011f600480360381019061011a9190611220565b61054a565b005b34801561012d57600080fd5b5061014860048036038101906101439190611273565b61062e565b60405161015a96959493929190611384565b60405180910390f35b34801561016f57600080fd5b5061018a60048036038101906101859190611273565b61073e565b60405161019791906113fb565b60405180910390f35b3480156101ac57600080fd5b506101c760048036038101906101c29190611113565b61077b565b6040516101d49190611416565b60405180910390f35b3480156101e957600080fd5b506101f26107c4565b005b34801561020057600080fd5b5061021b60048036038101906102169190611566565b610893565b005b34801561022957600080fd5b50610232610915565b60405161023f91906113fb565b60405180910390f35b34801561025457600080fd5b5061025d61093e565b60405161026a91906115ca565b60405180910390f35b34801561027f57600080fd5b5061029a60048036038101906102959190611273565b610995565b6040516102a791906113fb565b60405180910390f35b3480156102bc57600080fd5b506102d760048036038101906102d29190611113565b6109c8565b005b806006600082815260200190815260200160002060009054906101000a900473ffffffffffffffffffffffffffffffffffffffff1673ffffffffffffffffffffffffffffffffffffffff163373ffffffffffffffffffffffffffffffffffffffff161461034557600080fd5b826008600084815260200190815260200160002060006101000a81548173ffffffffffffffffffffffffffffffffffffffff021916908373ffffffffffffffffffffffffffffffffffffffff160217905550818373ffffffffffffffffffffffffffffffffffffffff163373ffffffffffffffffffffffffffffffffffffffff167f8c5be1e5ebec7d5bd14f71427d1e84f3dd0314c0f7b2291e5b200ac8c7c3b92560405160405180910390a4505050565b60606000600760008473ffffffffffffffffffffffffffffffffffffffff1673ffffffffffffffffffffffffffffffffffffffff1681526020019081526020016000205467ffffffffffffffff8111156104545761045361143b565b5b6040519080825280602002602001820160405280156104825781602001602082028036833780820191505090505b5090506000805b60058054905081101561053f578473ffffffffffffffffffffffffffffffffffffffff166006600083815260200190815260200160002060009054906101000a900473ffffffffffffffffffffffffffffffffffffffff1673ffffffffffffffffffffffffffffffffffffffff16141561052c5780838381518110610511576105106115e5565b5b602002602001018181525050818061052890611643565b9250505b808061053790611643565b915050610489565b508192505050919050565b3373ffffffffffffffffffffffffffffffffffffffff166006600083815260200190815260200160002060009054906101000a900473ffffffffffffffffffffffffffffffffffffffff1673ffffffffffffffffffffffffffffffffffffffff16148061061557503373ffffffffffffffffffffffffffffffffffffffff166008600083815260200190815260200160002060009054906101000a900473ffffffffffffffffffffffffffffffffffffffff1673ffffffffffffffffffffffffffffffffffffffff16145b61061e57600080fd5b6106298383836109e5565b505050565b6005818154811061063e57600080fd5b9060005260206000209060030201600091509050806000018054610661906116bb565b80601f016020809104026020016040519081016040528092919081815260200182805461068d906116bb565b80156106da5780601f106106af576101008083540402835291602001916106da565b820191906000526020600020905b8154815290600101906020018083116106bd57829003601f168201915b5050505050908060010154908060020160009054906101000a900463ffffffff16908060020160049054906101000a900463ffffffff16908060020160089054906101000a900461ffff169080600201600a9054906101000a900461ffff16905086565b60006006600083815260200190815260200160002060009054906101000a900473ffffffffffffffffffffffffffffffffffffffff169050919050565b6000600760008373ffffffffffffffffffffffffffffffffffffffff1673ffffffffffffffffffffffffffffffffffffffff168152602001908152602001600020549050919050565b6107cc61093e565b6107d557600080fd5b600073ffffffffffffffffffffffffffffffffffffffff1660008054906101000a900473ffffffffffffffffffffffffffffffffffffffff1673ffffffffffffffffffffffffffffffffffffffff167f8be0079c531659141344cd1fd0a4f28419497f9722a3daafe3b4186f6b6457e060405160405180910390a360008060006101000a81548173ffffffffffffffffffffffffffffffffffffffff021916908373ffffffffffffffffffffffffffffffffffffffff160217905550565b600454600760003373ffffffffffffffffffffffffffffffffffffffff1673ffffffffffffffffffffffffffffffffffffffff16815260200190815260200160002054106108e057600080fd5b60006108eb82610bc3565b90506064816108fa919061171c565b81610905919061174d565b90506109118282610c08565b5050565b60008060009054906101000a900473ffffffffffffffffffffffffffffffffffffffff16905090565b60008060009054906101000a900473ffffffffffffffffffffffffffffffffffffffff1673ffffffffffffffffffffffffffffffffffffffff163373ffffffffffffffffffffffffffffffffffffffff1614905090565b60066020528060005260406000206000915054906101000a900473ffffffffffffffffffffffffffffffffffffffff1681565b6109d061093e565b6109d957600080fd5b6109e281610e3e565b50565b610a386001600760008573ffffffffffffffffffffffffffffffffffffffff1673ffffffffffffffffffffffffffffffffffffffff16815260200190815260200160002054610f3590919063ffffffff16565b600760008473ffffffffffffffffffffffffffffffffffffffff1673ffffffffffffffffffffffffffffffffffffffff16815260200190815260200160002081905550610ace6001600760003373ffffffffffffffffffffffffffffffffffffffff1673ffffffffffffffffffffffffffffffffffffffff16815260200190815260200160002054610f6190919063ffffffff16565b600760003373ffffffffffffffffffffffffffffffffffffffff1673ffffffffffffffffffffffffffffffffffffffff16815260200190815260200160002081905550816006600083815260200190815260200160002060006101000a81548173ffffffffffffffffffffffffffffffffffffffff021916908373ffffffffffffffffffffffffffffffffffffffff160217905550808273ffffffffffffffffffffffffffffffffffffffff168473ffffffffffffffffffffffffffffffffffffffff167fddf252ad1be2c89b69c2b068fc378daa952ba7f163c4a11628f55a4df523b3ef60405160405180910390a4505050565b60008082604051602001610bd791906117bd565b6040516020818303038152906040528051906020012060001c905060025481610c00919061171c565b915050919050565b60056040518060c00160405280848152602001838152602001600163ffffffff16815260200160035442610c3c91906117d4565b63ffffffff168152602001600061ffff168152602001600061ffff1681525090806001815401808255809150506001900390600052602060002090600302016000909190919091506000820151816000019080519060200190610ca0929190610f88565b506020820151816001015560408201518160020160006101000a81548163ffffffff021916908363ffffffff16021790555060608201518160020160046101000a81548163ffffffff021916908363ffffffff16021790555060808201518160020160086101000a81548161ffff021916908361ffff16021790555060a082015181600201600a6101000a81548161ffff021916908361ffff160217905550505060006001600580549050610d55919061174d565b9050336006600083815260200190815260200160002060006101000a81548173ffffffffffffffffffffffffffffffffffffffff021916908373ffffffffffffffffffffffffffffffffffffffff160217905550600760003373ffffffffffffffffffffffffffffffffffffffff1673ffffffffffffffffffffffffffffffffffffffff1681526020019081526020016000206000815480929190610df990611643565b91905055507f83253f07cdb88c445d046dda4df8617f3a41ce4ed98c1fa8e5e5236ad9dd2ed6818484604051610e319392919061182a565b60405180910390a1505050565b600073ffffffffffffffffffffffffffffffffffffffff168173ffffffffffffffffffffffffffffffffffffffff161415610e7857600080fd5b8073ffffffffffffffffffffffffffffffffffffffff1660008054906101000a900473ffffffffffffffffffffffffffffffffffffffff1673ffffffffffffffffffffffffffffffffffffffff167f8be0079c531659141344cd1fd0a4f28419497f9722a3daafe3b4186f6b6457e060405160405180910390a3806000806101000a81548173ffffffffffffffffffffffffffffffffffffffff021916908373ffffffffffffffffffffffffffffffffffffffff16021790555050565b6000808284610f4491906117d4565b905083811015610f5757610f56611868565b5b8091505092915050565b600082821115610f7457610f73611868565b5b8183610f80919061174d565b905092915050565b828054610f94906116bb565b90600052602060002090601f016020900481019282610fb65760008555610ffd565b82601f10610fcf57805160ff1916838001178555610ffd565b82800160010185558215610ffd579182015b82811115610ffc578251825591602001919060010190610fe1565b5b50905061100a919061100e565b5090565b5b8082111561102757600081600090555060010161100f565b5090565b6000604051905090565b600080fd5b600080fd5b600073ffffffffffffffffffffffffffffffffffffffff82169050919050565b600061106a8261103f565b9050919050565b61107a8161105f565b811461108557600080fd5b50565b60008135905061109781611071565b92915050565b6000819050919050565b6110b08161109d565b81146110bb57600080fd5b50565b6000813590506110cd816110a7565b92915050565b600080604083850312156110ea576110e9611035565b5b60006110f885828601611088565b9250506020611109858286016110be565b9150509250929050565b60006020828403121561112957611128611035565b5b600061113784828501611088565b91505092915050565b600081519050919050565b600082825260208201905092915050565b6000819050602082019050919050565b6111758161109d565b82525050565b6000611187838361116c565b60208301905092915050565b6000602082019050919050565b60006111ab82611140565b6111b5818561114b565b93506111c08361115c565b8060005b838110156111f15781516111d8888261117b565b97506111e383611193565b9250506001810190506111c4565b5085935050505092915050565b6000602082019050818103600083015261121881846111a0565b905092915050565b60008060006060848603121561123957611238611035565b5b600061124786828701611088565b935050602061125886828701611088565b9250506040611269868287016110be565b9150509250925092565b60006020828403121561128957611288611035565b5b6000611297848285016110be565b91505092915050565b600081519050919050565b600082825260208201905092915050565b60005b838110156112da5780820151818401526020810190506112bf565b838111156112e9576000848401525b50505050565b6000601f19601f8301169050919050565b600061130b826112a0565b61131581856112ab565b93506113258185602086016112bc565b61132e816112ef565b840191505092915050565b6113428161109d565b82525050565b600063ffffffff82169050919050565b61136181611348565b82525050565b600061ffff82169050919050565b61137e81611367565b82525050565b600060c082019050818103600083015261139e8189611300565b90506113ad6020830188611339565b6113ba6040830187611358565b6113c76060830186611358565b6113d46080830185611375565b6113e160a0830184611375565b979650505050505050565b6113f58161105f565b82525050565b600060208201905061141060008301846113ec565b92915050565b600060208201905061142b6000830184611339565b92915050565b600080fd5b600080fd5b7f4e487b7100000000000000000000000000000000000000000000000000000000600052604160045260246000fd5b611473826112ef565b810181811067ffffffffffffffff821117156114925761149161143b565b5b80604052505050565b60006114a561102b565b90506114b1828261146a565b919050565b600067ffffffffffffffff8211156114d1576114d061143b565b5b6114da826112ef565b9050602081019050919050565b82818337600083830152505050565b6000611509611504846114b6565b61149b565b90508281526020810184848401111561152557611524611436565b5b6115308482856114e7565b509392505050565b600082601f83011261154d5761154c611431565b5b813561155d8482602086016114f6565b91505092915050565b60006020828403121561157c5761157b611035565b5b600082013567ffffffffffffffff81111561159a5761159961103a565b5b6115a684828501611538565b91505092915050565b60008115159050919050565b6115c4816115af565b82525050565b60006020820190506115df60008301846115bb565b92915050565b7f4e487b7100000000000000000000000000000000000000000000000000000000600052603260045260246000fd5b7f4e487b7100000000000000000000000000000000000000000000000000000000600052601160045260246000fd5b600061164e8261109d565b91507fffffffffffffffffffffffffffffffffffffffffffffffffffffffffffffffff82141561168157611680611614565b5b600182019050919050565b7f4e487b7100000000000000000000000000000000000000000000000000000000600052602260045260246000fd5b600060028204905060018216806116d357607f821691505b602082108114156116e7576116e661168c565b5b50919050565b7f4e487b7100000000000000000000000000000000000000000000000000000000600052601260045260246000fd5b60006117278261109d565b91506117328361109d565b925082611742576117416116ed565b5b828206905092915050565b60006117588261109d565b91506117638361109d565b92508282101561177657611775611614565b5b828203905092915050565b600081905092915050565b6000611797826112a0565b6117a18185611781565b93506117b18185602086016112bc565b80840191505092915050565b60006117c9828461178c565b915081905092915050565b60006117df8261109d565b91506117ea8361109d565b9250827fffffffffffffffffffffffffffffffffffffffffffffffffffffffffffffffff0382111561181f5761181e611614565b5b828201905092915050565b600060608201905061183f6000830186611339565b81810360208301526118518185611300565b90506118606040830184611339565b949350505050565b7f4e487b7100000000000000000000000000000000000000000000000000000000600052600160045260246000fdfea26469706673582212209e7d42e860d39afbaec62127d514c2a1a89da6c2af7fbd0f589edc17c211f09a64736f6c63430008090033",
  "immutableReferences": {},
  "source": "pragma solidity >=0.8.9;\n\n// SPDX-License-Identifier: UNLICENSED\n\nimport \"./BlobHelper.sol\";\nimport \"./erc721.sol\";\nimport \"./safemath.sol\";\n\n/// @author Thomas Sauvajon\n/// @dev Compliant with OpenZeppelin's implementation of the ERC721 spec draft\ncontract CryptoBlobs is BlobHelper, ERC721 {\n    using SafeMath for uint256;\n\n    mapping(uint256 => address) blobApprovals;\n\n    modifier onlyOwnerOf(uint256 _blobId) {\n        require(msg.sender == blobToOwner[_blobId]);\n        _;\n    }\n\n    function balanceOf(address _owner) external view returns (uint256) {\n        return ownerBlobCount[_owner];\n    }\n\n    function ownerOf(uint256 _tokenId) external view returns (address) {\n        return blobToOwner[_tokenId];\n    }\n\n    function _transfer(\n        address _from,\n        address _to,\n        uint256 _tokenId\n    ) private {\n        ownerBlobCount[_to] = ownerBlobCount[_to].add(1);\n        ownerBlobCount[msg.sender] = ownerBlobCount[msg.sender].sub(1);\n        blobToOwner[_tokenId] = _to;\n        emit Transfer(_from, _to, _tokenId);\n    }\n\n    function transferFrom(\n        address _from,\n        address _to,\n        uint256 _tokenId\n    ) external payable {\n        require(\n            blobToOwner[_tokenId] == msg.sender ||\n                blobApprovals[_tokenId] == msg.sender\n        );\n        _transfer(_from, _to, _tokenId);\n    }\n\n    function approve(address _approved, uint256 _tokenId)\n        external\n        payable\n        onlyOwnerOf(_tokenId)\n    {\n        blobApprovals[_tokenId] = _approved;\n        emit Approval(msg.sender, _approved, _tokenId);\n    }\n}\n",
  "sourcePath": "/Users/thomas/dev/cryptozombies/contracts/CryptoBlobs.sol",
  "compiler": {
    "name": "solc",
    "version": "0.8.9+commit.e5eed63a.Emscripten.clang"
  },
  "schemaVersion": "3.4.3",
  "updatedAt": "2021-10-20T17:53:52.236Z",
  "devdoc": {
    "author": "Thomas Sauvajon",
    "details": "Compliant with OpenZeppelin's implementation of the ERC721 spec draft",
    "kind": "dev",
    "methods": {
      "isOwner()": {
        "returns": {
          "_0": "true if `msg.sender` is the owner of the contract."
        }
      },
      "owner()": {
        "returns": {
          "_0": "the address of the owner."
        }
      },
      "renounceOwnership()": {
        "details": "Allows the current owner to relinquish control of the contract."
      },
      "transferOwnership(address)": {
        "details": "Allows the current owner to transfer control of the contract to a newOwner.",
        "params": {
          "newOwner": "The address to transfer ownership to."
        }
      }
    },
    "version": 1
  },
  "userdoc": {
    "kind": "user",
    "methods": {
      "renounceOwnership()": {
        "notice": "Renouncing to ownership will leave the contract without an owner. It will not be possible to call the functions with the `onlyOwner` modifier anymore."
      }
    },
    "version": 1
  }
}